{
  "contractName": "ArthaRewardsDistributor",
  "abi": [
    {
      "inputs": [
        {
          "internalType": "address",
          "name": "_controller",
          "type": "address"
        },
        {
          "internalType": "address",
          "name": "_stakingContract",
          "type": "address"
        },
        {
          "internalType": "uint256",
          "name": "_duration",
          "type": "uint256"
        },
        {
          "internalType": "uint256",
          "name": "_frequency",
          "type": "uint256"
        },
        {
          "internalType": "uint256",
          "name": "_incentiveAmount",
          "type": "uint256"
        }
      ],
      "stateMutability": "nonpayable",
      "type": "constructor"
    },
    {
      "anonymous": false,
      "inputs": [
        {
          "indexed": false,
          "internalType": "uint256",
          "name": "_amount",
          "type": "uint256"
        }
      ],
      "name": "ArthaWithdraw",
      "type": "event"
    },
    {
      "anonymous": false,
      "inputs": [
        {
          "indexed": true,
          "internalType": "address",
          "name": "_controller",
          "type": "address"
        }
      ],
      "name": "ControllerUpdate",
      "type": "event"
    },
    {
      "anonymous": false,
      "inputs": [
        {
          "indexed": true,
          "internalType": "address",
          "name": "_caller",
          "type": "address"
        },
        {
          "indexed": false,
          "internalType": "uint256",
          "name": "_amount",
          "type": "uint256"
        }
      ],
      "name": "Drip",
      "type": "event"
    },
    {
      "anonymous": false,
      "inputs": [
        {
          "indexed": false,
          "internalType": "uint256",
          "name": "_duration",
          "type": "uint256"
        }
      ],
      "name": "DurationUpdate",
      "type": "event"
    },
    {
      "anonymous": false,
      "inputs": [
        {
          "indexed": false,
          "internalType": "uint256",
          "name": "_frequency",
          "type": "uint256"
        }
      ],
      "name": "FrequencyUpdate",
      "type": "event"
    },
    {
      "anonymous": false,
      "inputs": [
        {
          "indexed": false,
          "internalType": "uint256",
          "name": "_incentiveAmount",
          "type": "uint256"
        }
      ],
      "name": "IncentiveUpdate",
      "type": "event"
    },
    {
      "anonymous": false,
      "inputs": [
        {
          "indexed": false,
          "internalType": "address",
          "name": "account",
          "type": "address"
        }
      ],
      "name": "Paused",
      "type": "event"
    },
    {
      "anonymous": false,
      "inputs": [
        {
          "indexed": false,
          "internalType": "address",
          "name": "_stakingContract",
          "type": "address"
        }
      ],
      "name": "StakingContractUpdate",
      "type": "event"
    },
    {
      "anonymous": false,
      "inputs": [
        {
          "indexed": false,
          "internalType": "uint256",
          "name": "_startTime",
          "type": "uint256"
        }
      ],
      "name": "TimerReset",
      "type": "event"
    },
    {
      "anonymous": false,
      "inputs": [
        {
          "indexed": false,
          "internalType": "address",
          "name": "account",
          "type": "address"
        }
      ],
      "name": "Unpaused",
      "type": "event"
    },
    {
      "inputs": [],
      "name": "artha",
      "outputs": [
        {
          "internalType": "contract IERC20",
          "name": "",
          "type": "address"
        }
      ],
      "stateMutability": "view",
      "type": "function"
    },
    {
      "inputs": [],
      "name": "arthaBalance",
      "outputs": [
        {
          "internalType": "uint256",
          "name": "",
          "type": "uint256"
        }
      ],
      "stateMutability": "view",
      "type": "function"
    },
    {
      "inputs": [],
      "name": "ausd",
      "outputs": [
        {
          "internalType": "contract IAUSD",
          "name": "",
          "type": "address"
        }
      ],
      "stateMutability": "view",
      "type": "function"
    },
    {
      "inputs": [],
      "name": "ausdBalance",
      "outputs": [
        {
          "internalType": "uint256",
          "name": "",
          "type": "uint256"
        }
      ],
      "stateMutability": "view",
      "type": "function"
    },
    {
      "inputs": [],
      "name": "controller",
      "outputs": [
        {
          "internalType": "contract IController",
          "name": "",
          "type": "address"
        }
      ],
      "stateMutability": "view",
      "type": "function"
    },
    {
      "inputs": [],
      "name": "distributedRewards",
      "outputs": [
        {
          "internalType": "uint256",
          "name": "",
          "type": "uint256"
        }
      ],
      "stateMutability": "view",
      "type": "function"
    },
    {
      "inputs": [],
      "name": "dripFrequency",
      "outputs": [
        {
          "internalType": "uint256",
          "name": "",
          "type": "uint256"
        }
      ],
      "stateMutability": "view",
      "type": "function"
    },
    {
      "inputs": [],
      "name": "duration",
      "outputs": [
        {
          "internalType": "uint256",
          "name": "",
          "type": "uint256"
        }
      ],
      "stateMutability": "view",
      "type": "function"
    },
    {
      "inputs": [],
      "name": "incentiveAmount",
      "outputs": [
        {
          "internalType": "uint256",
          "name": "",
          "type": "uint256"
        }
      ],
      "stateMutability": "view",
      "type": "function"
    },
    {
      "inputs": [],
      "name": "isTimeEnded",
      "outputs": [
        {
          "internalType": "bool",
          "name": "",
          "type": "bool"
        }
      ],
      "stateMutability": "view",
      "type": "function"
    },
    {
      "inputs": [],
      "name": "isTimeStarted",
      "outputs": [
        {
          "internalType": "bool",
          "name": "",
          "type": "bool"
        }
      ],
      "stateMutability": "view",
      "type": "function"
    },
    {
      "inputs": [],
      "name": "lastDistributionTime",
      "outputs": [
        {
          "internalType": "uint256",
          "name": "",
          "type": "uint256"
        }
      ],
      "stateMutability": "view",
      "type": "function"
    },
    {
      "inputs": [],
      "name": "pause",
      "outputs": [],
      "stateMutability": "nonpayable",
      "type": "function"
    },
    {
      "inputs": [],
      "name": "paused",
      "outputs": [
        {
          "internalType": "bool",
          "name": "",
          "type": "bool"
        }
      ],
      "stateMutability": "view",
      "type": "function"
    },
    {
      "inputs": [],
      "name": "remainingTime",
      "outputs": [
        {
          "internalType": "uint256",
          "name": "",
          "type": "uint256"
        }
      ],
      "stateMutability": "view",
      "type": "function"
    },
    {
      "inputs": [
        {
          "internalType": "address",
          "name": "controller",
          "type": "address"
        }
      ],
      "name": "setController",
      "outputs": [],
      "stateMutability": "nonpayable",
      "type": "function"
    },
    {
      "inputs": [],
      "name": "stakingContract",
      "outputs": [
        {
          "internalType": "contract IStakingRewards",
          "name": "",
          "type": "address"
        }
      ],
      "stateMutability": "view",
      "type": "function"
    },
    {
      "inputs": [],
      "name": "startTime",
      "outputs": [
        {
          "internalType": "uint256",
          "name": "",
          "type": "uint256"
        }
      ],
      "stateMutability": "view",
      "type": "function"
    },
    {
      "inputs": [],
      "name": "timeSinceStart",
      "outputs": [
        {
          "internalType": "uint256",
          "name": "",
          "type": "uint256"
        }
      ],
      "stateMutability": "view",
      "type": "function"
    },
    {
      "inputs": [],
      "name": "unpause",
      "outputs": [],
      "stateMutability": "nonpayable",
      "type": "function"
    },
    {
      "inputs": [],
      "name": "drip",
      "outputs": [
        {
          "internalType": "uint256",
          "name": "",
          "type": "uint256"
        }
      ],
      "stateMutability": "nonpayable",
      "type": "function"
    },
    {
      "inputs": [
        {
          "internalType": "uint256",
          "name": "amount",
          "type": "uint256"
        }
      ],
      "name": "governorWithdrawArtha",
      "outputs": [],
      "stateMutability": "nonpayable",
      "type": "function"
    },
    {
      "inputs": [
        {
          "internalType": "address",
          "name": "tokenAddress",
          "type": "address"
        },
        {
          "internalType": "address",
          "name": "to",
          "type": "address"
        },
        {
          "internalType": "uint256",
          "name": "amount",
          "type": "uint256"
        }
      ],
      "name": "governorRecover",
      "outputs": [],
      "stateMutability": "nonpayable",
      "type": "function"
    },
    {
      "inputs": [
        {
          "internalType": "uint256",
          "name": "_frequency",
          "type": "uint256"
        }
      ],
      "name": "setDripFrequency",
      "outputs": [],
      "stateMutability": "nonpayable",
      "type": "function"
    },
    {
      "inputs": [
        {
          "internalType": "uint256",
          "name": "_incentiveAmount",
          "type": "uint256"
        }
      ],
      "name": "setIncentiveAmount",
      "outputs": [],
      "stateMutability": "nonpayable",
      "type": "function"
    },
    {
      "inputs": [
        {
          "internalType": "address",
          "name": "_stakingContract",
          "type": "address"
        }
      ],
      "name": "setStakingContract",
      "outputs": [],
      "stateMutability": "nonpayable",
      "type": "function"
    },
    {
      "inputs": [],
      "name": "nextDripAvailable",
      "outputs": [
        {
          "internalType": "uint256",
          "name": "",
          "type": "uint256"
        }
      ],
      "stateMutability": "view",
      "type": "function"
    },
    {
      "inputs": [],
      "name": "isDripAvailable",
      "outputs": [
        {
          "internalType": "bool",
          "name": "",
          "type": "bool"
        }
      ],
      "stateMutability": "view",
      "type": "function"
    },
    {
      "inputs": [],
      "name": "releasedReward",
      "outputs": [
        {
          "internalType": "uint256",
          "name": "",
          "type": "uint256"
        }
      ],
      "stateMutability": "view",
      "type": "function"
    },
    {
      "inputs": [],
      "name": "totalReward",
      "outputs": [
        {
          "internalType": "uint256",
          "name": "",
          "type": "uint256"
        }
      ],
      "stateMutability": "view",
      "type": "function"
    },
    {
      "inputs": [],
      "name": "rewardBalance",
      "outputs": [
        {
          "internalType": "uint256",
          "name": "",
          "type": "uint256"
        }
      ],
      "stateMutability": "view",
      "type": "function"
    },
    {
      "inputs": [],
      "name": "unreleasedReward",
      "outputs": [
        {
          "internalType": "uint256",
          "name": "",
          "type": "uint256"
        }
      ],
      "stateMutability": "view",
      "type": "function"
    }
  ],
  "bytecode": "0x608060405234801561001057600080fd5b506040516119b73803806119b7833981810160405260a081101561003357600080fd5b508051602082015160408301516060840151608090940151929391929091908483610066816001600160e01b0361010616565b50600280546001600160a01b03909216610100026001600160a81b0319909216919091179055818310156100cb5760405162461bcd60e51b81526004018080602001828103825260338152602001806119846033913960400191505060405180910390fd5b600480546001600160a01b0319166001600160a01b03861617905560068290556007819055426005556100fc610141565b505050505061017b565b60018190556040805182815290517fef01a748b5b8a4f1d48b88861f6d361d7391ad2bbed27ff97d762889ca80d7379181900360200190a150565b42600081905560408051918252517fd1dbb2ce8081405078443ef34dae718285114121a39370b14ef01b9d2b0a20839181900360200190a1565b6117fa8061018a6000396000f3fe608060405234801561001057600080fd5b50600436106101ef5760003560e01c8063aa5c3ab41161010f578063c80cb443116100a2578063f3e14f1e11610071578063f3e14f1e146103ac578063f77c4791146103b4578063f8799a63146103bc578063fd1827e2146103d9576101ef565b8063c80cb44314610377578063cae5d73b1461037f578063d29caa0b14610387578063ee99205c146103a4576101ef565b8063b617c3bb116100de578063b617c3bb14610326578063be72d19d1461032e578063c23af83214610336578063c252676a1461035a576101ef565b8063aa5c3ab414610306578063acc4bd081461030e578063ae951b2e14610316578063b5312da21461031e576101ef565b8063750142e6116101875780638456cb59116101565780638456cb59146102aa57806392eefe9b146102b25780639dd373b9146102d85780639f678cca146102fe576101ef565b8063750142e61461028a57806375b173501461029257806378e979251461029a5780638043c10c146102a2576101ef565b80633f4ba83a116101c35780633f4ba83a1461026a5780635c975abb1461027257806367fc6dea1461027a5780636bf64da214610282576101ef565b8062d89b33146101f45780630d5b00c3146102105780630fb5a6b41461022a5780632691c8e114610232575b600080fd5b6101fc6103e1565b604080519115158252519081900360200190f35b6102186103ea565b60408051918252519081900360200190f35b61021861047a565b6102686004803603606081101561024857600080fd5b506001600160a01b03813581169160208101359091169060400135610480565b005b6102686105b4565b6101fc6106f6565b6102186106ff565b610218610733565b610218610739565b61021861075a565b610218610760565b610218610766565b6102686107c9565b610268600480360360208110156102c857600080fd5b50356001600160a01b0316610909565b610268600480360360208110156102ee57600080fd5b50356001600160a01b0316610a11565b610218610b1b565b610218610d85565b610218610d8f565b6101fc610da2565b6101fc610db2565b610218610dc4565b610218610df6565b61033e610e0f565b604080516001600160a01b039092168252519081900360200190f35b6102686004803603602081101561037057600080fd5b5035610e5f565b610218610fe5565b610218610fef565b6102686004803603602081101561039d57600080fd5b5035610ff5565b61033e6110e6565b6102186110f5565b61033e6110fb565b610268600480360360208110156103d257600080fd5b503561110f565b61033e611200565b60005415155b90565b60006103f4610e0f565b6001600160a01b03166370a08231306040518263ffffffff1660e01b815260040180826001600160a01b03166001600160a01b0316815260200191505060206040518083038186803b15801561044957600080fd5b505afa15801561045d573d6000803e3d6000fd5b505050506040513d602081101561047357600080fd5b5051905090565b60015481565b60025460408051631c86b03760e31b815233600482015290516101009092046001600160a01b03169163e43581b891602480820192602092909190829003018186803b1580156104cf57600080fd5b505afa1580156104e3573d6000803e3d6000fd5b505050506040513d60208110156104f957600080fd5b50516105365760405162461bcd60e51b81526004018080602001828103825260278152602001806117286027913960400191505060405180910390fd5b6004805460408051631171bda960e01b81526001600160a01b038781169482019490945285841660248201526044810185905290519290911691631171bda99160648082019260009290919082900301818387803b15801561059757600080fd5b505af11580156105ab573d6000803e3d6000fd5b50505050505050565b60025460408051631c86b03760e31b815233600482015290516101009092046001600160a01b03169163e43581b891602480820192602092909190829003018186803b15801561060357600080fd5b505afa158015610617573d6000803e3d6000fd5b505050506040513d602081101561062d57600080fd5b5051806106b1575060025460408051630c68ba2160e01b815233600482015290516101009092046001600160a01b031691630c68ba2191602480820192602092909190829003018186803b15801561068457600080fd5b505afa158015610698573d6000803e3d6000fd5b505050506040513d60208110156106ae57600080fd5b50515b6106ec5760405162461bcd60e51b81526004018080602001828103825260338152602001806116d26033913960400191505060405180910390fd5b6106f4611250565b565b60025460ff1690565b60006107096103e1565b610715575060006103e7565b600154600054420381811161072a578061072c565b815b9250505090565b60065481565b6000610755600354610749610d85565b9063ffffffff6112f016565b905090565b60055481565b60005481565b600080610771610d85565b9050600061077d610dc4565b905061072c816040518060400160405280601f81526020017f506f6f6c3a2052656c65617365642052657761726420756e646572666c6f7700815250846113539092919063ffffffff16565b60025460408051631c86b03760e31b815233600482015290516101009092046001600160a01b03169163e43581b891602480820192602092909190829003018186803b15801561081857600080fd5b505afa15801561082c573d6000803e3d6000fd5b505050506040513d602081101561084257600080fd5b5051806108c6575060025460408051630c68ba2160e01b815233600482015290516101009092046001600160a01b031691630c68ba2191602480820192602092909190829003018186803b15801561089957600080fd5b505afa1580156108ad573d6000803e3d6000fd5b505050506040513d60208110156108c357600080fd5b50515b6109015760405162461bcd60e51b81526004018080602001828103825260338152602001806116d26033913960400191505060405180910390fd5b6106f46113ea565b60025460408051631c86b03760e31b815233600482015290516101009092046001600160a01b03169163e43581b891602480820192602092909190829003018186803b15801561095857600080fd5b505afa15801561096c573d6000803e3d6000fd5b505050506040513d602081101561098257600080fd5b50516109bf5760405162461bcd60e51b81526004018080602001828103825260278152602001806117286027913960400191505060405180910390fd5b60028054610100600160a81b0319166101006001600160a01b038416908102919091179091556040517f5b9e04ebd57dd0a9649b6a969291839f2794d18ee0dfe7027b5757db16eb98b690600090a250565b60025460408051631c86b03760e31b815233600482015290516101009092046001600160a01b03169163e43581b891602480820192602092909190829003018186803b158015610a6057600080fd5b505afa158015610a74573d6000803e3d6000fd5b505050506040513d6020811015610a8a57600080fd5b5051610ac75760405162461bcd60e51b81526004018080602001828103825260278152602001806117286027913960400191505060405180910390fd5b600480546001600160a01b0383166001600160a01b0319909116811790915560408051918252517f08f180badc28b53cca8a66d7594702ef51ff4c8d98fcbff7243625452caeabb49181900360200190a150565b6000610b256106f6565b15610b6a576040805162461bcd60e51b815260206004820152601060248201526f14185d5cd8589b194e881c185d5cd95960821b604482015290519081900360640190fd5b610b733361146d565b15610baf5760405162461bcd60e51b81526004018080602001828103825260238152602001806117056023913960400191505060405180910390fd5b610bb7610db2565b610bf25760405162461bcd60e51b81526004018080602001828103825260328152602001806117706032913960400191505060405180910390fd5b426005556000610c00610766565b905080610c3e5760405162461bcd60e51b81526004018080602001828103825260238152602001806117a26023913960400191505060405180910390fd5b600354610c51908263ffffffff6112f016565b600355610c5c611200565b600480546040805163a9059cbb60e01b81526001600160a01b0392831693810193909352602483018590525192169163a9059cbb916044808201926020929091908290030181600087803b158015610cb357600080fd5b505af1158015610cc7573d6000803e3d6000fd5b505050506040513d6020811015610cdd57600080fd5b50506004805460408051633c6b16ab60e01b8152928301849052516001600160a01b0390911691633c6b16ab91602480830192600092919082900301818387803b158015610d2a57600080fd5b505af1158015610d3e573d6000803e3d6000fd5b50505050610d4a611473565b60408051828152905133917f7cad7fbe1215c486c724bf41124e0ed689d280724381379da844556025c463c1919081900360200190a2905090565b6000610755610fe5565b6000610d996106ff565b60015403905090565b6000610dac610d8f565b15905090565b6000610dbc610df6565b421015905090565b6000610dce610da2565b15610ddb575060006103e7565b610755610de6610739565b600154610df16106ff565b611576565b60006107556006546005546112f090919063ffffffff16565b6000600260019054906101000a90046001600160a01b03166001600160a01b031663c23af8326040518163ffffffff1660e01b815260040160206040518083038186803b15801561044957600080fd5b60025460408051631c86b03760e31b815233600482015290516101009092046001600160a01b03169163e43581b891602480820192602092909190829003018186803b158015610eae57600080fd5b505afa158015610ec2573d6000803e3d6000fd5b505050506040513d6020811015610ed857600080fd5b5051610f155760405162461bcd60e51b81526004018080602001828103825260278152602001806117286027913960400191505060405180910390fd5b610f1d611200565b6001600160a01b031663a9059cbb610f336110fb565b836040518363ffffffff1660e01b815260040180836001600160a01b03166001600160a01b0316815260200182815260200192505050602060405180830381600087803b158015610f8357600080fd5b505af1158015610f97573d6000803e3d6000fd5b505050506040513d6020811015610fad57600080fd5b50506040805182815290517f5bbea09ba6b1607cba7285ad1714be6fc5fee814c635859c581b46dfee0aa8e79181900360200190a150565b60006103f4611200565b60075481565b60025460408051631c86b03760e31b815233600482015290516101009092046001600160a01b03169163e43581b891602480820192602092909190829003018186803b15801561104457600080fd5b505afa158015611058573d6000803e3d6000fd5b505050506040513d602081101561106e57600080fd5b50516110ab5760405162461bcd60e51b81526004018080602001828103825260278152602001806117286027913960400191505060405180910390fd5b60078190556040805182815290517f2f0fc31cee419b6a73870b1b60c9645d4321fb32d847025411bc37fe14531f949181900360200190a150565b6004546001600160a01b031681565b60035481565b60025461010090046001600160a01b031690565b60025460408051631c86b03760e31b815233600482015290516101009092046001600160a01b03169163e43581b891602480820192602092909190829003018186803b15801561115e57600080fd5b505afa158015611172573d6000803e3d6000fd5b505050506040513d602081101561118857600080fd5b50516111c55760405162461bcd60e51b81526004018080602001828103825260278152602001806117286027913960400191505060405180910390fd5b60068190556040805182815290517faea4c6555807b4e6dd71153a54a7a352c589aafb68cea34044db2db833fd953f9181900360200190a150565b6000600260019054906101000a90046001600160a01b03166001600160a01b031663fd1827e26040518163ffffffff1660e01b815260040160206040518083038186803b15801561044957600080fd5b6112586106f6565b6112a0576040805162461bcd60e51b815260206004820152601460248201527314185d5cd8589b194e881b9bdd081c185d5cd95960621b604482015290519081900360640190fd5b6002805460ff191690557f5db9ee0a495bf2e6ff9c91a7834c1ba4fdd244a5e8aa4e537bd38aeae4b073aa6112d36115b0565b604080516001600160a01b039092168252519081900360200190a1565b60008282018381101561134a576040805162461bcd60e51b815260206004820152601b60248201527f536166654d6174683a206164646974696f6e206f766572666c6f770000000000604482015290519081900360640190fd5b90505b92915050565b600081848411156113e25760405162461bcd60e51b81526004018080602001828103825283818151815260200191508051906020019080838360005b838110156113a757818101518382015260200161138f565b50505050905090810190601f1680156113d45780820380516001836020036101000a031916815260200191505b509250505060405180910390fd5b505050900390565b6113f26106f6565b15611437576040805162461bcd60e51b815260206004820152601060248201526f14185d5cd8589b194e881c185d5cd95960821b604482015290519081900360640190fd5b6002805460ff191660011790557f62e78cea01bee320cd4e420270b5ea74000d11b0c9f74754ebdbfc544b05a2586112d36115b0565b3b151590565b600254604080516355138f0d60e11b815230600482015290516101009092046001600160a01b03169163aa271e1a91602480820192602092909190829003018186803b1580156114c257600080fd5b505afa1580156114d6573d6000803e3d6000fd5b505050506040513d60208110156114ec57600080fd5b5051156106f4576114fb610e0f565b6001600160a01b03166340c10f19336007546040518363ffffffff1660e01b815260040180836001600160a01b03166001600160a01b0316815260200182815260200192505050600060405180830381600087803b15801561155c57600080fd5b505af1158015611570573d6000803e3d6000fd5b50505050565b60006115a88361159c61158f828663ffffffff6115b416565b879063ffffffff61161116565b9063ffffffff61166a16565b949350505050565b3390565b60008282111561160b576040805162461bcd60e51b815260206004820152601e60248201527f536166654d6174683a207375627472616374696f6e206f766572666c6f770000604482015290519081900360640190fd5b50900390565b6000826116205750600061134d565b8282028284828161162d57fe5b041461134a5760405162461bcd60e51b815260040180806020018281038252602181526020018061174f6021913960400191505060405180910390fd5b60008082116116c0576040805162461bcd60e51b815260206004820152601a60248201527f536166654d6174683a206469766973696f6e206279207a65726f000000000000604482015290519081900360640190fd5b8183816116c957fe5b04939250505056fe436f6e74726f6c6c65725265663a2043616c6c6572206973206e6f74206120677561726469616e206f7220676f7665726e6f72436f6e74726f6c6c65725265663a2043616c6c6572206973206120636f6e7472616374436f6e74726f6c6c65725265663a2043616c6c6572206973206e6f74206120676f7665726e6f72536166654d6174683a206d756c7469706c69636174696f6e206f766572666c6f774172746861526577617264734469737472696275746f723a204e6f74207061737365642064726970206672657175656e63794172746861526577617264734469737472696275746f723a206e6f2072657761726473a264697066735822122076a55734e7da86c70876033bf61e52e3609748ede37dcc40ef3bf112c8bc631d64736f6c634300060600334172746861526577617264734469737472696275746f723a206672657175656e63792065786365656473206475726174696f6e",
  "immutableReferences": {},
  "source": "pragma solidity ^0.6.0;\n\n\nimport \"@openzeppelin/contracts/math/Math.sol\";\nimport \"@openzeppelin/contracts/math/SafeMath.sol\";\nimport \"../utils/Timed.sol\";\nimport \"./IStakingRewards.sol\";\nimport \"../controller/ControllerRef.sol\";\nimport \"./IStakingRewardsDistributor.sol\";\n\n/// @title Distributor for Artha rewards to the staking contract\n/// @author Artha Protocol\n/// @notice distributes ARTHA over time at a constant rate\n\ncontract ArthaRewardsDistributor is IStakingRewardsDistributor, Timed, ControllerRef {\n\n    using SafeMath for uint256;\n\n    uint256 public override distributedRewards;\n\n    IStakingRewards public override stakingContract;\n\n    uint256 public override lastDistributionTime;\n\n    uint256 public override dripFrequency;\n\n    uint256 public override incentiveAmount;\n\n    constructor(\n        address _controller,\n        address _stakingContract,\n        uint256 _duration,\n        uint256 _frequency,\n        uint256 _incentiveAmount\n    ) public \n        ControllerRef(_controller)\n        Timed(_duration)\n    {\n        require(_duration >= _frequency, \"ArthaRewardsDistributor: frequency exceeds duration\");\n        stakingContract = IStakingRewards(_stakingContract);\n        dripFrequency = _frequency;\n        incentiveAmount = _incentiveAmount;\n\n        // solhint-disable-next-line not-rely-on-time\n        lastDistributionTime = block.timestamp;\n\n        _initTimed();\n    }\n\n\n    /// @notice sends the unlocked amount of ARTHA to the stakingRewards contract\n    /// @return amount of ARTHA sent\n    function drip() public override whenNotPaused nonContract returns(uint256) {\n        require(isDripAvailable(), \"ArthaRewardsDistributor: Not passed drip frequency\");\n        // solhint-disable-next-line not-rely-on-time\n        lastDistributionTime = block.timestamp;\n\n        uint amount = releasedReward();\n        require(amount != 0, \"ArthaRewardsDistributor: no rewards\");\n        distributedRewards = distributedRewards.add(amount);\n\n        artha().transfer(address(stakingContract), amount);\n        stakingContract.notifyRewardAmount(amount);\n\n        _incentivize();\n        \n        emit Drip(msg.sender, amount);\n        return amount;\n    }\n\n\n    /// @notice sends tokens back to governance treasury. Only callable by governance\n    /// @param amount the amount of tokens to send back to treasury\n    function governorWithdrawArtha(uint256 amount) external override onlyGovernor {\n        artha().transfer(address(controller()), amount);\n        emit ArthaWithdraw(amount);\n    }\n\n    /// @notice sends tokens back to governance treasury. Only callable by governance\n    /// @param amount the amount of tokens to send back to treasury\n    function governorRecover(address tokenAddress, address to, uint256 amount) external override onlyGovernor {\n        stakingContract.recoverERC20(tokenAddress, to, amount);\n    }\n\n    /// @notice sets the drip frequency\n    function setDripFrequency(uint256 _frequency) external override onlyGovernor {\n        dripFrequency = _frequency;\n        emit FrequencyUpdate(_frequency);\n    }\n\n    /// @notice sets the incentive amount for calling drip\n    function setIncentiveAmount(uint256 _incentiveAmount) external override onlyGovernor {\n        incentiveAmount = _incentiveAmount;\n        emit IncentiveUpdate(_incentiveAmount);\n    }\n\n    /// @notice sets the staking contract to send Artha rewards to\n    function setStakingContract(address _stakingContract) external override onlyGovernor {\n        stakingContract = IStakingRewards(_stakingContract);\n        emit StakingContractUpdate(_stakingContract);\n    }\n\n    /// @notice returns the block timestamp when drip will next be available\n    function nextDripAvailable() public view override returns (uint256) {\n        return lastDistributionTime.add(dripFrequency);\n    }\n\n    /// @notice return true if the dripFrequency has passed since the last drip\n    function isDripAvailable() public view override returns (bool) {\n        // solhint-disable-next-line not-rely-on-time\n        return block.timestamp >= nextDripAvailable();\n    }\n\n    /// @notice the total amount of rewards owned by contract and unlocked for release\n    function releasedReward() public view override returns (uint256) {\n        uint256 total = rewardBalance();\n        uint256 unreleased = unreleasedReward();\n        return total.sub(unreleased, \"Pool: Released Reward underflow\");\n    }\n    \n    /// @notice the total amount of rewards distributed by the contract over entire period\n    function totalReward() public view override returns (uint256) {\n        return rewardBalance().add(distributedRewards);\n    }\n\n    /// @notice the total balance of rewards owned by contract, locked or unlocked\n    function rewardBalance() public view override returns (uint256) {\n        return arthaBalance();\n    }\n\n    /// @notice the total amount of rewards owned by contract and locked\n    function unreleasedReward() public view override returns (uint256) {\n        if (isTimeEnded()) {\n            return 0;\n        }\n        \n        return\n            _unreleasedReward(\n                totalReward(),\n                duration,\n                timeSinceStart()\n            );\n    }\n\n    // Represents the integral of 2R/d - 2R/d^2 x dx from t to d\n    // Integral equals 2Rx/d - Rx^2/d^2\n    // Evaluated at t = 2R*t/d (start) - R*t^2/d^2 (end)\n    // Evaluated at d = 2R - R = R\n    // Solution = R - (start - end) or equivalently end + R - start (latter more convenient to code)\n    function _unreleasedReward(\n        uint256 _totalReward,\n        uint256 _duration,\n        uint256 _time\n    ) internal pure returns (uint256) {\n\n        return _totalReward.mul(_duration.sub(_time)).div(_duration);\n    }\n\n    function _incentivize() internal ifMinterSelf {\n        ausd().mint(msg.sender, incentiveAmount);\n    }\n}\n",
  "sourcePath": "/Users/parashar/Documents/defi/arthafinance/contracts/rewards/ArthaRewardsDistributor.sol",
  "compiler": {
    "name": "solc",
    "version": "0.6.6+commit.6c089d02.Emscripten.clang"
  },
  "schemaVersion": "3.3.4",
  "updatedAt": "2021-06-03T16:05:15.728Z",
  "devdoc": {
    "author": "Artha Protocol",
    "methods": {
      "governorRecover(address,address,uint256)": {
        "params": {
          "amount": "the amount of tokens to send back to treasury"
        }
      },
      "governorWithdrawArtha(uint256)": {
        "params": {
          "amount": "the amount of tokens to send back to treasury"
        }
      },
      "paused()": {
        "details": "Returns true if the contract is paused, and false otherwise."
      },
      "setController(address)": {
        "params": {
          "controller": "the new controller address"
        }
      },
      "timeSinceStart()": {
        "details": "will be less than or equal to duration",
        "returns": {
          "_0": "timestamp"
        }
      }
    },
    "title": "Distributor for Artha rewards to the staking contract"
  },
  "userdoc": {
    "methods": {
      "artha()": {
        "notice": "address of the AGT contract referenced by Controller"
      },
      "arthaBalance()": {
        "notice": "Artha balance of contract"
      },
      "ausd()": {
        "notice": "address of the AUSD contract referenced by Controller"
      },
      "ausdBalance()": {
        "notice": "ausd balance of contract"
      },
      "controller()": {
        "notice": "address of the Controller contract referenced"
      },
      "drip()": {
        "notice": "sends the unlocked amount of ARTHA to the stakingRewards contract"
      },
      "governorRecover(address,address,uint256)": {
        "notice": "sends tokens back to governance treasury. Only callable by governance"
      },
      "governorWithdrawArtha(uint256)": {
        "notice": "sends tokens back to governance treasury. Only callable by governance"
      },
      "isDripAvailable()": {
        "notice": "return true if the dripFrequency has passed since the last drip"
      },
      "isTimeEnded()": {
        "notice": "return true if time period has ended"
      },
      "nextDripAvailable()": {
        "notice": "returns the block timestamp when drip will next be available"
      },
      "pause()": {
        "notice": "set pausable methods to paused"
      },
      "releasedReward()": {
        "notice": "the total amount of rewards owned by contract and unlocked for release"
      },
      "remainingTime()": {
        "notice": "number of seconds remaining until time is up"
      },
      "rewardBalance()": {
        "notice": "the total balance of rewards owned by contract, locked or unlocked"
      },
      "setController(address)": {
        "notice": "set new Controller reference address"
      },
      "setDripFrequency(uint256)": {
        "notice": "sets the drip frequency"
      },
      "setIncentiveAmount(uint256)": {
        "notice": "sets the incentive amount for calling drip"
      },
      "setStakingContract(address)": {
        "notice": "sets the staking contract to send Artha rewards to"
      },
      "timeSinceStart()": {
        "notice": "number of seconds since contract was initialized"
      },
      "totalReward()": {
        "notice": "the total amount of rewards distributed by the contract over entire period"
      },
      "unpause()": {
        "notice": "set pausable methods to unpaused"
      },
      "unreleasedReward()": {
        "notice": "the total amount of rewards owned by contract and locked"
      }
    },
    "notice": "distributes ARTHA over time at a constant rate"
  }
}