{
  "contractName": "AUSD",
  "abi": [
    {
      "inputs": [
        {
          "internalType": "address",
          "name": "_controller",
          "type": "address"
        }
      ],
      "stateMutability": "nonpayable",
      "type": "constructor"
    },
    {
      "anonymous": false,
      "inputs": [
        {
          "indexed": true,
          "internalType": "address",
          "name": "owner",
          "type": "address"
        },
        {
          "indexed": true,
          "internalType": "address",
          "name": "spender",
          "type": "address"
        },
        {
          "indexed": false,
          "internalType": "uint256",
          "name": "value",
          "type": "uint256"
        }
      ],
      "name": "Approval",
      "type": "event"
    },
    {
      "anonymous": false,
      "inputs": [
        {
          "indexed": true,
          "internalType": "address",
          "name": "_to",
          "type": "address"
        },
        {
          "indexed": true,
          "internalType": "address",
          "name": "_burner",
          "type": "address"
        },
        {
          "indexed": false,
          "internalType": "uint256",
          "name": "_amount",
          "type": "uint256"
        }
      ],
      "name": "Burning",
      "type": "event"
    },
    {
      "anonymous": false,
      "inputs": [
        {
          "indexed": true,
          "internalType": "address",
          "name": "_controller",
          "type": "address"
        }
      ],
      "name": "ControllerUpdate",
      "type": "event"
    },
    {
      "anonymous": false,
      "inputs": [
        {
          "indexed": true,
          "internalType": "address",
          "name": "_to",
          "type": "address"
        },
        {
          "indexed": true,
          "internalType": "address",
          "name": "_minter",
          "type": "address"
        },
        {
          "indexed": false,
          "internalType": "uint256",
          "name": "_amount",
          "type": "uint256"
        }
      ],
      "name": "Minting",
      "type": "event"
    },
    {
      "anonymous": false,
      "inputs": [
        {
          "indexed": false,
          "internalType": "address",
          "name": "account",
          "type": "address"
        }
      ],
      "name": "Paused",
      "type": "event"
    },
    {
      "anonymous": false,
      "inputs": [
        {
          "indexed": true,
          "internalType": "address",
          "name": "from",
          "type": "address"
        },
        {
          "indexed": true,
          "internalType": "address",
          "name": "to",
          "type": "address"
        },
        {
          "indexed": false,
          "internalType": "uint256",
          "name": "value",
          "type": "uint256"
        }
      ],
      "name": "Transfer",
      "type": "event"
    },
    {
      "anonymous": false,
      "inputs": [
        {
          "indexed": false,
          "internalType": "address",
          "name": "account",
          "type": "address"
        }
      ],
      "name": "Unpaused",
      "type": "event"
    },
    {
      "inputs": [],
      "name": "DOMAIN_SEPARATOR",
      "outputs": [
        {
          "internalType": "bytes32",
          "name": "",
          "type": "bytes32"
        }
      ],
      "stateMutability": "view",
      "type": "function"
    },
    {
      "inputs": [],
      "name": "PERMIT_TYPEHASH",
      "outputs": [
        {
          "internalType": "bytes32",
          "name": "",
          "type": "bytes32"
        }
      ],
      "stateMutability": "view",
      "type": "function"
    },
    {
      "inputs": [
        {
          "internalType": "address",
          "name": "owner",
          "type": "address"
        },
        {
          "internalType": "address",
          "name": "spender",
          "type": "address"
        }
      ],
      "name": "allowance",
      "outputs": [
        {
          "internalType": "uint256",
          "name": "",
          "type": "uint256"
        }
      ],
      "stateMutability": "view",
      "type": "function"
    },
    {
      "inputs": [
        {
          "internalType": "address",
          "name": "spender",
          "type": "address"
        },
        {
          "internalType": "uint256",
          "name": "amount",
          "type": "uint256"
        }
      ],
      "name": "approve",
      "outputs": [
        {
          "internalType": "bool",
          "name": "",
          "type": "bool"
        }
      ],
      "stateMutability": "nonpayable",
      "type": "function"
    },
    {
      "inputs": [],
      "name": "artha",
      "outputs": [
        {
          "internalType": "contract IERC20",
          "name": "",
          "type": "address"
        }
      ],
      "stateMutability": "view",
      "type": "function"
    },
    {
      "inputs": [],
      "name": "arthaBalance",
      "outputs": [
        {
          "internalType": "uint256",
          "name": "",
          "type": "uint256"
        }
      ],
      "stateMutability": "view",
      "type": "function"
    },
    {
      "inputs": [],
      "name": "ausd",
      "outputs": [
        {
          "internalType": "contract IAUSD",
          "name": "",
          "type": "address"
        }
      ],
      "stateMutability": "view",
      "type": "function"
    },
    {
      "inputs": [],
      "name": "ausdBalance",
      "outputs": [
        {
          "internalType": "uint256",
          "name": "",
          "type": "uint256"
        }
      ],
      "stateMutability": "view",
      "type": "function"
    },
    {
      "inputs": [
        {
          "internalType": "address",
          "name": "account",
          "type": "address"
        }
      ],
      "name": "balanceOf",
      "outputs": [
        {
          "internalType": "uint256",
          "name": "",
          "type": "uint256"
        }
      ],
      "stateMutability": "view",
      "type": "function"
    },
    {
      "inputs": [],
      "name": "controller",
      "outputs": [
        {
          "internalType": "contract IController",
          "name": "",
          "type": "address"
        }
      ],
      "stateMutability": "view",
      "type": "function"
    },
    {
      "inputs": [],
      "name": "decimals",
      "outputs": [
        {
          "internalType": "uint8",
          "name": "",
          "type": "uint8"
        }
      ],
      "stateMutability": "view",
      "type": "function"
    },
    {
      "inputs": [
        {
          "internalType": "address",
          "name": "spender",
          "type": "address"
        },
        {
          "internalType": "uint256",
          "name": "subtractedValue",
          "type": "uint256"
        }
      ],
      "name": "decreaseAllowance",
      "outputs": [
        {
          "internalType": "bool",
          "name": "",
          "type": "bool"
        }
      ],
      "stateMutability": "nonpayable",
      "type": "function"
    },
    {
      "inputs": [
        {
          "internalType": "address",
          "name": "spender",
          "type": "address"
        },
        {
          "internalType": "uint256",
          "name": "addedValue",
          "type": "uint256"
        }
      ],
      "name": "increaseAllowance",
      "outputs": [
        {
          "internalType": "bool",
          "name": "",
          "type": "bool"
        }
      ],
      "stateMutability": "nonpayable",
      "type": "function"
    },
    {
      "inputs": [],
      "name": "name",
      "outputs": [
        {
          "internalType": "string",
          "name": "",
          "type": "string"
        }
      ],
      "stateMutability": "view",
      "type": "function"
    },
    {
      "inputs": [
        {
          "internalType": "address",
          "name": "",
          "type": "address"
        }
      ],
      "name": "nonces",
      "outputs": [
        {
          "internalType": "uint256",
          "name": "",
          "type": "uint256"
        }
      ],
      "stateMutability": "view",
      "type": "function"
    },
    {
      "inputs": [],
      "name": "pause",
      "outputs": [],
      "stateMutability": "nonpayable",
      "type": "function"
    },
    {
      "inputs": [],
      "name": "paused",
      "outputs": [
        {
          "internalType": "bool",
          "name": "",
          "type": "bool"
        }
      ],
      "stateMutability": "view",
      "type": "function"
    },
    {
      "inputs": [
        {
          "internalType": "address",
          "name": "controller",
          "type": "address"
        }
      ],
      "name": "setController",
      "outputs": [],
      "stateMutability": "nonpayable",
      "type": "function"
    },
    {
      "inputs": [],
      "name": "symbol",
      "outputs": [
        {
          "internalType": "string",
          "name": "",
          "type": "string"
        }
      ],
      "stateMutability": "view",
      "type": "function"
    },
    {
      "inputs": [],
      "name": "totalSupply",
      "outputs": [
        {
          "internalType": "uint256",
          "name": "",
          "type": "uint256"
        }
      ],
      "stateMutability": "view",
      "type": "function"
    },
    {
      "inputs": [
        {
          "internalType": "address",
          "name": "recipient",
          "type": "address"
        },
        {
          "internalType": "uint256",
          "name": "amount",
          "type": "uint256"
        }
      ],
      "name": "transfer",
      "outputs": [
        {
          "internalType": "bool",
          "name": "",
          "type": "bool"
        }
      ],
      "stateMutability": "nonpayable",
      "type": "function"
    },
    {
      "inputs": [
        {
          "internalType": "address",
          "name": "sender",
          "type": "address"
        },
        {
          "internalType": "address",
          "name": "recipient",
          "type": "address"
        },
        {
          "internalType": "uint256",
          "name": "amount",
          "type": "uint256"
        }
      ],
      "name": "transferFrom",
      "outputs": [
        {
          "internalType": "bool",
          "name": "",
          "type": "bool"
        }
      ],
      "stateMutability": "nonpayable",
      "type": "function"
    },
    {
      "inputs": [],
      "name": "unpause",
      "outputs": [],
      "stateMutability": "nonpayable",
      "type": "function"
    },
    {
      "inputs": [
        {
          "internalType": "address",
          "name": "to",
          "type": "address"
        },
        {
          "internalType": "uint256",
          "name": "amount",
          "type": "uint256"
        }
      ],
      "name": "mint",
      "outputs": [],
      "stateMutability": "nonpayable",
      "type": "function"
    },
    {
      "inputs": [
        {
          "internalType": "address",
          "name": "owner",
          "type": "address"
        },
        {
          "internalType": "address",
          "name": "spender",
          "type": "address"
        },
        {
          "internalType": "uint256",
          "name": "value",
          "type": "uint256"
        },
        {
          "internalType": "uint256",
          "name": "deadline",
          "type": "uint256"
        },
        {
          "internalType": "uint8",
          "name": "v",
          "type": "uint8"
        },
        {
          "internalType": "bytes32",
          "name": "r",
          "type": "bytes32"
        },
        {
          "internalType": "bytes32",
          "name": "s",
          "type": "bytes32"
        }
      ],
      "name": "permit",
      "outputs": [],
      "stateMutability": "nonpayable",
      "type": "function"
    },
    {
      "inputs": [
        {
          "internalType": "uint256",
          "name": "amount",
          "type": "uint256"
        }
      ],
      "name": "burn",
      "outputs": [],
      "stateMutability": "nonpayable",
      "type": "function"
    }
  ],
  "bytecode": "0x60806040523480156200001157600080fd5b5060405162001bef38038062001bef833981810160405260208110156200003757600080fd5b50516040805180820182526009815268105c9d1a18481554d160ba1b602082810191825283518085019094526004845263105554d160e21b90840152815184939162000087916003919062000223565b5080516200009d90600490602084019062000223565b5050600580546001600160a01b039093166201000002610100600160b01b031960ff19909416601217939093169290921790915550604051469080605262001b9d82396040519081900360520190209050620001016001600160e01b036200018816565b805160209182012060408051808201825260018152603160f81b90840152805180840194909452838101919091527fc89efdaa54c0f20c7adf612882df0950f5a951637e0307cdcb4c672f298b8bc6606084015260808301939093523060a0808401919091528351808403909101815260c0909201909252805191012060065550620002c5565b60038054604080516020601f6002600019610100600188161502019095169490940493840181900481028201810190925282815260609390929091830182828015620002185780601f10620001ec5761010080835404028352916020019162000218565b820191906000526020600020905b815481529060010190602001808311620001fa57829003601f168201915b505050505090505b90565b828054600181600116156101000203166002900490600052602060002090601f016020900481019282601f106200026657805160ff191683800117855562000296565b8280016001018555821562000296579182015b828111156200029657825182559160200191906001019062000279565b50620002a4929150620002a8565b5090565b6200022091905b80821115620002a45760008155600101620002af565b6118c880620002d56000396000f3fe608060405234801561001057600080fd5b506004361061018e5760003560e01c806370a08231116100de578063a9059cbb11610097578063d505accf11610071578063d505accf14610463578063dd62ed3e146104b4578063f77c4791146104e2578063fd1827e2146104ea5761018e565b8063a9059cbb1461040b578063c23af83214610437578063c80cb4431461045b5761018e565b806370a082311461035d5780637ecebe00146103835780638456cb59146103a957806392eefe9b146103b157806395d89b41146103d7578063a457c2d7146103df5761018e565b8063313ce5671161014b5780633f4ba83a116101255780633f4ba83a1461030257806340c10f191461030c57806342966c68146103385780635c975abb146103555761018e565b8063313ce567146102b05780633644e515146102ce57806339509351146102d65761018e565b806306fdde0314610193578063095ea7b3146102105780630d5b00c31461025057806318160ddd1461026a57806323b872dd1461027257806330adf81f146102a8575b600080fd5b61019b6104f2565b6040805160208082528351818301528351919283929083019185019080838360005b838110156101d55781810151838201526020016101bd565b50505050905090810190601f1680156102025780820380516001836020036101000a031916815260200191505b509250505060405180910390f35b61023c6004803603604081101561022657600080fd5b506001600160a01b038135169060200135610588565b604080519115158252519081900360200190f35b6102586105a5565b60408051918252519081900360200190f35b610258610635565b61023c6004803603606081101561028857600080fd5b506001600160a01b0381358116916020810135909116906040013561063b565b6102586106c8565b6102b86106ec565b6040805160ff9092168252519081900360200190f35b6102586106f5565b61023c600480360360408110156102ec57600080fd5b506001600160a01b0381351690602001356106fb565b61030a61074f565b005b61030a6004803603604081101561032257600080fd5b506001600160a01b038135169060200135610893565b61030a6004803603602081101561034e57600080fd5b5035610958565b61023c61099c565b6102586004803603602081101561037357600080fd5b50356001600160a01b03166109aa565b6102586004803603602081101561039957600080fd5b50356001600160a01b03166109c5565b61030a6109d7565b61030a600480360360208110156103c757600080fd5b50356001600160a01b0316610b19565b61019b610c24565b61023c600480360360408110156103f557600080fd5b506001600160a01b038135169060200135610c85565b61023c6004803603604081101561042157600080fd5b506001600160a01b038135169060200135610cf3565b61043f610d07565b604080516001600160a01b039092168252519081900360200190f35b610258610d57565b61030a600480360360e081101561047957600080fd5b506001600160a01b03813581169160208101359091169060408101359060608101359060ff6080820135169060a08101359060c00135610d61565b610258600480360360408110156104ca57600080fd5b506001600160a01b0381358116916020013516610f64565b61043f610f8f565b61043f610fa4565b60038054604080516020601f600260001961010060018816150201909516949094049384018190048102820181019092528281526060939092909183018282801561057e5780601f106105535761010080835404028352916020019161057e565b820191906000526020600020905b81548152906001019060200180831161056157829003601f168201915b5050505050905090565b600061059c610595610ff4565b8484610ff8565b50600192915050565b60006105af610d07565b6001600160a01b03166370a08231306040518263ffffffff1660e01b815260040180826001600160a01b03166001600160a01b0316815260200191505060206040518083038186803b15801561060457600080fd5b505afa158015610618573d6000803e3d6000fd5b505050506040513d602081101561062e57600080fd5b5051905090565b60025490565b60006106488484846110e4565b6106be84610654610ff4565b6106b9856040518060600160405280602881526020016117dc602891396001600160a01b038a16600090815260016020526040812090610692610ff4565b6001600160a01b03168152602081019190915260400160002054919063ffffffff61124b16565b610ff8565b5060019392505050565b7f6e71edae12b1b97f4d1f60370fef10105fa2faae0126114a169c64845d6126c981565b60055460ff1690565b60065481565b600061059c610708610ff4565b846106b98560016000610719610ff4565b6001600160a01b03908116825260208083019390935260409182016000908120918c16815292529020549063ffffffff6112e216565b60055460408051631c86b03760e31b81523360048201529051620100009092046001600160a01b03169163e43581b891602480820192602092909190829003018186803b15801561079f57600080fd5b505afa1580156107b3573d6000803e3d6000fd5b505050506040513d60208110156107c957600080fd5b50518061084e575060055460408051630c68ba2160e01b81523360048201529051620100009092046001600160a01b031691630c68ba2191602480820192602092909190829003018186803b15801561082157600080fd5b505afa158015610835573d6000803e3d6000fd5b505050506040513d602081101561084b57600080fd5b50515b6108895760405162461bcd60e51b81526004018080602001828103825260338152602001806116f36033913960400191505060405180910390fd5b610891611343565b565b600554604080516355138f0d60e11b81523360048201529051620100009092046001600160a01b03169163aa271e1a91602480820192602092909190829003018186803b1580156108e357600080fd5b505afa1580156108f7573d6000803e3d6000fd5b505050506040513d602081101561090d57600080fd5b505161094a5760405162461bcd60e51b815260040180806020018281038252602581526020018061176a6025913960400191505060405180910390fd5b61095482826113e4565b5050565b61096233826114e0565b604080518281529051339182917f227fb4b3aae8331f21af5167739c291fefe3afd3c2e08cea44f499e564f486ef9181900360200190a350565b600554610100900460ff1690565b6001600160a01b031660009081526020819052604090205490565b60076020526000908152604090205481565b60055460408051631c86b03760e31b81523360048201529051620100009092046001600160a01b03169163e43581b891602480820192602092909190829003018186803b158015610a2757600080fd5b505afa158015610a3b573d6000803e3d6000fd5b505050506040513d6020811015610a5157600080fd5b505180610ad6575060055460408051630c68ba2160e01b81523360048201529051620100009092046001600160a01b031691630c68ba2191602480820192602092909190829003018186803b158015610aa957600080fd5b505afa158015610abd573d6000803e3d6000fd5b505050506040513d6020811015610ad357600080fd5b50515b610b115760405162461bcd60e51b81526004018080602001828103825260338152602001806116f36033913960400191505060405180910390fd5b6108916115e8565b60055460408051631c86b03760e31b81523360048201529051620100009092046001600160a01b03169163e43581b891602480820192602092909190829003018186803b158015610b6957600080fd5b505afa158015610b7d573d6000803e3d6000fd5b505050506040513d6020811015610b9357600080fd5b5051610bd05760405162461bcd60e51b81526004018080602001828103825260278152602001806117b56027913960400191505060405180910390fd5b6005805462010000600160b01b031916620100006001600160a01b038416908102919091179091556040517f5b9e04ebd57dd0a9649b6a969291839f2794d18ee0dfe7027b5757db16eb98b690600090a250565b60048054604080516020601f600260001961010060018816150201909516949094049384018190048102820181019092528281526060939092909183018282801561057e5780601f106105535761010080835404028352916020019161057e565b600061059c610c92610ff4565b846106b98560405180606001604052806025815260200161186e6025913960016000610cbc610ff4565b6001600160a01b03908116825260208083019390935260409182016000908120918d1681529252902054919063ffffffff61124b16565b600061059c610d00610ff4565b84846110e4565b6000600560029054906101000a90046001600160a01b03166001600160a01b031663c23af8326040518163ffffffff1660e01b815260040160206040518083038186803b15801561060457600080fd5b60006105af610fa4565b42841015610dac576040805162461bcd60e51b8152602060048201526013602482015272105c9d1a18551bdad95b8e8811561412549151606a1b604482015290519081900360640190fd5b6006546001600160a01b0380891660008181526007602090815260408083208054600180820190925582517f6e71edae12b1b97f4d1f60370fef10105fa2faae0126114a169c64845d6126c98186015280840196909652958d166060860152608085018c905260a085019590955260c08085018b90528151808603909101815260e08501825280519083012061190160f01b6101008601526101028501969096526101228085019690965280518085039096018652610142840180825286519683019690962095839052610162840180825286905260ff89166101828501526101a284018890526101c28401879052519193926101e280820193601f1981019281900390910190855afa158015610ec7573d6000803e3d6000fd5b5050604051601f1901519150506001600160a01b03811615801590610efd5750886001600160a01b0316816001600160a01b0316145b610f4e576040805162461bcd60e51b815260206004820152601d60248201527f4172746861546f6b656e3a20494e56414c49445f5349474e4154555245000000604482015290519081900360640190fd5b610f59898989610ff8565b505050505050505050565b6001600160a01b03918216600090815260016020908152604080832093909416825291909152205490565b6005546201000090046001600160a01b031690565b6000600560029054906101000a90046001600160a01b03166001600160a01b031663fd1827e26040518163ffffffff1660e01b815260040160206040518083038186803b15801561060457600080fd5b3390565b6001600160a01b03831661103d5760405162461bcd60e51b815260040180806020018281038252602481526020018061184a6024913960400191505060405180910390fd5b6001600160a01b0382166110825760405162461bcd60e51b81526004018080602001828103825260228152602001806117486022913960400191505060405180910390fd5b6001600160a01b03808416600081815260016020908152604080832094871680845294825291829020859055815185815291517f8c5be1e5ebec7d5bd14f71427d1e84f3dd0314c0f7b2291e5b200ac8c7c3b9259281900390910190a3505050565b6001600160a01b0383166111295760405162461bcd60e51b81526004018080602001828103825260258152602001806118256025913960400191505060405180910390fd5b6001600160a01b03821661116e5760405162461bcd60e51b81526004018080602001828103825260238152602001806116d06023913960400191505060405180910390fd5b61117983838361166d565b6111bc8160405180606001604052806026815260200161178f602691396001600160a01b038616600090815260208190526040902054919063ffffffff61124b16565b6001600160a01b0380851660009081526020819052604080822093909355908416815220546111f1908263ffffffff6112e216565b6001600160a01b038084166000818152602081815260409182902094909455805185815290519193928716927fddf252ad1be2c89b69c2b068fc378daa952ba7f163c4a11628f55a4df523b3ef92918290030190a3505050565b600081848411156112da5760405162461bcd60e51b81526004018080602001828103825283818151815260200191508051906020019080838360005b8381101561129f578181015183820152602001611287565b50505050905090810190601f1680156112cc5780820380516001836020036101000a031916815260200191505b509250505060405180910390fd5b505050900390565b60008282018381101561133c576040805162461bcd60e51b815260206004820152601b60248201527f536166654d6174683a206164646974696f6e206f766572666c6f770000000000604482015290519081900360640190fd5b9392505050565b61134b61099c565b611393576040805162461bcd60e51b815260206004820152601460248201527314185d5cd8589b194e881b9bdd081c185d5cd95960621b604482015290519081900360640190fd5b6005805461ff00191690557f5db9ee0a495bf2e6ff9c91a7834c1ba4fdd244a5e8aa4e537bd38aeae4b073aa6113c7610ff4565b604080516001600160a01b039092168252519081900360200190a1565b6001600160a01b03821661143f576040805162461bcd60e51b815260206004820152601f60248201527f45524332303a206d696e7420746f20746865207a65726f206164647265737300604482015290519081900360640190fd5b61144b6000838361166d565b60025461145e908263ffffffff6112e216565b6002556001600160a01b03821660009081526020819052604090205461148a908263ffffffff6112e216565b6001600160a01b0383166000818152602081815260408083209490945583518581529351929391927fddf252ad1be2c89b69c2b068fc378daa952ba7f163c4a11628f55a4df523b3ef9281900390910190a35050565b6001600160a01b0382166115255760405162461bcd60e51b81526004018080602001828103825260218152602001806118046021913960400191505060405180910390fd5b6115318260008361166d565b61157481604051806060016040528060228152602001611726602291396001600160a01b038516600090815260208190526040902054919063ffffffff61124b16565b6001600160a01b0383166000908152602081905260409020556002546115a0908263ffffffff61167216565b6002556040805182815290516000916001600160a01b038516917fddf252ad1be2c89b69c2b068fc378daa952ba7f163c4a11628f55a4df523b3ef9181900360200190a35050565b6115f061099c565b15611635576040805162461bcd60e51b815260206004820152601060248201526f14185d5cd8589b194e881c185d5cd95960821b604482015290519081900360640190fd5b6005805461ff0019166101001790557f62e78cea01bee320cd4e420270b5ea74000d11b0c9f74754ebdbfc544b05a2586113c7610ff4565b505050565b6000828211156116c9576040805162461bcd60e51b815260206004820152601e60248201527f536166654d6174683a207375627472616374696f6e206f766572666c6f770000604482015290519081900360640190fd5b5090039056fe45524332303a207472616e7366657220746f20746865207a65726f2061646472657373436f6e74726f6c6c65725265663a2043616c6c6572206973206e6f74206120677561726469616e206f7220676f7665726e6f7245524332303a206275726e20616d6f756e7420657863656564732062616c616e636545524332303a20617070726f766520746f20746865207a65726f2061646472657373436f6e74726f6c6c65725265663a2043616c6c6572206973206e6f742061206d696e74657245524332303a207472616e7366657220616d6f756e7420657863656564732062616c616e6365436f6e74726f6c6c65725265663a2043616c6c6572206973206e6f74206120676f7665726e6f7245524332303a207472616e7366657220616d6f756e74206578636565647320616c6c6f77616e636545524332303a206275726e2066726f6d20746865207a65726f206164647265737345524332303a207472616e736665722066726f6d20746865207a65726f206164647265737345524332303a20617070726f76652066726f6d20746865207a65726f206164647265737345524332303a2064656372656173656420616c6c6f77616e63652062656c6f77207a65726fa2646970667358221220e7333a2b9a3f34d66620e01ba2da6a623b9a6d41652f34924504410775b1b24864736f6c63430006060033454950373132446f6d61696e28737472696e67206e616d652c737472696e672076657273696f6e2c75696e7432353620636861696e49642c6164647265737320766572696679696e67436f6e747261637429",
  "immutableReferences": {},
  "source": "// SPDX-License-Identifier: MIT\n\npragma solidity ^0.6.0;\n\nimport \"@openzeppelin/contracts/token/ERC20/ERC20.sol\";\nimport \"@openzeppelin/contracts/math/SafeMath.sol\";\nimport \"../controller/ControllerRef.sol\";\nimport \"./IAUSD.sol\";\n\ncontract AUSD is IAUSD, ERC20, ControllerRef{\n\n    using SafeMath for uint256;\n\n    // solhint-disable-next-line var-name-mixedcase\n    bytes32 public DOMAIN_SEPARATOR;\n    // keccak256(\"Permit(address owner,address spender,uint256 value,uint256 nonce,uint256 deadline)\");\n    bytes32 public constant PERMIT_TYPEHASH =\n        0x6e71edae12b1b97f4d1f60370fef10105fa2faae0126114a169c64845d6126c9;\n\n    mapping(address => uint256) public nonces;\n\n    constructor(\n                address _controller\n            )  public\n            ControllerRef(_controller)\n            ERC20(\"Artha USD\", \"AUSD\") {\n       \n        uint256 chainId;\n        // solhint-disable-next-line no-inline-assembly\n        assembly {\n            chainId := chainid()\n        }\n        DOMAIN_SEPARATOR = keccak256(\n            abi.encode(\n                keccak256(\n                    \"EIP712Domain(string name,string version,uint256 chainId,address verifyingContract)\"\n                ),\n                keccak256(bytes(name())),\n                keccak256(bytes(\"1\")),\n                chainId,\n                address(this)\n            )\n        );\n\n    }\n\n    function mint(address to, uint256 amount) public override virtual onlyMinter {\n        _mint(to, amount);\n    }\n\n    /// @notice permit spending of Artha\n    /// @param owner the Artha holder\n    /// @param spender the approved operator\n    /// @param value the amount approved\n    /// @param deadline the deadline after which the approval is no longer valid\n    function permit(\n        address owner,\n        address spender,\n        uint256 value,\n        uint256 deadline,\n        uint8 v,\n        bytes32 r,\n        bytes32 s\n    ) external override {\n        // solhint-disable-next-line not-rely-on-time\n        require(deadline >= block.timestamp, \"ArthaToken: EXPIRED\");\n        bytes32 digest =\n            keccak256(\n                abi.encodePacked(\n                    \"\\x19\\x01\",\n                    DOMAIN_SEPARATOR,\n                    keccak256(\n                        abi.encode(\n                            PERMIT_TYPEHASH,\n                            owner,\n                            spender,\n                            value,\n                            nonces[owner]++,\n                            deadline\n                        )\n                    )\n                )\n            );\n        address recoveredAddress = ecrecover(digest, v, r, s);\n        require(\n            recoveredAddress != address(0) && recoveredAddress == owner,\n            \"ArthaToken: INVALID_SIGNATURE\"\n        );\n        _approve(owner, spender, value);\n    }    \n\n    /// @notice burn AUSD tokens from caller\n    /// @param amount the amount to burn\n    function burn(uint256 amount) public override(IAUSD) {\n        _burn(msg.sender, amount);\n        emit Burning(msg.sender, msg.sender, amount);\n    }\n\n\n}\n",
  "sourcePath": "/Users/parashar/Documents/defi/arthafinance/contracts/token/AUSD.sol",
  "compiler": {
    "name": "solc",
    "version": "0.6.6+commit.6c089d02.Emscripten.clang"
  },
  "schemaVersion": "3.3.4",
  "updatedAt": "2021-06-03T16:05:15.755Z",
  "devdoc": {
    "methods": {
      "allowance(address,address)": {
        "details": "See {IERC20-allowance}."
      },
      "approve(address,uint256)": {
        "details": "See {IERC20-approve}.     * Requirements:     * - `spender` cannot be the zero address."
      },
      "balanceOf(address)": {
        "details": "See {IERC20-balanceOf}."
      },
      "burn(uint256)": {
        "params": {
          "amount": "the amount to burn"
        }
      },
      "decimals()": {
        "details": "Returns the number of decimals used to get its user representation. For example, if `decimals` equals `2`, a balance of `505` tokens should be displayed to a user as `5,05` (`505 / 10 ** 2`).     * Tokens usually opt for a value of 18, imitating the relationship between Ether and Wei. This is the value {ERC20} uses, unless {_setupDecimals} is called.     * NOTE: This information is only used for _display_ purposes: it in no way affects any of the arithmetic of the contract, including {IERC20-balanceOf} and {IERC20-transfer}."
      },
      "decreaseAllowance(address,uint256)": {
        "details": "Atomically decreases the allowance granted to `spender` by the caller.     * This is an alternative to {approve} that can be used as a mitigation for problems described in {IERC20-approve}.     * Emits an {Approval} event indicating the updated allowance.     * Requirements:     * - `spender` cannot be the zero address. - `spender` must have allowance for the caller of at least `subtractedValue`."
      },
      "increaseAllowance(address,uint256)": {
        "details": "Atomically increases the allowance granted to `spender` by the caller.     * This is an alternative to {approve} that can be used as a mitigation for problems described in {IERC20-approve}.     * Emits an {Approval} event indicating the updated allowance.     * Requirements:     * - `spender` cannot be the zero address."
      },
      "name()": {
        "details": "Returns the name of the token."
      },
      "paused()": {
        "details": "Returns true if the contract is paused, and false otherwise."
      },
      "permit(address,address,uint256,uint256,uint8,bytes32,bytes32)": {
        "params": {
          "deadline": "the deadline after which the approval is no longer valid",
          "owner": "the Artha holder",
          "spender": "the approved operator",
          "value": "the amount approved"
        }
      },
      "setController(address)": {
        "params": {
          "controller": "the new controller address"
        }
      },
      "symbol()": {
        "details": "Returns the symbol of the token, usually a shorter version of the name."
      },
      "totalSupply()": {
        "details": "See {IERC20-totalSupply}."
      },
      "transfer(address,uint256)": {
        "details": "See {IERC20-transfer}.     * Requirements:     * - `recipient` cannot be the zero address. - the caller must have a balance of at least `amount`."
      },
      "transferFrom(address,address,uint256)": {
        "details": "See {IERC20-transferFrom}.     * Emits an {Approval} event indicating the updated allowance. This is not required by the EIP. See the note at the beginning of {ERC20}.     * Requirements:     * - `sender` and `recipient` cannot be the zero address. - `sender` must have a balance of at least `amount`. - the caller must have allowance for ``sender``'s tokens of at least `amount`."
      }
    }
  },
  "userdoc": {
    "methods": {
      "artha()": {
        "notice": "address of the AGT contract referenced by Controller"
      },
      "arthaBalance()": {
        "notice": "Artha balance of contract"
      },
      "ausd()": {
        "notice": "address of the AUSD contract referenced by Controller"
      },
      "ausdBalance()": {
        "notice": "ausd balance of contract"
      },
      "burn(uint256)": {
        "notice": "burn AUSD tokens from caller"
      },
      "controller()": {
        "notice": "address of the Controller contract referenced"
      },
      "pause()": {
        "notice": "set pausable methods to paused"
      },
      "permit(address,address,uint256,uint256,uint8,bytes32,bytes32)": {
        "notice": "permit spending of Artha"
      },
      "setController(address)": {
        "notice": "set new Controller reference address"
      },
      "unpause()": {
        "notice": "set pausable methods to unpaused"
      }
    }
  }
}