{
  "contractName": "AUSDIssuer",
  "abi": [
    {
      "inputs": [
        {
          "internalType": "address",
          "name": "_asset",
          "type": "address"
        },
        {
          "internalType": "address",
          "name": "_controller",
          "type": "address"
        },
        {
          "internalType": "uint256",
          "name": "_duration",
          "type": "uint256"
        }
      ],
      "stateMutability": "nonpayable",
      "type": "constructor"
    },
    {
      "anonymous": false,
      "inputs": [
        {
          "indexed": true,
          "internalType": "address",
          "name": "_controller",
          "type": "address"
        }
      ],
      "name": "ControllerUpdate",
      "type": "event"
    },
    {
      "anonymous": false,
      "inputs": [
        {
          "indexed": false,
          "internalType": "uint256",
          "name": "_duration",
          "type": "uint256"
        }
      ],
      "name": "DurationUpdate",
      "type": "event"
    },
    {
      "anonymous": false,
      "inputs": [
        {
          "indexed": false,
          "internalType": "address",
          "name": "account",
          "type": "address"
        }
      ],
      "name": "Paused",
      "type": "event"
    },
    {
      "anonymous": false,
      "inputs": [
        {
          "indexed": false,
          "internalType": "uint256",
          "name": "_startTime",
          "type": "uint256"
        }
      ],
      "name": "TimerReset",
      "type": "event"
    },
    {
      "anonymous": false,
      "inputs": [
        {
          "indexed": false,
          "internalType": "address",
          "name": "account",
          "type": "address"
        }
      ],
      "name": "Unpaused",
      "type": "event"
    },
    {
      "inputs": [],
      "name": "artha",
      "outputs": [
        {
          "internalType": "contract IERC20",
          "name": "",
          "type": "address"
        }
      ],
      "stateMutability": "view",
      "type": "function"
    },
    {
      "inputs": [],
      "name": "arthaBalance",
      "outputs": [
        {
          "internalType": "uint256",
          "name": "",
          "type": "uint256"
        }
      ],
      "stateMutability": "view",
      "type": "function"
    },
    {
      "inputs": [],
      "name": "asset",
      "outputs": [
        {
          "internalType": "address",
          "name": "",
          "type": "address"
        }
      ],
      "stateMutability": "view",
      "type": "function"
    },
    {
      "inputs": [],
      "name": "ausd",
      "outputs": [
        {
          "internalType": "contract IAUSD",
          "name": "",
          "type": "address"
        }
      ],
      "stateMutability": "view",
      "type": "function"
    },
    {
      "inputs": [],
      "name": "ausdBalance",
      "outputs": [
        {
          "internalType": "uint256",
          "name": "",
          "type": "uint256"
        }
      ],
      "stateMutability": "view",
      "type": "function"
    },
    {
      "inputs": [],
      "name": "controller",
      "outputs": [
        {
          "internalType": "contract IController",
          "name": "",
          "type": "address"
        }
      ],
      "stateMutability": "view",
      "type": "function"
    },
    {
      "inputs": [],
      "name": "duration",
      "outputs": [
        {
          "internalType": "uint256",
          "name": "",
          "type": "uint256"
        }
      ],
      "stateMutability": "view",
      "type": "function"
    },
    {
      "inputs": [],
      "name": "isTimeEnded",
      "outputs": [
        {
          "internalType": "bool",
          "name": "",
          "type": "bool"
        }
      ],
      "stateMutability": "view",
      "type": "function"
    },
    {
      "inputs": [],
      "name": "isTimeStarted",
      "outputs": [
        {
          "internalType": "bool",
          "name": "",
          "type": "bool"
        }
      ],
      "stateMutability": "view",
      "type": "function"
    },
    {
      "inputs": [],
      "name": "pause",
      "outputs": [],
      "stateMutability": "nonpayable",
      "type": "function"
    },
    {
      "inputs": [],
      "name": "paused",
      "outputs": [
        {
          "internalType": "bool",
          "name": "",
          "type": "bool"
        }
      ],
      "stateMutability": "view",
      "type": "function"
    },
    {
      "inputs": [],
      "name": "pool",
      "outputs": [
        {
          "internalType": "bytes32",
          "name": "",
          "type": "bytes32"
        }
      ],
      "stateMutability": "view",
      "type": "function"
    },
    {
      "inputs": [],
      "name": "remainingTime",
      "outputs": [
        {
          "internalType": "uint256",
          "name": "",
          "type": "uint256"
        }
      ],
      "stateMutability": "view",
      "type": "function"
    },
    {
      "inputs": [
        {
          "internalType": "address",
          "name": "controller",
          "type": "address"
        }
      ],
      "name": "setController",
      "outputs": [],
      "stateMutability": "nonpayable",
      "type": "function"
    },
    {
      "inputs": [],
      "name": "startTime",
      "outputs": [
        {
          "internalType": "uint256",
          "name": "",
          "type": "uint256"
        }
      ],
      "stateMutability": "view",
      "type": "function"
    },
    {
      "inputs": [],
      "name": "timeSinceStart",
      "outputs": [
        {
          "internalType": "uint256",
          "name": "",
          "type": "uint256"
        }
      ],
      "stateMutability": "view",
      "type": "function"
    },
    {
      "inputs": [],
      "name": "unpause",
      "outputs": [],
      "stateMutability": "nonpayable",
      "type": "function"
    },
    {
      "inputs": [
        {
          "internalType": "uint256",
          "name": "amountIn",
          "type": "uint256"
        }
      ],
      "name": "calculateAUSDOut",
      "outputs": [
        {
          "internalType": "uint256",
          "name": "",
          "type": "uint256"
        }
      ],
      "stateMutability": "view",
      "type": "function"
    },
    {
      "inputs": [
        {
          "internalType": "uint256",
          "name": "amount",
          "type": "uint256"
        }
      ],
      "name": "buyAUSD",
      "outputs": [],
      "stateMutability": "nonpayable",
      "type": "function"
    },
    {
      "inputs": [],
      "name": "buyAUSDForEth",
      "outputs": [],
      "stateMutability": "payable",
      "type": "function"
    },
    {
      "inputs": [
        {
          "internalType": "address",
          "name": "token",
          "type": "address"
        }
      ],
      "name": "transferToBalancer",
      "outputs": [],
      "stateMutability": "nonpayable",
      "type": "function"
    },
    {
      "inputs": [
        {
          "internalType": "uint256",
          "name": "_frequency",
          "type": "uint256"
        }
      ],
      "name": "setIncentiveFrequency",
      "outputs": [],
      "stateMutability": "nonpayable",
      "type": "function"
    }
  ],
  "bytecode": "0x608060408190526208aa8960eb1b90527faaaebeba3810b1e6b70781f14b2d72c1cb89c0b2b320c43bb67ff79f562f5ff460035534801561003f57600080fd5b506040516119f43803806119f48339818101604052606081101561006257600080fd5b50805160208201516040909201519091908181610087816001600160e01b036100cf16565b50600280546001600160a81b0319166101006001600160a01b0393841602179055600480546001600160a01b0319169185169190911790556100c761010a565b505050610144565b60018190556040805182815290517fef01a748b5b8a4f1d48b88861f6d361d7391ad2bbed27ff97d762889ca80d7379181900360200190a150565b42600081905560408051918252517fd1dbb2ce8081405078443ef34dae718285114121a39370b14ef01b9d2b0a20839181900360200190a1565b6118a1806101536000396000f3fe6080604052600436106101345760003560e01c80638456cb59116100ab578063c23af8321161006f578063c23af83214610308578063c80cb4431461031d578063e1d92bf814610332578063e94e0b6f1461035c578063f77c47911461038f578063fd1827e2146103a457610134565b80638456cb591461028e57806392eefe9b146102a3578063acc4bd08146102d6578063ae951b2e146102eb578063b59d6dd51461030057610134565b806338d52e0f116100fd57806338d52e0f146101dd5780633f4ba83a1461020e5780635c975abb1461022557806367fc6dea1461023a57806378e979251461024f5780637bffd64b1461026457610134565b8062d89b33146101395780630875066a146101625780630d5b00c31461019e5780630fb5a6b4146101b357806316f0115b146101c8575b600080fd5b34801561014557600080fd5b5061014e6103b9565b604080519115158252519081900360200190f35b34801561016e57600080fd5b5061018c6004803603602081101561018557600080fd5b50356103c2565b60408051918252519081900360200190f35b3480156101aa57600080fd5b5061018c6104dd565b3480156101bf57600080fd5b5061018c61056d565b3480156101d457600080fd5b5061018c610573565b3480156101e957600080fd5b506101f2610579565b604080516001600160a01b039092168252519081900360200190f35b34801561021a57600080fd5b50610223610588565b005b34801561023157600080fd5b5061014e6106ca565b34801561024657600080fd5b5061018c6106d3565b34801561025b57600080fd5b5061018c610707565b34801561027057600080fd5b506102236004803603602081101561028757600080fd5b503561070d565b34801561029a57600080fd5b506102236108e3565b3480156102af57600080fd5b50610223600480360360208110156102c657600080fd5b50356001600160a01b0316610a23565b3480156102e257600080fd5b5061018c610b2b565b3480156102f757600080fd5b5061014e610b3e565b610223610b4e565b34801561031457600080fd5b506101f2610bf2565b34801561032957600080fd5b5061018c610c42565b34801561033e57600080fd5b506102236004803603602081101561035557600080fd5b5035610c4c565b34801561036857600080fd5b506102236004803603602081101561037f57600080fd5b50356001600160a01b0316610d0e565b34801561039b57600080fd5b506101f2610e6a565b3480156103b057600080fd5b506101f2610e7e565b60005415155b90565b6000806103cd610e6a565b6001600160a01b0316637061e80f6003546040518263ffffffff1660e01b81526004018082815260200191505060206040518083038186803b15801561041257600080fd5b505afa158015610426573d6000803e3d6000fd5b505050506040513d602081101561043c57600080fd5b50516040805163501ad8ff60e11b815290516001600160a01b039092169163a035b1fe91600480820192602092909190829003018186803b15801561048057600080fd5b505afa158015610494573d6000803e3d6000fd5b505050506040513d60208110156104aa57600080fd5b505190506104d6670de0b6b3a76400006104ca838663ffffffff610ece16565b9063ffffffff610f3016565b9392505050565b60006104e7610bf2565b6001600160a01b03166370a08231306040518263ffffffff1660e01b815260040180826001600160a01b03166001600160a01b0316815260200191505060206040518083038186803b15801561053c57600080fd5b505afa158015610550573d6000803e3d6000fd5b505050506040513d602081101561056657600080fd5b5051905090565b60015481565b60035481565b6004546001600160a01b031681565b60025460408051631c86b03760e31b815233600482015290516101009092046001600160a01b03169163e43581b891602480820192602092909190829003018186803b1580156105d757600080fd5b505afa1580156105eb573d6000803e3d6000fd5b505050506040513d602081101561060157600080fd5b505180610685575060025460408051630c68ba2160e01b815233600482015290516101009092046001600160a01b031691630c68ba2191602480820192602092909190829003018186803b15801561065857600080fd5b505afa15801561066c573d6000803e3d6000fd5b505050506040513d602081101561068257600080fd5b50515b6106c05760405162461bcd60e51b81526004018080602001828103825260338152602001806117416033913960400191505060405180910390fd5b6106c8610f97565b565b60025460ff1690565b60006106dd6103b9565b6106e9575060006103bf565b60015460005442038181116106fe5780610700565b815b9250505090565b60005481565b6107156106ca565b1561075a576040805162461bcd60e51b815260206004820152601060248201526f14185d5cd8589b194e881c185d5cd95960821b604482015290519081900360640190fd5b61077f610765611037565b6004546001600160a01b031690308463ffffffff61103b16565b610787610e6a565b6001600160a01b0316637061e80f6003546040518263ffffffff1660e01b81526004018082815260200191505060206040518083038186803b1580156107cc57600080fd5b505afa1580156107e0573d6000803e3d6000fd5b505050506040513d60208110156107f657600080fd5b50516040805163a2e6204560e01b815290516001600160a01b039092169163a2e620459160048082019260009290919082900301818387803b15801561083b57600080fd5b505af115801561084f573d6000803e3d6000fd5b50505050600061085e826103c2565b9050610868610bf2565b6001600160a01b03166340c10f1933836040518363ffffffff1660e01b815260040180836001600160a01b03166001600160a01b0316815260200182815260200192505050600060405180830381600087803b1580156108c757600080fd5b505af11580156108db573d6000803e3d6000fd5b505050505050565b60025460408051631c86b03760e31b815233600482015290516101009092046001600160a01b03169163e43581b891602480820192602092909190829003018186803b15801561093257600080fd5b505afa158015610946573d6000803e3d6000fd5b505050506040513d602081101561095c57600080fd5b5051806109e0575060025460408051630c68ba2160e01b815233600482015290516101009092046001600160a01b031691630c68ba2191602480820192602092909190829003018186803b1580156109b357600080fd5b505afa1580156109c7573d6000803e3d6000fd5b505050506040513d60208110156109dd57600080fd5b50515b610a1b5760405162461bcd60e51b81526004018080602001828103825260338152602001806117416033913960400191505060405180910390fd5b6106c861109b565b60025460408051631c86b03760e31b815233600482015290516101009092046001600160a01b03169163e43581b891602480820192602092909190829003018186803b158015610a7257600080fd5b505afa158015610a86573d6000803e3d6000fd5b505050506040513d6020811015610a9c57600080fd5b5051610ad95760405162461bcd60e51b81526004018080602001828103825260278152602001806117d46027913960400191505060405180910390fd5b60028054610100600160a81b0319166101006001600160a01b038416908102919091179091556040517f5b9e04ebd57dd0a9649b6a969291839f2794d18ee0dfe7027b5757db16eb98b690600090a250565b6000610b356106d3565b60015403905090565b6000610b48610b2b565b15905090565b610b566106ca565b15610b9b576040805162461bcd60e51b815260206004820152601060248201526f14185d5cd8589b194e881c185d5cd95960821b604482015290519081900360640190fd5b60003411610bda5760405162461bcd60e51b815260040180806020018281038252602681526020018061181c6026913960400191505060405180910390fd5b600454349061077f906001600160a01b03168261111e565b6000600260019054906101000a90046001600160a01b03166001600160a01b031663c23af8326040518163ffffffff1660e01b815260040160206040518083038186803b15801561053c57600080fd5b60006104e7610e7e565b60025460408051631c86b03760e31b815233600482015290516101009092046001600160a01b03169163e43581b891602480820192602092909190829003018186803b158015610c9b57600080fd5b505afa158015610caf573d6000803e3d6000fd5b505050506040513d6020811015610cc557600080fd5b5051610d025760405162461bcd60e51b81526004018080602001828103825260278152602001806117d46027913960400191505060405180910390fd5b610d0b81611208565b50565b604080516370a0823160e01b815230600482015290516000916001600160a01b038416916370a0823191602480820192602092909190829003018186803b158015610d5857600080fd5b505afa158015610d6c573d6000803e3d6000fd5b505050506040513d6020811015610d8257600080fd5b5051905080610dc25760405162461bcd60e51b81526004018080602001828103825260298152602001806117186029913960400191505060405180910390fd5b610e48610dcd610e6a565b6001600160a01b031663e563037e6040518163ffffffff1660e01b815260040160206040518083038186803b158015610e0557600080fd5b505afa158015610e19573d6000803e3d6000fd5b505050506040513d6020811015610e2f57600080fd5b50516001600160a01b038416908363ffffffff61124316565b6004546001600160a01b0383811691161415610e6657610e66611295565b5050565b60025461010090046001600160a01b031690565b6000600260019054906101000a90046001600160a01b03166001600160a01b031663fd1827e26040518163ffffffff1660e01b815260040160206040518083038186803b15801561053c57600080fd5b600082610edd57506000610f2a565b82820282848281610eea57fe5b0414610f275760405162461bcd60e51b81526004018080602001828103825260218152602001806117fb6021913960400191505060405180910390fd5b90505b92915050565b6000808211610f86576040805162461bcd60e51b815260206004820152601a60248201527f536166654d6174683a206469766973696f6e206279207a65726f000000000000604482015290519081900360640190fd5b818381610f8f57fe5b049392505050565b610f9f6106ca565b610fe7576040805162461bcd60e51b815260206004820152601460248201527314185d5cd8589b194e881b9bdd081c185d5cd95960621b604482015290519081900360640190fd5b6002805460ff191690557f5db9ee0a495bf2e6ff9c91a7834c1ba4fdd244a5e8aa4e537bd38aeae4b073aa61101a611037565b604080516001600160a01b039092168252519081900360200190a1565b3390565b604080516001600160a01b0380861660248301528416604482015260648082018490528251808303909101815260849091019091526020810180516001600160e01b03166323b872dd60e01b17905261109590859061140f565b50505050565b6110a36106ca565b156110e8576040805162461bcd60e51b815260206004820152601060248201526f14185d5cd8589b194e881c185d5cd95960821b604482015290519081900360640190fd5b6002805460ff191660011790557f62e78cea01bee320cd4e420270b5ea74000d11b0c9f74754ebdbfc544b05a25861101a611037565b80471015611173576040805162461bcd60e51b815260206004820152601d60248201527f416464726573733a20696e73756666696369656e742062616c616e6365000000604482015290519081900360640190fd5b6040516000906001600160a01b0384169083908381818185875af1925050503d80600081146111be576040519150601f19603f3d011682016040523d82523d6000602084013e6111c3565b606091505b50509050806112035760405162461bcd60e51b815260040180806020018281038252603a815260200180611774603a913960400191505060405180910390fd5b505050565b60018190556040805182815290517fef01a748b5b8a4f1d48b88861f6d361d7391ad2bbed27ff97d762889ca80d7379181900360200190a150565b604080516001600160a01b038416602482015260448082018490528251808303909101815260649091019091526020810180516001600160e01b031663a9059cbb60e01b17905261120390849061140f565b600254604080516355138f0d60e11b815230600482015290516101009092046001600160a01b03169163aa271e1a91602480820192602092909190829003018186803b1580156112e457600080fd5b505afa1580156112f8573d6000803e3d6000fd5b505050506040513d602081101561130e57600080fd5b5051156106c85761131d610b3e565b156106c85761132a6114c0565b611332610bf2565b6001600160a01b03166340c10f1933611349610e6a565b6001600160a01b031663c2f926d96040518163ffffffff1660e01b815260040160206040518083038186803b15801561138157600080fd5b505afa158015611395573d6000803e3d6000fd5b505050506040513d60208110156113ab57600080fd5b5051604080516001600160e01b031960e086901b1681526001600160a01b039093166004840152602483019190915251604480830192600092919082900301818387803b1580156113fb57600080fd5b505af1158015611095573d6000803e3d6000fd5b6060611464826040518060400160405280602081526020017f5361666545524332303a206c6f772d6c6576656c2063616c6c206661696c6564815250856001600160a01b03166114fa9092919063ffffffff16565b8051909150156112035780806020019051602081101561148357600080fd5b50516112035760405162461bcd60e51b815260040180806020018281038252602a815260200180611842602a913960400191505060405180910390fd5b42600081905560408051918252517fd1dbb2ce8081405078443ef34dae718285114121a39370b14ef01b9d2b0a20839181900360200190a1565b60606115098484600085611511565b949350505050565b6060824710156115525760405162461bcd60e51b81526004018080602001828103825260268152602001806117ae6026913960400191505060405180910390fd5b61155b8561166d565b6115ac576040805162461bcd60e51b815260206004820152601d60248201527f416464726573733a2063616c6c20746f206e6f6e2d636f6e7472616374000000604482015290519081900360640190fd5b60006060866001600160a01b031685876040518082805190602001908083835b602083106115eb5780518252601f1990920191602091820191016115cc565b6001836020036101000a03801982511681845116808217855250505050505090500191505060006040518083038185875af1925050503d806000811461164d576040519150601f19603f3d011682016040523d82523d6000602084013e611652565b606091505b5091509150611662828286611673565b979650505050505050565b3b151590565b606083156116825750816104d6565b8251156116925782518084602001fd5b8160405162461bcd60e51b81526004018080602001828103825283818151815260200191508051906020019080838360005b838110156116dc5781810151838201526020016116c4565b50505050905090810190601f1680156117095780820380516001836020036101000a031916815260200191505b509250505060405180910390fdfe415553444973737565723a20416d6f756e74206d757374206265206d6f7265207468616e207a65726f436f6e74726f6c6c65725265663a2043616c6c6572206973206e6f74206120677561726469616e206f7220676f7665726e6f72416464726573733a20756e61626c6520746f2073656e642076616c75652c20726563697069656e74206d61792068617665207265766572746564416464726573733a20696e73756666696369656e742062616c616e636520666f722063616c6c436f6e74726f6c6c65725265663a2043616c6c6572206973206e6f74206120676f7665726e6f72536166654d6174683a206d756c7469706c69636174696f6e206f766572666c6f77415553444973737565723a20457468206d7573742062652067726561746572207468616e20305361666545524332303a204552433230206f7065726174696f6e20646964206e6f742073756363656564a2646970667358221220e70c1dd72a6fa8f5d9d3d14f80a2288651ecbcdbffb79732cfeba06b02ee617664736f6c63430006060033",
  "immutableReferences": {},
  "source": "pragma solidity ^0.6.0;\n\nimport \"@openzeppelin/contracts/token/ERC20/IERC20.sol\";\nimport \"@openzeppelin/contracts/token/ERC20/SafeERC20.sol\";\nimport \"@openzeppelin/contracts/utils/Address.sol\";\nimport \"@openzeppelin/contracts/math/SafeMath.sol\";\nimport \"../oracle/IPriceFeed.sol\";\nimport \"../utils/Timed.sol\";\nimport \"./ControllerRef.sol\";\nimport \"./IAUSDIssuer.sol\";\n\ncontract AUSDIssuer is Timed, ControllerRef, IAUSDIssuer{\n    using SafeMath for uint256;\n    using SafeERC20 for IERC20;\n\n    bytes32 public pool = keccak256(\"ETH\");\n\n    address public override asset;\n\n    constructor(address _asset, address _controller, uint256 _duration) public\n        ControllerRef(_controller)\n        Timed(_duration) \n    {\n        asset = _asset;\n        _initTimed();\n    }\n\n    /// @notice Calculate ausd received in exchange for asset\n    /// @param amountIn amount of weth to exchange\n    function calculateAUSDOut(uint256 amountIn) public view  returns(uint256) {\n\n        uint256 assetPrice = IPriceFeed(controller().poolPriceFeeds(pool)).price();\n\n        return assetPrice.mul(amountIn).div(1e18);\n    }\n\n    /// @notice Buy ausd in exchange of Weth according to current price feed\n    /// @param amount amount of weth to exchange for ausd stable coin\n    function buyAUSD(uint256 amount) public override whenNotPaused {\n\n        IERC20(asset).safeTransferFrom(_msgSender(), address(this), amount);\n\n        IPriceFeed(controller().poolPriceFeeds(pool)).update();\n\n        uint256 ausdToMint = calculateAUSDOut(amount);       \n        ausd().mint(msg.sender, ausdToMint);\n    }\n\n\n    /// @notice Buy ausd in exchange of eth according to current price feed\n    function buyAUSDForEth() public payable whenNotPaused {\n        require(msg.value > 0, \"AUSDIssuer: Eth must be greater than 0\");\n\n        uint256 amount = msg.value;\n        Address.sendValue(payable(asset), amount);\n\n        IPriceFeed(controller().poolPriceFeeds(pool)).update();\n        \n        uint256 ausdToMint = calculateAUSDOut(amount);       \n\n        ausd().mint(msg.sender, ausdToMint);\n    }\n\n\n\n    /// @notice withdraw token to ausd balancer\n    /// @param token address of token\n    function transferToBalancer(address token) public {\n\n        uint256 balance = IERC20(token).balanceOf(address(this));\n\n        require( balance > 0, \"AUSDIssuer: Amount must be more than zero\");\n\n        IERC20(token).safeTransfer(address(controller().balancer()), balance);\n\n        if(asset == token){\n            _incentivize();\n        }\n\n    }\n\n    /// @notice if window has passed, reward caller and reset window\n    function _incentivize() internal virtual ifMinterSelf {\n        if (isTimeEnded()) {\n            _initTimed(); // reset window\n            ausd().mint(msg.sender, controller().issuerRewardAmount());\n        }\n    }\n\n    /// @notice sets the allocate incentive frequency\n    function setIncentiveFrequency(uint256 _frequency) external onlyGovernor {\n        _setDuration(_frequency);\n    }\n\n\n}",
  "sourcePath": "/Users/parashar/Documents/defi/arthafinance/contracts/controller/AUSDIssuer.sol",
  "compiler": {
    "name": "solc",
    "version": "0.6.6+commit.6c089d02.Emscripten.clang"
  },
  "schemaVersion": "3.3.4",
  "updatedAt": "2021-06-03T16:05:15.562Z",
  "devdoc": {
    "methods": {
      "buyAUSD(uint256)": {
        "params": {
          "amount": "amount of weth to exchange for ausd stable coin"
        }
      },
      "calculateAUSDOut(uint256)": {
        "params": {
          "amountIn": "amount of weth to exchange"
        }
      },
      "paused()": {
        "details": "Returns true if the contract is paused, and false otherwise."
      },
      "setController(address)": {
        "params": {
          "controller": "the new controller address"
        }
      },
      "timeSinceStart()": {
        "details": "will be less than or equal to duration",
        "returns": {
          "_0": "timestamp"
        }
      },
      "transferToBalancer(address)": {
        "params": {
          "token": "address of token"
        }
      }
    }
  },
  "userdoc": {
    "methods": {
      "artha()": {
        "notice": "address of the AGT contract referenced by Controller"
      },
      "arthaBalance()": {
        "notice": "Artha balance of contract"
      },
      "ausd()": {
        "notice": "address of the AUSD contract referenced by Controller"
      },
      "ausdBalance()": {
        "notice": "ausd balance of contract"
      },
      "buyAUSD(uint256)": {
        "notice": "Buy ausd in exchange of Weth according to current price feed"
      },
      "buyAUSDForEth()": {
        "notice": "Buy ausd in exchange of eth according to current price feed"
      },
      "calculateAUSDOut(uint256)": {
        "notice": "Calculate ausd received in exchange for asset"
      },
      "controller()": {
        "notice": "address of the Controller contract referenced"
      },
      "isTimeEnded()": {
        "notice": "return true if time period has ended"
      },
      "pause()": {
        "notice": "set pausable methods to paused"
      },
      "remainingTime()": {
        "notice": "number of seconds remaining until time is up"
      },
      "setController(address)": {
        "notice": "set new Controller reference address"
      },
      "setIncentiveFrequency(uint256)": {
        "notice": "sets the allocate incentive frequency"
      },
      "timeSinceStart()": {
        "notice": "number of seconds since contract was initialized"
      },
      "transferToBalancer(address)": {
        "notice": "withdraw token to ausd balancer"
      },
      "unpause()": {
        "notice": "set pausable methods to unpaused"
      }
    }
  }
}