{
  "contractName": "ChainlinkOraclePriceFeed",
  "abi": [
    {
      "inputs": [
        {
          "internalType": "uint256",
          "name": "_frequency",
          "type": "uint256"
        },
        {
          "internalType": "address",
          "name": "_aggregator",
          "type": "address"
        }
      ],
      "stateMutability": "nonpayable",
      "type": "constructor"
    },
    {
      "inputs": [],
      "name": "frequency",
      "outputs": [
        {
          "internalType": "uint256",
          "name": "",
          "type": "uint256"
        }
      ],
      "stateMutability": "view",
      "type": "function"
    },
    {
      "inputs": [],
      "name": "lastUpdatedPrice",
      "outputs": [
        {
          "internalType": "uint256",
          "name": "",
          "type": "uint256"
        }
      ],
      "stateMutability": "view",
      "type": "function"
    },
    {
      "inputs": [],
      "name": "lastUpdatedTimestamp",
      "outputs": [
        {
          "internalType": "uint256",
          "name": "",
          "type": "uint256"
        }
      ],
      "stateMutability": "view",
      "type": "function"
    },
    {
      "inputs": [],
      "name": "pool",
      "outputs": [
        {
          "internalType": "bytes32",
          "name": "",
          "type": "bytes32"
        }
      ],
      "stateMutability": "view",
      "type": "function"
    },
    {
      "inputs": [],
      "name": "priceWithValidity",
      "outputs": [
        {
          "internalType": "uint256",
          "name": "",
          "type": "uint256"
        },
        {
          "internalType": "bool",
          "name": "",
          "type": "bool"
        }
      ],
      "stateMutability": "view",
      "type": "function"
    },
    {
      "inputs": [],
      "name": "update",
      "outputs": [],
      "stateMutability": "nonpayable",
      "type": "function"
    },
    {
      "inputs": [],
      "name": "price",
      "outputs": [
        {
          "internalType": "uint256",
          "name": "",
          "type": "uint256"
        }
      ],
      "stateMutability": "view",
      "type": "function"
    }
  ],
  "bytecode": "0x60806040819052670de0b6b3a76400006002556208aa8960eb1b90527faaaebeba3810b1e6b70781f14b2d72c1cb89c0b2b320c43bb67ff79f562f5ff460055534801561004b57600080fd5b506040516106793803806106798339818101604052604081101561006e57600080fd5b5080516020909101516000829055600180546001600160a01b0319166001600160a01b03831617905561009f6100a6565b5050610298565b60015460408051633fabe5a360e21b815290516000926001600160a01b03169163feaf968c9160048083019260a0929190829003018186803b1580156100eb57600080fd5b505afa1580156100ff573d6000803e3d6000fd5b505050506040513d60a081101561011557600080fd5b506020908101516001546040805163313ce56760e01b815290519294506101c5936001600160a01b039092169263313ce56792600480840193919291829003018186803b15801561016557600080fd5b505afa158015610179573d6000803e3d6000fd5b505050506040513d602081101561018f57600080fd5b505160025460ff909116600a0a906101b39084906101cf602090811b61029117901c565b61023160201b6102f31790919060201c565b6004555042600355565b6000826101de5750600061022b565b828202828482816101eb57fe5b04146102285760405162461bcd60e51b81526004018080602001828103825260218152602001806106586021913960400191505060405180910390fd5b90505b92915050565b6000808211610287576040805162461bcd60e51b815260206004820152601a60248201527f536166654d6174683a206469766973696f6e206279207a65726f000000000000604482015290519081900360640190fd5b81838161029057fe5b049392505050565b6103b1806102a76000396000f3fe608060405234801561001057600080fd5b506004361061007d5760003560e01c8063a2e620451161005b578063a2e62045146100c5578063ead50da3146100cf578063f3bd7103146100d7578063fbaf894c146100df5761007d565b806316f0115b146100825780636bdfeea71461009c578063a035b1fe146100bd575b600080fd5b61008a6100e7565b60408051918252519081900360200190f35b6100a46100ed565b6040805192835290151560208301528051918290030190f35b61008a6100fe565b6100cd610161565b005b61008a61027f565b61008a610285565b61008a61028b565b60055481565b600454600054600354420311159091565b600080546003544203111561015a576040805162461bcd60e51b815260206004820181905260248201527f436861696e6c696e6b20507269636520466565643a205374616c652044617461604482015290519081900360640190fd5b5060045490565b60015460408051633fabe5a360e21b815290516000926001600160a01b03169163feaf968c9160048083019260a0929190829003018186803b1580156101a657600080fd5b505afa1580156101ba573d6000803e3d6000fd5b505050506040513d60a08110156101d057600080fd5b506020908101516001546040805163313ce56760e01b81529051929450610275936001600160a01b039092169263313ce56792600480840193919291829003018186803b15801561022057600080fd5b505afa158015610234573d6000803e3d6000fd5b505050506040513d602081101561024a57600080fd5b505160025460ff909116600a0a9061026990849063ffffffff61029116565b9063ffffffff6102f316565b6004555042600355565b60005481565b60045481565b60035481565b6000826102a0575060006102ed565b828202828482816102ad57fe5b04146102ea5760405162461bcd60e51b815260040180806020018281038252602181526020018061035b6021913960400191505060405180910390fd5b90505b92915050565b6000808211610349576040805162461bcd60e51b815260206004820152601a60248201527f536166654d6174683a206469766973696f6e206279207a65726f000000000000604482015290519081900360640190fd5b81838161035257fe5b04939250505056fe536166654d6174683a206d756c7469706c69636174696f6e206f766572666c6f77a26469706673582212204a014862550c876349490a1949081a28d96e37491f9291ace5f4fc669682fb0664736f6c63430006060033536166654d6174683a206d756c7469706c69636174696f6e206f766572666c6f77",
  "immutableReferences": {},
  "source": "pragma solidity ^0.6.0;\n\nimport \"@chainlink/contracts/src/v0.6/interfaces/AggregatorV3Interface.sol\";\nimport \"@openzeppelin/contracts/math/SafeMath.sol\";\nimport \"./IPriceFeed.sol\";\n\ncontract ChainlinkOraclePriceFeed is IPriceFeed{\n    using SafeMath for uint256;\n    uint256 public frequency;\n\n    AggregatorV3Interface internal priceFeed;\n\n    uint256 internal WAD = 10**18;\n\n    uint256 public lastUpdatedTimestamp;\n    uint256 public lastUpdatedPrice;\n    bytes32 public pool = keccak256(\"ETH\");\n\n    constructor(uint256 _frequency, address _aggregator) public {\n        frequency = _frequency;\n        priceFeed = AggregatorV3Interface(_aggregator);\n        update();\n    }\n\n\n    function priceWithValidity() public view override  returns (uint256, bool){\n        return (lastUpdatedPrice, block.timestamp - lastUpdatedTimestamp <= frequency);\n    }\n\n    function update() public override {\n        (\n            , \n            int price,\n            ,\n            ,\n            \n        ) = priceFeed.latestRoundData();\n        lastUpdatedPrice = uint256(price).mul(WAD).div(10 ** uint256(priceFeed.decimals()));\n        lastUpdatedTimestamp = block.timestamp;\n    }\n\n    function price() public view  override returns (uint256) {\n        require(block.timestamp - lastUpdatedTimestamp <= frequency, \"Chainlink Price Feed: Stale Data\");\n        return lastUpdatedPrice;\n    }\n\n\n}",
  "sourcePath": "/Users/parashar/Documents/defi/arthafinance/contracts/oracle/ChainlinkPriceFeed.sol",
  "compiler": {
    "name": "solc",
    "version": "0.6.6+commit.6c089d02.Emscripten.clang"
  },
  "schemaVersion": "3.3.4",
  "updatedAt": "2021-06-03T16:05:15.716Z",
  "devdoc": {
    "methods": {}
  },
  "userdoc": {
    "methods": {}
  }
}