{
  "contractName": "Controller",
  "abi": [
    {
      "anonymous": false,
      "inputs": [
        {
          "indexed": true,
          "internalType": "address",
          "name": "_ausd",
          "type": "address"
        }
      ],
      "name": "AUSDUpdate",
      "type": "event"
    },
    {
      "anonymous": false,
      "inputs": [
        {
          "indexed": true,
          "internalType": "address",
          "name": "to",
          "type": "address"
        },
        {
          "indexed": false,
          "internalType": "uint256",
          "name": "amount",
          "type": "uint256"
        }
      ],
      "name": "ArthaAllocation",
      "type": "event"
    },
    {
      "anonymous": false,
      "inputs": [
        {
          "indexed": true,
          "internalType": "address",
          "name": "_artha",
          "type": "address"
        }
      ],
      "name": "ArthaUpdate",
      "type": "event"
    },
    {
      "anonymous": false,
      "inputs": [
        {
          "indexed": true,
          "internalType": "bytes32",
          "name": "role",
          "type": "bytes32"
        },
        {
          "indexed": true,
          "internalType": "bytes32",
          "name": "previousAdminRole",
          "type": "bytes32"
        },
        {
          "indexed": true,
          "internalType": "bytes32",
          "name": "newAdminRole",
          "type": "bytes32"
        }
      ],
      "name": "RoleAdminChanged",
      "type": "event"
    },
    {
      "anonymous": false,
      "inputs": [
        {
          "indexed": true,
          "internalType": "bytes32",
          "name": "role",
          "type": "bytes32"
        },
        {
          "indexed": true,
          "internalType": "address",
          "name": "account",
          "type": "address"
        },
        {
          "indexed": true,
          "internalType": "address",
          "name": "sender",
          "type": "address"
        }
      ],
      "name": "RoleGranted",
      "type": "event"
    },
    {
      "anonymous": false,
      "inputs": [
        {
          "indexed": true,
          "internalType": "bytes32",
          "name": "role",
          "type": "bytes32"
        },
        {
          "indexed": true,
          "internalType": "address",
          "name": "account",
          "type": "address"
        },
        {
          "indexed": true,
          "internalType": "address",
          "name": "sender",
          "type": "address"
        }
      ],
      "name": "RoleRevoked",
      "type": "event"
    },
    {
      "inputs": [],
      "name": "BALANCER_ROLE",
      "outputs": [
        {
          "internalType": "bytes32",
          "name": "",
          "type": "bytes32"
        }
      ],
      "stateMutability": "view",
      "type": "function",
      "constant": true
    },
    {
      "inputs": [],
      "name": "BASIS_POINT",
      "outputs": [
        {
          "internalType": "uint256",
          "name": "",
          "type": "uint256"
        }
      ],
      "stateMutability": "view",
      "type": "function",
      "constant": true
    },
    {
      "inputs": [],
      "name": "DEFAULT_ADMIN_ROLE",
      "outputs": [
        {
          "internalType": "bytes32",
          "name": "",
          "type": "bytes32"
        }
      ],
      "stateMutability": "view",
      "type": "function",
      "constant": true
    },
    {
      "inputs": [],
      "name": "GOVERN_ROLE",
      "outputs": [
        {
          "internalType": "bytes32",
          "name": "",
          "type": "bytes32"
        }
      ],
      "stateMutability": "view",
      "type": "function",
      "constant": true
    },
    {
      "inputs": [],
      "name": "GUARDIAN_ROLE",
      "outputs": [
        {
          "internalType": "bytes32",
          "name": "",
          "type": "bytes32"
        }
      ],
      "stateMutability": "view",
      "type": "function",
      "constant": true
    },
    {
      "inputs": [],
      "name": "LIMIT",
      "outputs": [
        {
          "internalType": "uint256",
          "name": "",
          "type": "uint256"
        }
      ],
      "stateMutability": "view",
      "type": "function",
      "constant": true
    },
    {
      "inputs": [],
      "name": "MINTER_ROLE",
      "outputs": [
        {
          "internalType": "bytes32",
          "name": "",
          "type": "bytes32"
        }
      ],
      "stateMutability": "view",
      "type": "function",
      "constant": true
    },
    {
      "inputs": [],
      "name": "POOL_WRAPPER_ROLE",
      "outputs": [
        {
          "internalType": "bytes32",
          "name": "",
          "type": "bytes32"
        }
      ],
      "stateMutability": "view",
      "type": "function",
      "constant": true
    },
    {
      "inputs": [],
      "name": "artha",
      "outputs": [
        {
          "internalType": "contract IERC20",
          "name": "",
          "type": "address"
        }
      ],
      "stateMutability": "view",
      "type": "function",
      "constant": true
    },
    {
      "inputs": [],
      "name": "ausd",
      "outputs": [
        {
          "internalType": "contract IAUSD",
          "name": "",
          "type": "address"
        }
      ],
      "stateMutability": "view",
      "type": "function",
      "constant": true
    },
    {
      "inputs": [],
      "name": "balancer",
      "outputs": [
        {
          "internalType": "address",
          "name": "",
          "type": "address"
        }
      ],
      "stateMutability": "view",
      "type": "function",
      "constant": true
    },
    {
      "inputs": [],
      "name": "balancerRewardAmount",
      "outputs": [
        {
          "internalType": "uint256",
          "name": "",
          "type": "uint256"
        }
      ],
      "stateMutability": "view",
      "type": "function",
      "constant": true
    },
    {
      "inputs": [
        {
          "internalType": "bytes32",
          "name": "role",
          "type": "bytes32"
        },
        {
          "internalType": "bytes32",
          "name": "adminRole",
          "type": "bytes32"
        }
      ],
      "name": "createRole",
      "outputs": [],
      "stateMutability": "nonpayable",
      "type": "function"
    },
    {
      "inputs": [
        {
          "internalType": "bytes32",
          "name": "role",
          "type": "bytes32"
        }
      ],
      "name": "getRoleAdmin",
      "outputs": [
        {
          "internalType": "bytes32",
          "name": "",
          "type": "bytes32"
        }
      ],
      "stateMutability": "view",
      "type": "function",
      "constant": true
    },
    {
      "inputs": [
        {
          "internalType": "bytes32",
          "name": "role",
          "type": "bytes32"
        },
        {
          "internalType": "uint256",
          "name": "index",
          "type": "uint256"
        }
      ],
      "name": "getRoleMember",
      "outputs": [
        {
          "internalType": "address",
          "name": "",
          "type": "address"
        }
      ],
      "stateMutability": "view",
      "type": "function",
      "constant": true
    },
    {
      "inputs": [
        {
          "internalType": "bytes32",
          "name": "role",
          "type": "bytes32"
        }
      ],
      "name": "getRoleMemberCount",
      "outputs": [
        {
          "internalType": "uint256",
          "name": "",
          "type": "uint256"
        }
      ],
      "stateMutability": "view",
      "type": "function",
      "constant": true
    },
    {
      "inputs": [
        {
          "internalType": "address",
          "name": "balancer",
          "type": "address"
        }
      ],
      "name": "grantBalancer",
      "outputs": [],
      "stateMutability": "nonpayable",
      "type": "function"
    },
    {
      "inputs": [
        {
          "internalType": "address",
          "name": "governor",
          "type": "address"
        }
      ],
      "name": "grantGovernor",
      "outputs": [],
      "stateMutability": "nonpayable",
      "type": "function"
    },
    {
      "inputs": [
        {
          "internalType": "address",
          "name": "guardian",
          "type": "address"
        }
      ],
      "name": "grantGuardian",
      "outputs": [],
      "stateMutability": "nonpayable",
      "type": "function"
    },
    {
      "inputs": [
        {
          "internalType": "address",
          "name": "minter",
          "type": "address"
        }
      ],
      "name": "grantMinter",
      "outputs": [],
      "stateMutability": "nonpayable",
      "type": "function"
    },
    {
      "inputs": [
        {
          "internalType": "address",
          "name": "poolWrapper",
          "type": "address"
        }
      ],
      "name": "grantPoolWrapper",
      "outputs": [],
      "stateMutability": "nonpayable",
      "type": "function"
    },
    {
      "inputs": [
        {
          "internalType": "bytes32",
          "name": "role",
          "type": "bytes32"
        },
        {
          "internalType": "address",
          "name": "account",
          "type": "address"
        }
      ],
      "name": "grantRole",
      "outputs": [],
      "stateMutability": "nonpayable",
      "type": "function"
    },
    {
      "inputs": [
        {
          "internalType": "bytes32",
          "name": "role",
          "type": "bytes32"
        },
        {
          "internalType": "address",
          "name": "account",
          "type": "address"
        }
      ],
      "name": "hasRole",
      "outputs": [
        {
          "internalType": "bool",
          "name": "",
          "type": "bool"
        }
      ],
      "stateMutability": "view",
      "type": "function",
      "constant": true
    },
    {
      "inputs": [
        {
          "internalType": "address",
          "name": "_address",
          "type": "address"
        }
      ],
      "name": "isBalancer",
      "outputs": [
        {
          "internalType": "bool",
          "name": "",
          "type": "bool"
        }
      ],
      "stateMutability": "view",
      "type": "function",
      "constant": true
    },
    {
      "inputs": [
        {
          "internalType": "address",
          "name": "_address",
          "type": "address"
        }
      ],
      "name": "isGovernor",
      "outputs": [
        {
          "internalType": "bool",
          "name": "",
          "type": "bool"
        }
      ],
      "stateMutability": "view",
      "type": "function",
      "constant": true
    },
    {
      "inputs": [
        {
          "internalType": "address",
          "name": "_address",
          "type": "address"
        }
      ],
      "name": "isGuardian",
      "outputs": [
        {
          "internalType": "bool",
          "name": "",
          "type": "bool"
        }
      ],
      "stateMutability": "view",
      "type": "function",
      "constant": true
    },
    {
      "inputs": [
        {
          "internalType": "address",
          "name": "_address",
          "type": "address"
        }
      ],
      "name": "isMinter",
      "outputs": [
        {
          "internalType": "bool",
          "name": "",
          "type": "bool"
        }
      ],
      "stateMutability": "view",
      "type": "function",
      "constant": true
    },
    {
      "inputs": [
        {
          "internalType": "address",
          "name": "_address",
          "type": "address"
        }
      ],
      "name": "isPoolWrapper",
      "outputs": [
        {
          "internalType": "bool",
          "name": "",
          "type": "bool"
        }
      ],
      "stateMutability": "view",
      "type": "function",
      "constant": true
    },
    {
      "inputs": [],
      "name": "issuerRewardAmount",
      "outputs": [
        {
          "internalType": "uint256",
          "name": "",
          "type": "uint256"
        }
      ],
      "stateMutability": "view",
      "type": "function",
      "constant": true
    },
    {
      "inputs": [
        {
          "internalType": "bytes32",
          "name": "",
          "type": "bytes32"
        }
      ],
      "name": "poolIssuers",
      "outputs": [
        {
          "internalType": "address",
          "name": "",
          "type": "address"
        }
      ],
      "stateMutability": "view",
      "type": "function",
      "constant": true
    },
    {
      "inputs": [
        {
          "internalType": "bytes32",
          "name": "",
          "type": "bytes32"
        }
      ],
      "name": "poolPriceFeeds",
      "outputs": [
        {
          "internalType": "address",
          "name": "",
          "type": "address"
        }
      ],
      "stateMutability": "view",
      "type": "function",
      "constant": true
    },
    {
      "inputs": [
        {
          "internalType": "bytes32",
          "name": "role",
          "type": "bytes32"
        },
        {
          "internalType": "address",
          "name": "account",
          "type": "address"
        }
      ],
      "name": "renounceRole",
      "outputs": [],
      "stateMutability": "nonpayable",
      "type": "function"
    },
    {
      "inputs": [
        {
          "internalType": "address",
          "name": "balancer",
          "type": "address"
        }
      ],
      "name": "revokeBalancer",
      "outputs": [],
      "stateMutability": "nonpayable",
      "type": "function"
    },
    {
      "inputs": [
        {
          "internalType": "address",
          "name": "governor",
          "type": "address"
        }
      ],
      "name": "revokeGovernor",
      "outputs": [],
      "stateMutability": "nonpayable",
      "type": "function"
    },
    {
      "inputs": [
        {
          "internalType": "address",
          "name": "guardian",
          "type": "address"
        }
      ],
      "name": "revokeGuardian",
      "outputs": [],
      "stateMutability": "nonpayable",
      "type": "function"
    },
    {
      "inputs": [
        {
          "internalType": "address",
          "name": "minter",
          "type": "address"
        }
      ],
      "name": "revokeMinter",
      "outputs": [],
      "stateMutability": "nonpayable",
      "type": "function"
    },
    {
      "inputs": [
        {
          "internalType": "bytes32",
          "name": "role",
          "type": "bytes32"
        },
        {
          "internalType": "address",
          "name": "account",
          "type": "address"
        }
      ],
      "name": "revokeOverride",
      "outputs": [],
      "stateMutability": "nonpayable",
      "type": "function"
    },
    {
      "inputs": [
        {
          "internalType": "address",
          "name": "poolWrapper",
          "type": "address"
        }
      ],
      "name": "revokePoolWrapper",
      "outputs": [],
      "stateMutability": "nonpayable",
      "type": "function"
    },
    {
      "inputs": [
        {
          "internalType": "bytes32",
          "name": "role",
          "type": "bytes32"
        },
        {
          "internalType": "address",
          "name": "account",
          "type": "address"
        }
      ],
      "name": "revokeRole",
      "outputs": [],
      "stateMutability": "nonpayable",
      "type": "function"
    },
    {
      "inputs": [],
      "name": "init",
      "outputs": [],
      "stateMutability": "nonpayable",
      "type": "function"
    },
    {
      "inputs": [
        {
          "internalType": "address",
          "name": "token",
          "type": "address"
        }
      ],
      "name": "setAUSD",
      "outputs": [],
      "stateMutability": "nonpayable",
      "type": "function"
    },
    {
      "inputs": [
        {
          "internalType": "address",
          "name": "token",
          "type": "address"
        }
      ],
      "name": "setArtha",
      "outputs": [],
      "stateMutability": "nonpayable",
      "type": "function"
    },
    {
      "inputs": [
        {
          "internalType": "address",
          "name": "_balancer",
          "type": "address"
        }
      ],
      "name": "setBalancer",
      "outputs": [],
      "stateMutability": "nonpayable",
      "type": "function"
    },
    {
      "inputs": [],
      "name": "poolWrappersLength",
      "outputs": [
        {
          "internalType": "uint256",
          "name": "",
          "type": "uint256"
        }
      ],
      "stateMutability": "view",
      "type": "function",
      "constant": true
    },
    {
      "inputs": [
        {
          "internalType": "uint256",
          "name": "i",
          "type": "uint256"
        }
      ],
      "name": "poolWrapperAt",
      "outputs": [
        {
          "internalType": "address",
          "name": "",
          "type": "address"
        }
      ],
      "stateMutability": "view",
      "type": "function",
      "constant": true
    },
    {
      "inputs": [
        {
          "internalType": "uint256",
          "name": "amount",
          "type": "uint256"
        }
      ],
      "name": "setLimit",
      "outputs": [],
      "stateMutability": "nonpayable",
      "type": "function"
    },
    {
      "inputs": [
        {
          "internalType": "address",
          "name": "poolWrapper",
          "type": "address"
        }
      ],
      "name": "addPoolWrapper",
      "outputs": [],
      "stateMutability": "nonpayable",
      "type": "function"
    },
    {
      "inputs": [
        {
          "internalType": "address",
          "name": "poolWrapper",
          "type": "address"
        }
      ],
      "name": "removePoolWrapper",
      "outputs": [],
      "stateMutability": "nonpayable",
      "type": "function"
    },
    {
      "inputs": [
        {
          "internalType": "bytes32",
          "name": "pool",
          "type": "bytes32"
        },
        {
          "internalType": "address",
          "name": "feed",
          "type": "address"
        }
      ],
      "name": "setPoolPriceFeed",
      "outputs": [],
      "stateMutability": "nonpayable",
      "type": "function"
    },
    {
      "inputs": [
        {
          "internalType": "bytes32",
          "name": "pool",
          "type": "bytes32"
        },
        {
          "internalType": "address",
          "name": "issuer",
          "type": "address"
        }
      ],
      "name": "setPoolIssuer",
      "outputs": [],
      "stateMutability": "nonpayable",
      "type": "function"
    },
    {
      "inputs": [
        {
          "internalType": "uint256",
          "name": "amount",
          "type": "uint256"
        }
      ],
      "name": "setBalancerReward",
      "outputs": [],
      "stateMutability": "nonpayable",
      "type": "function"
    },
    {
      "inputs": [
        {
          "internalType": "uint256",
          "name": "amount",
          "type": "uint256"
        }
      ],
      "name": "setIssuerReward",
      "outputs": [],
      "stateMutability": "nonpayable",
      "type": "function"
    },
    {
      "inputs": [
        {
          "internalType": "address",
          "name": "asset",
          "type": "address"
        },
        {
          "internalType": "address",
          "name": "dst",
          "type": "address"
        },
        {
          "internalType": "uint256",
          "name": "amount",
          "type": "uint256"
        }
      ],
      "name": "transferAsset",
      "outputs": [],
      "stateMutability": "nonpayable",
      "type": "function"
    },
    {
      "inputs": [
        {
          "internalType": "address",
          "name": "to",
          "type": "address"
        },
        {
          "internalType": "uint256",
          "name": "amount",
          "type": "uint256"
        }
      ],
      "name": "allocateArtha",
      "outputs": [],
      "stateMutability": "nonpayable",
      "type": "function"
    }
  ],
  "bytecode": "0x6080604052681b1ae4d6e2ef5000006006819055600755612710600a556032600b5562000035306001600160e01b03620000c316565b620000756040516200004790620002e3565b60405180910390206040516200005d90620002cc565b6040519081900390206001600160e01b03620000f116565b620000876040516200004790620002cc565b62000099604051620000479062000296565b620000ab60405162000047906200027d565b620000bd6040516200004790620002af565b620002fa565b620000ee604051620000d590620002cc565b604051908190039020826001600160e01b036200014316565b50565b600082815260016020526040808220600201549051839285917fbd79b86ffe0ab8e8776151514217cd7cacd52c909f66475c3af44e129f0b00ff9190a460009182526001602052604090912060020155565b6200015882826001600160e01b036200015c16565b5050565b6000828152600160209081526040909120620001839183906200132e620001e0821b17901c565b1562000158576200019c6001600160e01b036200020916565b6001600160a01b0316816001600160a01b0316837f2f8788117e7eff1d82e926ec794901d17c78024a50270940304540a733656f0d60405160405180910390a45050565b600062000200836001600160a01b0384166001600160e01b036200020d16565b90505b92915050565b3390565b60006200022483836001600160e01b036200026516565b6200025c5750815460018181018455600084815260208082209093018490558454848252828601909352604090209190915562000203565b50600062000203565b60009081526001919091016020526040902054151590565b6c42414c414e4345525f524f4c4560981b8152600d0190565b6c475541524449414e5f524f4c4560981b8152600d0190565b70504f4f4c5f575241505045525f524f4c4560781b815260110190565b6a474f5645524e5f524f4c4560a81b8152600b0190565b6a4d494e5445525f524f4c4560a81b8152600b0190565b615c58806200030a6000396000f3fe60806040523480156200001157600080fd5b5060043610620003945760003560e01c806391d1485411620001e3578063cdb53205116200011d578063e43581b811620000b1578063e7296dd91162000087578063e7296dd91462000799578063edc9772f14620007b0578063f16747ab14620007c7578063fd1827e214620007de5762000394565b8063e43581b81462000761578063e563037e1462000778578063e6eb982f14620007825762000394565b8063d539139311620000f3578063d5391393146200071f578063d547741f1462000729578063d648ce241462000740578063e1c7392a14620007575762000394565b8063cdb5320514620006e7578063cfbd488514620006fe578063cffdeacc14620007155762000394565b8063aa271e1a1162000195578063af8214ef116200016b578063af8214ef14620006b2578063c23af83214620006bc578063c2f926d914620006c6578063ca15c87314620006d05762000394565b8063aa271e1a146200067a578063ada5f6421462000691578063af648c3d146200069b5762000394565b806391d1485414620005fd57806394b1d2c01462000614578063992651e8146200062b578063a217fddf1462000642578063a306b59b146200064c578063a58f180e14620006635762000394565b806336568abe11620002d357806369467e2f116200026757806370d80f23116200023d57806370d80f2314620005ae5780637e788c9d14620005c55780638947857c14620005dc5780639010d07c14620005e65762000394565b806369467e2f146200055a5780636bba606814620005715780637061e80f14620005975762000394565b806340afc15c11620002a957806340afc15c146200050b578063439e2e4514620005155780634c9f9384146200052c57806368c32b9c14620005435762000394565b806336568abe14620004d357806338b7f44614620004ea578063395c62e814620004f45762000394565b8063248a9ca3116200034b57806327ea6f2b116200032157806327ea6f2b14620004845780632f2ff15d146200049b57806330d3c53414620004b257806335f837a514620004bc5762000394565b8063248a9ca3146200043d57806324ea54f41462000463578063261707fa146200046d5762000394565b8063080bf57c14620003995780630a351afd14620003b25780630c68ba2114620003c957806319c7f53614620003f85780631d820534146200040f57806324099a141462000426575b600080fd5b620003b0620003aa36600462001a30565b620007e8565b005b620003b0620003c336600462001a30565b620008b2565b620003e0620003da36600462001965565b62000953565b604051620003ef919062001b66565b60405180910390f35b620003e06200040936600462001965565b6200097c565b620003b06200042036600462001965565b62000990565b620003b06200043736600462001965565b620009dc565b620004546200044e36600462001a17565b62000a27565b604051620003ef919062001b71565b6200045462000a3c565b620003b06200047e36600462001965565b62000a55565b620003b06200049536600462001a17565b62000aa0565b620003b0620004ac36600462001a30565b62000acf565b6200045462000b1b565b620003b0620004cd36600462001a17565b62000b29565b620003b0620004e436600462001a30565b62000b58565b6200045462000ba1565b620003b06200050536600462001965565b62000baf565b6200045462000beb565b620003b06200052636600462001983565b62000bf1565b620003b06200053d36600462001a62565b62000c3c565b620003b06200055436600462001965565b62000c72565b620003b06200056b36600462001965565b62000cfb565b620005886200058236600462001a17565b62000d37565b604051620003ef919062001b1f565b62000588620005a836600462001a17565b62000d4c565b620003b0620005bf36600462001a17565b62000d67565b620003b0620005d636600462001a30565b62000d96565b6200045462000dee565b62000588620005f736600462001a62565b62000e01565b620003e06200060e36600462001a30565b62000e28565b620003b06200062536600462001965565b62000e48565b620003b06200063c36600462001965565b62000e84565b6200045462000ec0565b620003b06200065d36600462001965565b62000ec5565b620003b06200067436600462001965565b62000f0e565b620003e06200068b36600462001965565b62000f4a565b6200045462000f5e565b620003b0620006ac36600462001965565b62000f64565b6200045462000fa0565b6200058862000fa6565b6200045462000fb5565b62000454620006e136600462001a17565b62000fbb565b620003e0620006f836600462001965565b62000fd4565b620003b06200070f36600462001965565b62000fe8565b6200045462001024565b6200045462001032565b620003b06200073a36600462001a30565b62001040565b620003b062000751366004620019c8565b62001080565b620003b062001111565b620003e06200077236600462001965565b6200123b565b620005886200124f565b620003b06200079336600462001965565b6200125e565b62000588620007aa36600462001a17565b6200129a565b620003b0620007c136600462001965565b620012b5565b620003b0620007d836600462001965565b620012ea565b620005886200131f565b620007f33362000953565b6200081b5760405162461bcd60e51b8152600401620008129062001d80565b60405180910390fd5b604051620008299062001af1565b6040518091039020821415620008535760405162461bcd60e51b8152600401620008129062001dfc565b60405163d547741f60e01b8152309063d547741f906200087a908590859060040162001b7a565b600060405180830381600087803b1580156200089557600080fd5b505af1158015620008aa573d6000803e3d6000fd5b505050505050565b620008bd336200123b565b620008dc5760405162461bcd60e51b8152600401620008129062001c08565b6000828152600960205260409020546001600160a01b0316156200091d576000828152600960205260409020546200091d906001600160a01b031662000fe8565b600082815260096020526040902080546001600160a01b0319166001600160a01b0383161790556200094f8162000a55565b5050565b600062000976604051620009679062001abb565b60405180910390208362000e28565b92915050565b600062000976604051620009679062001ad4565b6200099b336200123b565b620009ba5760405162461bcd60e51b8152600401620008129062001c08565b620009cd60048263ffffffff6200132e16565b50620009d98162000f0e565b50565b620009e7336200123b565b62000a065760405162461bcd60e51b8152600401620008129062001c08565b620009d960405162000a189062001ad4565b60405180910390208262001040565b60009081526001602052604090206002015490565b60405162000a4a9062001abb565b604051809103902081565b62000a60336200123b565b62000a7f5760405162461bcd60e51b8152600401620008129062001c08565b620009d960405162000a919062001b08565b60405180910390208262000acf565b62000aab336200123b565b62000aca5760405162461bcd60e51b8152600401620008129062001c08565b600b55565b60008281526001602052604090206002015462000af0906200060e62001345565b62000b0f5760405162461bcd60e51b8152600401620008129062001c4d565b6200094f828262001349565b60405162000a4a9062001aa2565b62000b34336200123b565b62000b535760405162461bcd60e51b8152600401620008129062001c08565b600655565b62000b6262001345565b6001600160a01b0316816001600160a01b03161462000b955760405162461bcd60e51b8152600401620008129062001e92565b6200094f8282620013bd565b60405162000a4a9062001af1565b62000bba336200123b565b62000bd95760405162461bcd60e51b8152600401620008129062001c08565b620009d960405162000a919062001af1565b60065481565b62000bfc336200123b565b62000c1b5760405162461bcd60e51b8152600401620008129062001c08565b62000c376001600160a01b038416838363ffffffff6200143116565b505050565b62000c47336200123b565b62000c665760405162461bcd60e51b8152600401620008129062001c08565b6200094f82826200148b565b62000c7d336200123b565b62000c9c5760405162461bcd60e51b8152600401620008129062001c08565b600c5462000cb3906001600160a01b031662000e84565b600c5462000cca906001600160a01b031662000fe8565b600c80546001600160a01b0319166001600160a01b03831617905562000cf08162000cfb565b620009d98162000a55565b62000d06336200123b565b62000d255760405162461bcd60e51b8152600401620008129062001c08565b620009d960405162000a919062001aa2565b60006200097660048363ffffffff620014dd16565b6008602052600090815260409020546001600160a01b031681565b62000d72336200123b565b62000d915760405162461bcd60e51b8152600401620008129062001c08565b600755565b62000da1336200123b565b62000dc05760405162461bcd60e51b8152600401620008129062001c08565b60009182526008602052604090912080546001600160a01b0319166001600160a01b03909216919091179055565b600062000dfc6004620014eb565b905090565b600082815260016020526040812062000e21908363ffffffff620014dd16565b9392505050565b600082815260016020526040812062000e21908363ffffffff620014f816565b62000e53336200123b565b62000e725760405162461bcd60e51b8152600401620008129062001c08565b620009d960405162000a919062001abb565b62000e8f336200123b565b62000eae5760405162461bcd60e51b8152600401620008129062001c08565b620009d960405162000a189062001aa2565b600081565b62000ed0336200123b565b62000eef5760405162461bcd60e51b8152600401620008129062001c08565b62000f0260048263ffffffff6200150f16565b50620009d981620009dc565b62000f19336200123b565b62000f385760405162461bcd60e51b8152600401620008129062001c08565b620009d960405162000a919062001ad4565b600062000976604051620009679062001b08565b600a5481565b62000f6f336200123b565b62000f8e5760405162461bcd60e51b8152600401620008129062001c08565b620009d960405162000a189062001abb565b600b5481565b6002546001600160a01b031681565b60075481565b60008181526001602052604081206200097690620014eb565b600062000976604051620009679062001aa2565b62000ff3336200123b565b620010125760405162461bcd60e51b8152600401620008129062001c08565b620009d960405162000a189062001b08565b60405162000a4a9062001ad4565b60405162000a4a9062001b08565b60008281526001602052604090206002015462001061906200060e62001345565b62000b955760405162461bcd60e51b8152600401620008129062001ce2565b6200108b336200123b565b620010aa5760405162461bcd60e51b8152600401620008129062001c08565b6003546001600160a01b0316620010c981848463ffffffff6200143116565b826001600160a01b03167f69a8761e6de788b43ab9dad9cc0723f5b2fde7de31e08e223a1d32a4f5d91dd38360405162001104919062001b71565b60405180910390a2505050565b600054610100900460ff16806200112d57506200112d62001526565b806200113c575060005460ff16155b6200115b5760405162461bcd60e51b8152600401620008129062001d32565b600054610100900460ff1615801562001187576000805460ff1961ff0019909116610100171660011790555b620011923362001539565b600030604051620011a39062001931565b620011af919062001b1f565b604051809103906000f080158015620011cc573d6000803e3d6000fd5b509050620011da816200155a565b60003033604051620011ec906200193f565b620011f992919062001b33565b604051809103906000f08015801562001216573d6000803e3d6000fd5b5090506200122481620015a4565b50508015620009d9576000805461ff001916905550565b600062000976604051620009679062001af1565b600c546001600160a01b031681565b62001269336200123b565b620012885760405162461bcd60e51b8152600401620008129062001c08565b620009d960405162000a189062001af1565b6009602052600090815260409020546001600160a01b031681565b620012c0336200123b565b620012df5760405162461bcd60e51b8152600401620008129062001c08565b620009d9816200155a565b620012f5336200123b565b620013145760405162461bcd60e51b8152600401620008129062001c08565b620009d981620015a4565b6003546001600160a01b031681565b600062000e21836001600160a01b038416620015ee565b3390565b600082815260016020526040902062001369908263ffffffff6200132e16565b156200094f576200137962001345565b6001600160a01b0316816001600160a01b0316837f2f8788117e7eff1d82e926ec794901d17c78024a50270940304540a733656f0d60405160405180910390a45050565b6000828152600160205260409020620013dd908263ffffffff6200150f16565b156200094f57620013ed62001345565b6001600160a01b0316816001600160a01b0316837ff6391f5c32d9c69d2a47ea670b442974b53935d1edc7fd64eb21e047a839171b60405160405180910390a45050565b62000c378363a9059cbb60e01b84846040516024016200145392919062001b4d565b60408051601f198184030181529190526020810180516001600160e01b03166001600160e01b0319909316929092179091526200163d565b600082815260016020526040808220600201549051839285917fbd79b86ffe0ab8e8776151514217cd7cacd52c909f66475c3af44e129f0b00ff9190a460009182526001602052604090912060020155565b600062000e218383620016d4565b600062000976826200171d565b600062000e21836001600160a01b03841662001721565b600062000e21836001600160a01b03841662001739565b6000620015333062001805565b15905090565b620009d96040516200154b9062001af1565b60405180910390208262000b0f565b600280546001600160a01b0319166001600160a01b0383169081179091556040517febdc447bd7397f9dddcfdcde429bac040ff7e955afdddb22d5960cc1186f83fc90600090a250565b600380546001600160a01b0319166001600160a01b0383169081179091556040517f2a7082ebef44abc420255fe057cd9915cd2d5776d6f0ea1689ac9dc4af0e9a5c90600090a250565b6000620015fc838362001721565b620016345750815460018181018455600084815260208082209093018490558454848252828601909352604090209190915562000976565b50600062000976565b606062001694826040518060400160405280602081526020017f5361666545524332303a206c6f772d6c6576656c2063616c6c206661696c6564815250856001600160a01b03166200180b9092919063ffffffff16565b80519091501562000c375780806020019051810190620016b59190620019f5565b62000c375760405162461bcd60e51b8152600401620008129062001e48565b81546000908210620016fa5760405162461bcd60e51b8152600401620008129062001bc6565b8260000182815481106200170a57fe5b9060005260206000200154905092915050565b5490565b60009081526001919091016020526040902054151590565b60008181526001830160205260408120548015620017fa57835460001980830191908101906000908790839081106200176e57fe5b90600052602060002001549050808760000184815481106200178c57fe5b600091825260208083209091019290925582815260018981019092526040902090840190558654879080620017bd57fe5b6001900381819060005260206000200160009055905586600101600087815260200190815260200160002060009055600194505050505062000976565b600091505062000976565b3b151590565b60606200181c848460008562001824565b949350505050565b606082471015620018495760405162461bcd60e51b8152600401620008129062001c9c565b620018548562001805565b620018735760405162461bcd60e51b8152600401620008129062001dc5565b60006060866001600160a01b0316858760405162001892919062001a84565b60006040518083038185875af1925050503d8060008114620018d1576040519150601f19603f3d011682016040523d82523d6000602084013e620018d6565b606091505b5091509150620018e8828286620018f3565b979650505050505050565b606083156200190457508162000e21565b825115620019155782518084602001fd5b8160405162461bcd60e51b815260040162000812919062001b91565b611bef8062001f2b83390190565b6121098062003b1a83390190565b80356001600160a01b03811681146200097657600080fd5b60006020828403121562001977578081fd5b62000e2183836200194d565b60008060006060848603121562001998578182fd5b8335620019a58162001f14565b92506020840135620019b78162001f14565b929592945050506040919091013590565b60008060408385031215620019db578182fd5b620019e784846200194d565b946020939093013593505050565b60006020828403121562001a07578081fd5b8151801515811462000e21578182fd5b60006020828403121562001a29578081fd5b5035919050565b6000806040838503121562001a43578182fd5b82359150602083013562001a578162001f14565b809150509250929050565b6000806040838503121562001a75578182fd5b50508035926020909101359150565b6000825162001a9881846020870162001ee1565b9190910192915050565b6c42414c414e4345525f524f4c4560981b8152600d0190565b6c475541524449414e5f524f4c4560981b8152600d0190565b70504f4f4c5f575241505045525f524f4c4560781b815260110190565b6a474f5645524e5f524f4c4560a81b8152600b0190565b6a4d494e5445525f524f4c4560a81b8152600b0190565b6001600160a01b0391909116815260200190565b6001600160a01b0392831681529116602082015260400190565b6001600160a01b03929092168252602082015260400190565b901515815260200190565b90815260200190565b9182526001600160a01b0316602082015260400190565b600060208252825180602084015262001bb281604085016020870162001ee1565b601f01601f19169190910160400192915050565b60208082526022908201527f456e756d657261626c655365743a20696e646578206f7574206f6620626f756e604082015261647360f01b606082015260800190565b60208082526025908201527f5065726d697373696f6e733a2043616c6c6572206973206e6f74206120676f7660408201526432b93737b960d91b606082015260800190565b6020808252602f908201527f416363657373436f6e74726f6c3a2073656e646572206d75737420626520616e60408201526e0818591b5a5b881d1bc819dc985b9d608a1b606082015260800190565b60208082526026908201527f416464726573733a20696e73756666696369656e742062616c616e636520666f6040820152651c8818d85b1b60d21b606082015260800190565b60208082526030908201527f416363657373436f6e74726f6c3a2073656e646572206d75737420626520616e60408201526f2061646d696e20746f207265766f6b6560801b606082015260800190565b6020808252602e908201527f496e697469616c697a61626c653a20636f6e747261637420697320616c72656160408201526d191e481a5b9a5d1a585b1a5e995960921b606082015260800190565b60208082526025908201527f5065726d697373696f6e733a2043616c6c6572206973206e6f74206120677561604082015264393234b0b760d91b606082015260800190565b6020808252601d908201527f416464726573733a2063616c6c20746f206e6f6e2d636f6e7472616374000000604082015260600190565b6020808252602c908201527f5065726d697373696f6e733a20477561726469616e2063616e6e6f742072657660408201526b37b5b29033b7bb32b93737b960a11b606082015260800190565b6020808252602a908201527f5361666545524332303a204552433230206f7065726174696f6e20646964206e6040820152691bdd081cdd58d8d9595960b21b606082015260800190565b6020808252602f908201527f416363657373436f6e74726f6c3a2063616e206f6e6c792072656e6f756e636560408201526e103937b632b9903337b91039b2b63360891b606082015260800190565b60005b8381101562001efe57818101518382015260200162001ee4565b8381111562001f0e576000848401525b50505050565b6001600160a01b0381168114620009d957600080fdfe60806040523480156200001157600080fd5b5060405162001bef38038062001bef833981810160405260208110156200003757600080fd5b50516040805180820182526009815268105c9d1a18481554d160ba1b602082810191825283518085019094526004845263105554d160e21b90840152815184939162000087916003919062000223565b5080516200009d90600490602084019062000223565b5050600580546001600160a01b039093166201000002610100600160b01b031960ff19909416601217939093169290921790915550604051469080605262001b9d82396040519081900360520190209050620001016001600160e01b036200018816565b805160209182012060408051808201825260018152603160f81b90840152805180840194909452838101919091527fc89efdaa54c0f20c7adf612882df0950f5a951637e0307cdcb4c672f298b8bc6606084015260808301939093523060a0808401919091528351808403909101815260c0909201909252805191012060065550620002c5565b60038054604080516020601f6002600019610100600188161502019095169490940493840181900481028201810190925282815260609390929091830182828015620002185780601f10620001ec5761010080835404028352916020019162000218565b820191906000526020600020905b815481529060010190602001808311620001fa57829003601f168201915b505050505090505b90565b828054600181600116156101000203166002900490600052602060002090601f016020900481019282601f106200026657805160ff191683800117855562000296565b8280016001018555821562000296579182015b828111156200029657825182559160200191906001019062000279565b50620002a4929150620002a8565b5090565b6200022091905b80821115620002a45760008155600101620002af565b6118c880620002d56000396000f3fe608060405234801561001057600080fd5b506004361061018e5760003560e01c806370a08231116100de578063a9059cbb11610097578063d505accf11610071578063d505accf14610463578063dd62ed3e146104b4578063f77c4791146104e2578063fd1827e2146104ea5761018e565b8063a9059cbb1461040b578063c23af83214610437578063c80cb4431461045b5761018e565b806370a082311461035d5780637ecebe00146103835780638456cb59146103a957806392eefe9b146103b157806395d89b41146103d7578063a457c2d7146103df5761018e565b8063313ce5671161014b5780633f4ba83a116101255780633f4ba83a1461030257806340c10f191461030c57806342966c68146103385780635c975abb146103555761018e565b8063313ce567146102b05780633644e515146102ce57806339509351146102d65761018e565b806306fdde0314610193578063095ea7b3146102105780630d5b00c31461025057806318160ddd1461026a57806323b872dd1461027257806330adf81f146102a8575b600080fd5b61019b6104f2565b6040805160208082528351818301528351919283929083019185019080838360005b838110156101d55781810151838201526020016101bd565b50505050905090810190601f1680156102025780820380516001836020036101000a031916815260200191505b509250505060405180910390f35b61023c6004803603604081101561022657600080fd5b506001600160a01b038135169060200135610588565b604080519115158252519081900360200190f35b6102586105a5565b60408051918252519081900360200190f35b610258610635565b61023c6004803603606081101561028857600080fd5b506001600160a01b0381358116916020810135909116906040013561063b565b6102586106c8565b6102b86106ec565b6040805160ff9092168252519081900360200190f35b6102586106f5565b61023c600480360360408110156102ec57600080fd5b506001600160a01b0381351690602001356106fb565b61030a61074f565b005b61030a6004803603604081101561032257600080fd5b506001600160a01b038135169060200135610893565b61030a6004803603602081101561034e57600080fd5b5035610958565b61023c61099c565b6102586004803603602081101561037357600080fd5b50356001600160a01b03166109aa565b6102586004803603602081101561039957600080fd5b50356001600160a01b03166109c5565b61030a6109d7565b61030a600480360360208110156103c757600080fd5b50356001600160a01b0316610b19565b61019b610c24565b61023c600480360360408110156103f557600080fd5b506001600160a01b038135169060200135610c85565b61023c6004803603604081101561042157600080fd5b506001600160a01b038135169060200135610cf3565b61043f610d07565b604080516001600160a01b039092168252519081900360200190f35b610258610d57565b61030a600480360360e081101561047957600080fd5b506001600160a01b03813581169160208101359091169060408101359060608101359060ff6080820135169060a08101359060c00135610d61565b610258600480360360408110156104ca57600080fd5b506001600160a01b0381358116916020013516610f64565b61043f610f8f565b61043f610fa4565b60038054604080516020601f600260001961010060018816150201909516949094049384018190048102820181019092528281526060939092909183018282801561057e5780601f106105535761010080835404028352916020019161057e565b820191906000526020600020905b81548152906001019060200180831161056157829003601f168201915b5050505050905090565b600061059c610595610ff4565b8484610ff8565b50600192915050565b60006105af610d07565b6001600160a01b03166370a08231306040518263ffffffff1660e01b815260040180826001600160a01b03166001600160a01b0316815260200191505060206040518083038186803b15801561060457600080fd5b505afa158015610618573d6000803e3d6000fd5b505050506040513d602081101561062e57600080fd5b5051905090565b60025490565b60006106488484846110e4565b6106be84610654610ff4565b6106b9856040518060600160405280602881526020016117dc602891396001600160a01b038a16600090815260016020526040812090610692610ff4565b6001600160a01b03168152602081019190915260400160002054919063ffffffff61124b16565b610ff8565b5060019392505050565b7f6e71edae12b1b97f4d1f60370fef10105fa2faae0126114a169c64845d6126c981565b60055460ff1690565b60065481565b600061059c610708610ff4565b846106b98560016000610719610ff4565b6001600160a01b03908116825260208083019390935260409182016000908120918c16815292529020549063ffffffff6112e216565b60055460408051631c86b03760e31b81523360048201529051620100009092046001600160a01b03169163e43581b891602480820192602092909190829003018186803b15801561079f57600080fd5b505afa1580156107b3573d6000803e3d6000fd5b505050506040513d60208110156107c957600080fd5b50518061084e575060055460408051630c68ba2160e01b81523360048201529051620100009092046001600160a01b031691630c68ba2191602480820192602092909190829003018186803b15801561082157600080fd5b505afa158015610835573d6000803e3d6000fd5b505050506040513d602081101561084b57600080fd5b50515b6108895760405162461bcd60e51b81526004018080602001828103825260338152602001806116f36033913960400191505060405180910390fd5b610891611343565b565b600554604080516355138f0d60e11b81523360048201529051620100009092046001600160a01b03169163aa271e1a91602480820192602092909190829003018186803b1580156108e357600080fd5b505afa1580156108f7573d6000803e3d6000fd5b505050506040513d602081101561090d57600080fd5b505161094a5760405162461bcd60e51b815260040180806020018281038252602581526020018061176a6025913960400191505060405180910390fd5b61095482826113e4565b5050565b61096233826114e0565b604080518281529051339182917f227fb4b3aae8331f21af5167739c291fefe3afd3c2e08cea44f499e564f486ef9181900360200190a350565b600554610100900460ff1690565b6001600160a01b031660009081526020819052604090205490565b60076020526000908152604090205481565b60055460408051631c86b03760e31b81523360048201529051620100009092046001600160a01b03169163e43581b891602480820192602092909190829003018186803b158015610a2757600080fd5b505afa158015610a3b573d6000803e3d6000fd5b505050506040513d6020811015610a5157600080fd5b505180610ad6575060055460408051630c68ba2160e01b81523360048201529051620100009092046001600160a01b031691630c68ba2191602480820192602092909190829003018186803b158015610aa957600080fd5b505afa158015610abd573d6000803e3d6000fd5b505050506040513d6020811015610ad357600080fd5b50515b610b115760405162461bcd60e51b81526004018080602001828103825260338152602001806116f36033913960400191505060405180910390fd5b6108916115e8565b60055460408051631c86b03760e31b81523360048201529051620100009092046001600160a01b03169163e43581b891602480820192602092909190829003018186803b158015610b6957600080fd5b505afa158015610b7d573d6000803e3d6000fd5b505050506040513d6020811015610b9357600080fd5b5051610bd05760405162461bcd60e51b81526004018080602001828103825260278152602001806117b56027913960400191505060405180910390fd5b6005805462010000600160b01b031916620100006001600160a01b038416908102919091179091556040517f5b9e04ebd57dd0a9649b6a969291839f2794d18ee0dfe7027b5757db16eb98b690600090a250565b60048054604080516020601f600260001961010060018816150201909516949094049384018190048102820181019092528281526060939092909183018282801561057e5780601f106105535761010080835404028352916020019161057e565b600061059c610c92610ff4565b846106b98560405180606001604052806025815260200161186e6025913960016000610cbc610ff4565b6001600160a01b03908116825260208083019390935260409182016000908120918d1681529252902054919063ffffffff61124b16565b600061059c610d00610ff4565b84846110e4565b6000600560029054906101000a90046001600160a01b03166001600160a01b031663c23af8326040518163ffffffff1660e01b815260040160206040518083038186803b15801561060457600080fd5b60006105af610fa4565b42841015610dac576040805162461bcd60e51b8152602060048201526013602482015272105c9d1a18551bdad95b8e8811561412549151606a1b604482015290519081900360640190fd5b6006546001600160a01b0380891660008181526007602090815260408083208054600180820190925582517f6e71edae12b1b97f4d1f60370fef10105fa2faae0126114a169c64845d6126c98186015280840196909652958d166060860152608085018c905260a085019590955260c08085018b90528151808603909101815260e08501825280519083012061190160f01b6101008601526101028501969096526101228085019690965280518085039096018652610142840180825286519683019690962095839052610162840180825286905260ff89166101828501526101a284018890526101c28401879052519193926101e280820193601f1981019281900390910190855afa158015610ec7573d6000803e3d6000fd5b5050604051601f1901519150506001600160a01b03811615801590610efd5750886001600160a01b0316816001600160a01b0316145b610f4e576040805162461bcd60e51b815260206004820152601d60248201527f4172746861546f6b656e3a20494e56414c49445f5349474e4154555245000000604482015290519081900360640190fd5b610f59898989610ff8565b505050505050505050565b6001600160a01b03918216600090815260016020908152604080832093909416825291909152205490565b6005546201000090046001600160a01b031690565b6000600560029054906101000a90046001600160a01b03166001600160a01b031663fd1827e26040518163ffffffff1660e01b815260040160206040518083038186803b15801561060457600080fd5b3390565b6001600160a01b03831661103d5760405162461bcd60e51b815260040180806020018281038252602481526020018061184a6024913960400191505060405180910390fd5b6001600160a01b0382166110825760405162461bcd60e51b81526004018080602001828103825260228152602001806117486022913960400191505060405180910390fd5b6001600160a01b03808416600081815260016020908152604080832094871680845294825291829020859055815185815291517f8c5be1e5ebec7d5bd14f71427d1e84f3dd0314c0f7b2291e5b200ac8c7c3b9259281900390910190a3505050565b6001600160a01b0383166111295760405162461bcd60e51b81526004018080602001828103825260258152602001806118256025913960400191505060405180910390fd5b6001600160a01b03821661116e5760405162461bcd60e51b81526004018080602001828103825260238152602001806116d06023913960400191505060405180910390fd5b61117983838361166d565b6111bc8160405180606001604052806026815260200161178f602691396001600160a01b038616600090815260208190526040902054919063ffffffff61124b16565b6001600160a01b0380851660009081526020819052604080822093909355908416815220546111f1908263ffffffff6112e216565b6001600160a01b038084166000818152602081815260409182902094909455805185815290519193928716927fddf252ad1be2c89b69c2b068fc378daa952ba7f163c4a11628f55a4df523b3ef92918290030190a3505050565b600081848411156112da5760405162461bcd60e51b81526004018080602001828103825283818151815260200191508051906020019080838360005b8381101561129f578181015183820152602001611287565b50505050905090810190601f1680156112cc5780820380516001836020036101000a031916815260200191505b509250505060405180910390fd5b505050900390565b60008282018381101561133c576040805162461bcd60e51b815260206004820152601b60248201527f536166654d6174683a206164646974696f6e206f766572666c6f770000000000604482015290519081900360640190fd5b9392505050565b61134b61099c565b611393576040805162461bcd60e51b815260206004820152601460248201527314185d5cd8589b194e881b9bdd081c185d5cd95960621b604482015290519081900360640190fd5b6005805461ff00191690557f5db9ee0a495bf2e6ff9c91a7834c1ba4fdd244a5e8aa4e537bd38aeae4b073aa6113c7610ff4565b604080516001600160a01b039092168252519081900360200190a1565b6001600160a01b03821661143f576040805162461bcd60e51b815260206004820152601f60248201527f45524332303a206d696e7420746f20746865207a65726f206164647265737300604482015290519081900360640190fd5b61144b6000838361166d565b60025461145e908263ffffffff6112e216565b6002556001600160a01b03821660009081526020819052604090205461148a908263ffffffff6112e216565b6001600160a01b0383166000818152602081815260408083209490945583518581529351929391927fddf252ad1be2c89b69c2b068fc378daa952ba7f163c4a11628f55a4df523b3ef9281900390910190a35050565b6001600160a01b0382166115255760405162461bcd60e51b81526004018080602001828103825260218152602001806118046021913960400191505060405180910390fd5b6115318260008361166d565b61157481604051806060016040528060228152602001611726602291396001600160a01b038516600090815260208190526040902054919063ffffffff61124b16565b6001600160a01b0383166000908152602081905260409020556002546115a0908263ffffffff61167216565b6002556040805182815290516000916001600160a01b038516917fddf252ad1be2c89b69c2b068fc378daa952ba7f163c4a11628f55a4df523b3ef9181900360200190a35050565b6115f061099c565b15611635576040805162461bcd60e51b815260206004820152601060248201526f14185d5cd8589b194e881c185d5cd95960821b604482015290519081900360640190fd5b6005805461ff0019166101001790557f62e78cea01bee320cd4e420270b5ea74000d11b0c9f74754ebdbfc544b05a2586113c7610ff4565b505050565b6000828211156116c9576040805162461bcd60e51b815260206004820152601e60248201527f536166654d6174683a207375627472616374696f6e206f766572666c6f770000604482015290519081900360640190fd5b5090039056fe45524332303a207472616e7366657220746f20746865207a65726f2061646472657373436f6e74726f6c6c65725265663a2043616c6c6572206973206e6f74206120677561726469616e206f7220676f7665726e6f7245524332303a206275726e20616d6f756e7420657863656564732062616c616e636545524332303a20617070726f766520746f20746865207a65726f2061646472657373436f6e74726f6c6c65725265663a2043616c6c6572206973206e6f742061206d696e74657245524332303a207472616e7366657220616d6f756e7420657863656564732062616c616e6365436f6e74726f6c6c65725265663a2043616c6c6572206973206e6f74206120676f7665726e6f7245524332303a207472616e7366657220616d6f756e74206578636565647320616c6c6f77616e636545524332303a206275726e2066726f6d20746865207a65726f206164647265737345524332303a207472616e736665722066726f6d20746865207a65726f206164647265737345524332303a20617070726f76652066726f6d20746865207a65726f206164647265737345524332303a2064656372656173656420616c6c6f77616e63652062656c6f77207a65726fa2646970667358221220e7333a2b9a3f34d66620e01ba2da6a623b9a6d41652f34924504410775b1b24864736f6c63430006060033454950373132446f6d61696e28737472696e67206e616d652c737472696e672076657273696f6e2c75696e7432353620636861696e49642c6164647265737320766572696679696e67436f6e74726163742960806040526b033b2e3c9fd0803ce80000006000553480156200002157600080fd5b506040516200210938038062002109833981016040819052620000449162000121565b600080546001600160a01b0384168083526003602052604080842080546001600160601b0319166001600160601b0390941693909317909255825491519092917fddf252ad1be2c89b69c2b068fc378daa952ba7f163c4a11628f55a4df523b3ef91620000b2919062000179565b60405180910390a3600180546001600160a01b0319166001600160a01b0383811691909117918290556040517f3b0007eb941cf645526cbb3a4fdaecda9d28ce4843167d9263b536a1f1edc0f69262000111926000929116906200015f565b60405180910390a150506200019b565b6000806040838503121562000134578182fd5b8251620001418162000182565b6020840151909250620001548162000182565b809150509250929050565b6001600160a01b0392831681529116602082015260400190565b90815260200190565b6001600160a01b03811681146200019857600080fd5b50565b611f5e80620001ab6000396000f3fe608060405234801561001057600080fd5b50600436106101585760003560e01c806370a08231116100c3578063c3cda5201161007c578063c3cda520146102cc578063d505accf146102df578063dd62ed3e146102f2578063e7a324dc14610305578063f1127ed81461030d578063fca3b5aa1461032e57610158565b806370a0823114610258578063782d6fe11461026b5780637ecebe001461028b57806395d89b411461029e578063a9059cbb146102a6578063b4b5ea57146102b957610158565b806330adf81f1161011557806330adf81f146101e0578063313ce567146101e857806340c10f19146101fd578063587cde1e146102125780635c19a95c146102255780636fcfff451461023857610158565b806306fdde031461015d578063075461721461017b578063095ea7b31461019057806318160ddd146101b057806320606b70146101c557806323b872dd146101cd575b600080fd5b610165610341565b6040516101729190611b78565b60405180910390f35b610183610362565b6040516101729190611a9c565b6101a361019e3660046118ab565b610371565b6040516101729190611aca565b6101b861043b565b6040516101729190611ad5565b6101b8610441565b6101a36101db3660046117ff565b610458565b6101b86105a7565b6101f06105b3565b6040516101729190611e1c565b61021061020b3660046118ab565b6105b8565b005b6101836102203660046117b0565b610794565b6102106102333660046117b0565b6107af565b61024b6102463660046117b0565b6107bc565b6040516101729190611dec565b6101b86102663660046117b0565b6107d4565b61027e6102793660046118ab565b6107f8565b6040516101729190611e2a565b6101b86102993660046117b0565b610a06565b610165610a18565b6101a36102b43660046118ab565b610a39565b61027e6102c73660046117b0565b610a80565b6102106102da3660046118d5565b610af1565b6102106102ed36600461183f565b610cd8565b6101b86103003660046117cb565b610fcc565b6101b8611000565b61032061031b36600461192e565b61100c565b604051610172929190611dfd565b61021061033c3660046117b0565b611041565b60405180604001604052806005815260200164417274686160d81b81525081565b6001546001600160a01b031681565b60008060001983141561038757506000196103b7565b6103b4836040518060400160405280601d8152602001600080516020611f098339815191528152506110d4565b90505b3360008181526002602090815260408083206001600160a01b03891680855292529182902080546001600160601b0319166001600160601b03861617905590519091907f8c5be1e5ebec7d5bd14f71427d1e84f3dd0314c0f7b2291e5b200ac8c7c3b92590610427908590611e2a565b60405180910390a360019150505b92915050565b60005481565b60405161044d906119f2565b604051809103902081565b6001600160a01b038316600090815260026020908152604080832033808552908352818420548251808401909352601d8352600080516020611f0983398151915293830193909352916001600160601b03169083906104b89086906110d4565b9050866001600160a01b0316836001600160a01b0316141580156104e557506001600160601b0382811614155b1561058f57600061050f8383604051806060016040528060308152602001611eb360309139611103565b6001600160a01b038981166000818152600260209081526040808320948a16808452949091529081902080546001600160601b0319166001600160601b0386161790555192935090917f8c5be1e5ebec7d5bd14f71427d1e84f3dd0314c0f7b2291e5b200ac8c7c3b92590610585908590611e2a565b60405180910390a3505b61059a878783611142565b5060019695505050505050565b60405161044d90611988565b601281565b6001546001600160a01b031633146105eb5760405162461bcd60e51b81526004016105e290611c17565b60405180910390fd5b6001600160a01b0382166106115760405162461bcd60e51b81526004016105e290611c4e565b6000610640826040518060400160405280601d8152602001600080516020611f098339815191528152506110d4565b90506000610668600054604051806060016040528060228152602001611e91602291396110d4565b905061068d8183604051806060016040528060228152602001611e9160229139611305565b6001600160601b0390811660009081556001600160a01b0386168152600360209081526040918290205482518084019093528183527f41525448413a207472616e7366657220616d6f756e74206f766572666c6f7773918301919091526106f79216908490611305565b6001600160a01b03851660008181526003602052604080822080546001600160601b0319166001600160601b03959095169490941790935591519091907fddf252ad1be2c89b69c2b068fc378daa952ba7f163c4a11628f55a4df523b3ef90610761908690611e2a565b60405180910390a36001600160a01b0380851660009081526004602052604081205461078e921684611341565b50505050565b6004602052600090815260409020546001600160a01b031681565b6107b9338261150d565b50565b60066020526000908152604090205463ffffffff1681565b6001600160a01b03166000908152600360205260409020546001600160601b031690565b60004382106108195760405162461bcd60e51b81526004016105e290611cfd565b6001600160a01b03831660009081526006602052604090205463ffffffff1680610847576000915050610435565b6001600160a01b038416600090815260056020908152604080832063ffffffff6000198601811685529252909120541683106108c3576001600160a01b03841660009081526005602090815260408083206000199490940163ffffffff1683529290522054600160201b90046001600160601b03169050610435565b6001600160a01b038416600090815260056020908152604080832083805290915290205463ffffffff168310156108fe576000915050610435565b600060001982015b8163ffffffff168163ffffffff1611156109c157600282820363ffffffff16048103610930611771565b506001600160a01b038716600090815260056020908152604080832063ffffffff858116855290835292819020815180830190925254928316808252600160201b9093046001600160601b0316918101919091529087141561099c576020015194506104359350505050565b805163ffffffff168711156109b3578193506109ba565b6001820392505b5050610906565b506001600160a01b038516600090815260056020908152604080832063ffffffff909416835292905220546001600160601b03600160201b9091041691505092915050565b60076020526000908152604090205481565b60405180604001604052806005815260200164415254484160d81b81525081565b600080610a69836040518060400160405280601d8152602001600080516020611f098339815191528152506110d4565b9050610a76338583611142565b5060019392505050565b6001600160a01b03811660009081526006602052604081205463ffffffff1680610aab576000610aea565b6001600160a01b0383166000908152600560209081526040808320600019850163ffffffff168452909152902054600160201b90046001600160601b03165b9392505050565b6000604051610aff906119f2565b604080519182900382208282019091526005825264417274686160d81b6020909201919091527f38afc84a60c53af57649cc97e3174260d888cb207ee12ecd11d58ea950a0db3f610b4e611591565b30604051602001610b629493929190611b36565b6040516020818303038152906040528051906020012090506000604051610b8890611a4d565b604051908190038120610ba3918a908a908a90602001611b12565b60405160208183030381529060405280519060200120905060008282604051602001610bd092919061196d565b604051602081830303815290604052805190602001209050600060018288888860405160008152602001604052604051610c0d9493929190611b5a565b6020604051602081039080840390855afa158015610c2f573d6000803e3d6000fd5b5050604051601f1901519150506001600160a01b038116610c625760405162461bcd60e51b81526004016105e290611c98565b6001600160a01b03811660009081526007602052604090208054600181019091558914610ca15760405162461bcd60e51b81526004016105e290611ccf565b87421115610cc15760405162461bcd60e51b81526004016105e290611db5565b610ccb818b61150d565b505050505b505050505050565b6000600019861415610ced5750600019610d1d565b610d1a866040518060400160405280601d8152602001600080516020611f098339815191528152506110d4565b90505b6000604051610d2b906119f2565b604080519182900382208282019091526005825264417274686160d81b6020909201919091527f38afc84a60c53af57649cc97e3174260d888cb207ee12ecd11d58ea950a0db3f610d7a611591565b30604051602001610d8e9493929190611b36565b6040516020818303038152906040528051906020012090506000604051610db490611988565b604080519182900382206001600160a01b038d16600090815260076020908152929020805460018101909155610df69391928e928e928e9290918e9101611ade565b60405160208183030381529060405280519060200120905060008282604051602001610e2392919061196d565b604051602081830303815290604052805190602001209050600060018289898960405160008152602001604052604051610e609493929190611b5a565b6020604051602081039080840390855afa158015610e82573d6000803e3d6000fd5b5050604051601f1901519150506001600160a01b038116610eb55760405162461bcd60e51b81526004016105e290611c98565b8b6001600160a01b0316816001600160a01b031614610ee65760405162461bcd60e51b81526004016105e290611d34565b88421115610f065760405162461bcd60e51b81526004016105e290611db5565b84600260008e6001600160a01b03166001600160a01b0316815260200190815260200160002060008d6001600160a01b03166001600160a01b0316815260200190815260200160002060006101000a8154816001600160601b0302191690836001600160601b031602179055508a6001600160a01b03168c6001600160a01b03167f8c5be1e5ebec7d5bd14f71427d1e84f3dd0314c0f7b2291e5b200ac8c7c3b92587604051610fb69190611e2a565b60405180910390a3505050505050505050505050565b6001600160a01b0391821660009081526002602090815260408083209390941682529190915220546001600160601b031690565b60405161044d90611a4d565b600560209081526000928352604080842090915290825290205463ffffffff811690600160201b90046001600160601b031682565b6001546001600160a01b0316331461106b5760405162461bcd60e51b81526004016105e290611d61565b6001546040517f3b0007eb941cf645526cbb3a4fdaecda9d28ce4843167d9263b536a1f1edc0f6916110aa916001600160a01b03909116908490611ab0565b60405180910390a1600180546001600160a01b0319166001600160a01b0392909216919091179055565b600081600160601b84106110fb5760405162461bcd60e51b81526004016105e29190611b78565b509192915050565b6000836001600160601b0316836001600160601b03161115829061113a5760405162461bcd60e51b81526004016105e29190611b78565b505050900390565b6001600160a01b0383166111685760405162461bcd60e51b81526004016105e290611bcb565b6001600160a01b03821661118e5760405162461bcd60e51b81526004016105e290611c4e565b6001600160a01b0383166000908152600360209081526040918290205482516060810190935260268084526111d9936001600160601b039092169285929190611ee390830139611103565b6001600160a01b03848116600090815260036020908152604080832080546001600160601b0319166001600160601b039687161790559286168252908290205482518084019093528183527f41525448413a207472616e7366657220616d6f756e74206f766572666c6f7773918301919091526112599216908390611305565b6001600160a01b038381166000818152600360205260409081902080546001600160601b0319166001600160601b0395909516949094179093559151908516907fddf252ad1be2c89b69c2b068fc378daa952ba7f163c4a11628f55a4df523b3ef906112c6908590611e2a565b60405180910390a36001600160a01b0380841660009081526004602052604080822054858416835291205461130092918216911683611341565b505050565b6000838301826001600160601b0380871690831610156113385760405162461bcd60e51b81526004016105e29190611b78565b50949350505050565b816001600160a01b0316836001600160a01b03161415801561136c57506000816001600160601b0316115b15611300576001600160a01b03831615611441576001600160a01b03831660009081526006602052604081205463ffffffff1690816113ac5760006113eb565b6001600160a01b0385166000908152600560209081526040808320600019860163ffffffff168452909152902054600160201b90046001600160601b03165b9050600061142f82856040518060400160405280601d81526020017f41525448413a20766f746520616d6f756e7420756e646572666c6f7773000000815250611103565b905061143d86848484611595565b5050505b6001600160a01b03821615611300576001600160a01b03821660009081526006602052604081205463ffffffff16908161147c5760006114bb565b6001600160a01b0384166000908152600560209081526040808320600019860163ffffffff168452909152902054600160201b90046001600160601b03165b905060006114ff82856040518060400160405280601c81526020017f41525448413a20766f746520616d6f756e74206f766572666c6f777300000000815250611305565b9050610cd085848484611595565b6001600160a01b03808316600081815260046020818152604080842080546003845282862054949093528787166001600160a01b031984168117909155905191909516946001600160601b039092169391928592917f3134e8a2e6d97e929a7e54011ea5485d7d196dd5f0ba4d4ef95803e8e3fc257f9190a461078e828483611341565b4690565b60006115b943604051806060016040528060238152602001611e6e6023913961174a565b905060008463ffffffff1611801561160257506001600160a01b038516600090815260056020908152604080832063ffffffff6000198901811685529252909120548282169116145b15611661576001600160a01b0385166000908152600560209081526040808320600019880163ffffffff168452909152902080546fffffffffffffffffffffffff000000001916600160201b6001600160601b03851602179055611700565b60408051808201825263ffffffff80841682526001600160601b0380861660208085019182526001600160a01b038b166000818152600583528781208c871682528352878120965187549451909516600160201b026fffffffffffffffffffffffff000000001995871663ffffffff19958616179590951694909417909555938252600690935292909220805460018801909316929091169190911790555b846001600160a01b03167fdec2bacdd2f05b59de34da9b523dff8be42e5e38e818c82fdb0bae774387a724848460405161173b929190611e3e565b60405180910390a25050505050565b600081600160201b84106110fb5760405162461bcd60e51b81526004016105e29190611b78565b604080518082019091526000808252602082015290565b80356001600160a01b038116811461043557600080fd5b803560ff8116811461043557600080fd5b6000602082840312156117c1578081fd5b610aea8383611788565b600080604083850312156117dd578081fd5b6117e78484611788565b91506117f68460208501611788565b90509250929050565b600080600060608486031215611813578081fd5b833561181e81611e58565b9250602084013561182e81611e58565b929592945050506040919091013590565b600080600080600080600060e0888a031215611859578283fd5b6118638989611788565b96506118728960208a01611788565b9550604088013594506060880135935061188f8960808a0161179f565b925060a0880135915060c0880135905092959891949750929550565b600080604083850312156118bd578182fd5b6118c78484611788565b946020939093013593505050565b60008060008060008060c087890312156118ed578182fd5b6118f78888611788565b95506020870135945060408701359350611914886060890161179f565b92506080870135915060a087013590509295509295509295565b60008060408385031215611940578182fd5b61194a8484611788565b9150602083013563ffffffff81168114611962578182fd5b809150509250929050565b61190160f01b81526002810192909252602282015260420190565b7f5065726d69742861646472657373206f776e65722c616464726573732073706581527f6e6465722c75696e743235362076616c75652c75696e74323536206e6f6e63656020820152712c75696e7432353620646561646c696e652960701b604082015260520190565b7f454950373132446f6d61696e28737472696e67206e616d652c75696e7432353681527f20636861696e49642c6164647265737320766572696679696e67436f6e74726160208201526263742960e81b604082015260430190565b7f44656c65676174696f6e28616464726573732064656c6567617465652c75696e81527f74323536206e6f6e63652c75696e7432353620657870697279290000000000006020820152603a0190565b6001600160a01b0391909116815260200190565b6001600160a01b0392831681529116602082015260400190565b901515815260200190565b90815260200190565b9586526001600160a01b0394851660208701529290931660408501526060840152608083019190915260a082015260c00190565b9384526001600160a01b039290921660208401526040830152606082015260800190565b938452602084019290925260408301526001600160a01b0316606082015260800190565b93845260ff9290921660208401526040830152606082015260800190565b6000602080835283518082850152825b81811015611ba457858101830151858201604001528201611b88565b81811115611bb55783604083870101525b50601f01601f1916929092016040019392505050565b6020808252602c908201527f41525448413a2063616e6e6f74207472616e736665722066726f6d207468652060408201526b7a65726f206164647265737360a01b606082015260800190565b6020808252601f908201527f41525448413a206f6e6c7920746865206d696e7465722063616e206d696e7400604082015260600190565b6020808252602a908201527f41525448413a2063616e6e6f74207472616e7366657220746f20746865207a65604082015269726f206164647265737360b01b606082015260800190565b60208082526018908201527f41525448413a20696e76616c6964207369676e61747572650000000000000000604082015260600190565b60208082526014908201527341525448413a20696e76616c6964206e6f6e636560601b604082015260600190565b60208082526019908201527f41525448413a206e6f74207965742064657465726d696e656400000000000000604082015260600190565b60208082526013908201527210549512104e881d5b985d5d1a1bdc9a5e9959606a1b604082015260600190565b60208082526034908201527f41525448413a206f6e6c7920746865206d696e7465722063616e206368616e676040820152736520746865206d696e746572206164647265737360601b606082015260800190565b60208082526018908201527f41525448413a207369676e617475726520657870697265640000000000000000604082015260600190565b63ffffffff91909116815260200190565b63ffffffff9290921682526001600160601b0316602082015260400190565b60ff91909116815260200190565b6001600160601b0391909116815260200190565b6001600160601b0392831681529116602082015260400190565b6001600160a01b03811681146107b957600080fdfe41525448413a20626c6f636b206e756d6265722065786365656473203332206269747341525448413a20746f74616c537570706c792065786365656473203936206269747341525448413a207472616e7366657220616d6f756e742065786365656473207370656e64657220616c6c6f77616e636541525448413a207472616e7366657220616d6f756e7420657863656564732062616c616e636541525448413a20616d6f756e7420657863656564732039362062697473000000a2646970667358221220c1a82c7004aa3e26283aa9a239241f052e2e5f21799299202ea9fdeeccf646f564736f6c63430006060033a2646970667358221220c59eac5e8af394e7809cc996c8734cb034bd24d1944d16bffd2339b60d73a29864736f6c63430006060033",
  "immutableReferences": {},
  "source": "// SPDX-License-Identifier: MIT\n\npragma solidity ^0.6.0;\npragma experimental ABIEncoderV2;\n\nimport \"@openzeppelin/contracts/utils/EnumerableSet.sol\";\nimport \"@openzeppelin/contracts/token/ERC20/IERC20.sol\";\nimport \"@openzeppelin/contracts/proxy/Initializable.sol\";\nimport \"@openzeppelin/contracts/token/ERC20/SafeERC20.sol\";\n\nimport \"../token/IAUSD.sol\";\nimport \"./Permissions.sol\";\nimport \"./IController.sol\";\nimport \"../dao/Artha.sol\";\nimport \"../token/AUSD.sol\";\n\ncontract Controller is Initializable, IController, Permissions{\n\n    using EnumerableSet for EnumerableSet.AddressSet;\n    using SafeERC20 for IERC20;\n\n    IAUSD public override ausd;\n    IERC20 public override artha;\n\n    EnumerableSet.AddressSet internal poolWrappers;\n\n    uint256 public override balancerRewardAmount = 500 ether;\n    uint256 public override issuerRewardAmount = 500 ether;\n\n    mapping (bytes32 => address) public override poolPriceFeeds;\n    mapping (bytes32 => address) public override poolIssuers;\n    // solhint-disable var-name-mixedcase\n    uint256 public override BASIS_POINT = 10000;\n    // solhint-disable var-name-mixedcase    \n    uint256 public override LIMIT = 50;\n\n    address public override balancer;\n\n    function init() external override initializer {\n\n        _setupGovernor(msg.sender);\n        \n        AUSD _ausd = new AUSD(address(this));\n        _setAUSD(address(_ausd));\n\n        Artha _artha = new Artha(address(this), msg.sender);\n        _setArtha(address(_artha));\n\n    }\n\n    /// @notice sets ausd address to a new address\n    /// @param token new ausd address\n    function setAUSD(address token) public override onlyGovernor {\n        _setAUSD(token);\n    }\n\n    /// @notice sets Artha address to a new address\n    /// @param token new Artha address\n    function setArtha(address token) public override onlyGovernor {\n        _setArtha(token);\n    }\n\n    function setBalancer(address _balancer) public override onlyGovernor{\n        revokeBalancer(balancer);\n        revokeMinter(balancer);\n        balancer = _balancer;\n        grantBalancer(_balancer);\n        grantMinter(_balancer);\n    }\n\n    function poolWrappersLength() public view override returns (uint256) {\n        return poolWrappers.length();\n    }\n\n    function poolWrapperAt(uint256 i) public view override returns (address) {\n        return poolWrappers.at(i);\n    }\n\n    ///\n    function setLimit(uint256 amount) public override onlyGovernor {\n        LIMIT = amount;\n    }\n\n    function addPoolWrapper(address poolWrapper) public override onlyGovernor {\n        poolWrappers.add(poolWrapper);\n        grantPoolWrapper(poolWrapper);\n    }\n    \n    function removePoolWrapper(address poolWrapper) public override onlyGovernor{\n        poolWrappers.remove(poolWrapper);\n        revokePoolWrapper(poolWrapper);\n    }\n\n    function setPoolPriceFeed(bytes32 pool, address feed) public override onlyGovernor {\n        poolPriceFeeds[pool] = feed;\n    }\n\n    function setPoolIssuer(bytes32 pool, address issuer) public override onlyGovernor {\n        if(poolIssuers[pool] != address(0)){\n            revokeMinter(poolIssuers[pool]);\n        }\n        poolIssuers[pool] = issuer;\n        grantMinter(issuer);\n    }\n\n    function setBalancerReward(uint256 amount) public override onlyGovernor {\n        balancerRewardAmount = amount;\n    }\n\n    function setIssuerReward(uint256 amount) public override onlyGovernor {\n        issuerRewardAmount = amount;\n    }\n\n    function transferAsset(address asset, address dst, uint256 amount) public override onlyGovernor {\n        IERC20(asset).safeTransfer(dst, amount);\n    }\n\n    function _setAUSD(address token) internal {\n        ausd = IAUSD(token);\n        emit AUSDUpdate(token);\n    }\n\n    function _setArtha(address token) internal {\n        artha = IERC20(token);\n        emit ArthaUpdate(token);\n    }    \n\n    /// @notice sends AGT tokens from treasury to an address\n    /// @param to the address to send AGT to\n    /// @param amount the amount of AGT to send\n    function allocateArtha(address to, uint256 amount)\n        external\n        override\n        onlyGovernor\n    {\n        IERC20 _artha = artha;\n        _artha.safeTransfer(to, amount);\n\n        emit ArthaAllocation(to, amount);\n    }\n\n\n}",
  "sourcePath": "/Users/parashar/Documents/defi/arthafinance/contracts/controller/Controller.sol",
  "compiler": {
    "name": "solc",
    "version": "0.6.6+commit.6c089d02.Emscripten.clang"
  },
  "schemaVersion": "3.4.0",
  "updatedAt": "2021-06-03T16:12:19.557Z",
  "networkType": "ethereum",
  "devdoc": {
    "methods": {
      "allocateArtha(address,uint256)": {
        "params": {
          "amount": "the amount of AGT to send",
          "to": "the address to send AGT to"
        }
      },
      "createRole(bytes32,bytes32)": {
        "details": "can also be used to update admin of existing role",
        "params": {
          "adminRole": "the admin role id for `role`",
          "role": "the new role id"
        }
      },
      "getRoleAdmin(bytes32)": {
        "details": "Returns the admin role that controls `role`. See {grantRole} and {revokeRole}.     * To change a role's admin, use {_setRoleAdmin}."
      },
      "getRoleMember(bytes32,uint256)": {
        "details": "Returns one of the accounts that have `role`. `index` must be a value between 0 and {getRoleMemberCount}, non-inclusive.     * Role bearers are not sorted in any particular way, and their ordering may change at any point.     * WARNING: When using {getRoleMember} and {getRoleMemberCount}, make sure you perform all queries on the same block. See the following https://forum.openzeppelin.com/t/iterating-over-elements-on-enumerableset-in-openzeppelin-contracts/2296[forum post] for more information."
      },
      "getRoleMemberCount(bytes32)": {
        "details": "Returns the number of accounts that have `role`. Can be used together with {getRoleMember} to enumerate all bearers of a role."
      },
      "grantBalancer(address)": {
        "params": {
          "balancer": "new balancer"
        }
      },
      "grantGovernor(address)": {
        "params": {
          "governor": "new governor"
        }
      },
      "grantGuardian(address)": {
        "params": {
          "guardian": "new guardian"
        }
      },
      "grantMinter(address)": {
        "params": {
          "minter": "new minter"
        }
      },
      "grantPoolWrapper(address)": {
        "params": {
          "poolWrapper": "new poolWrapper"
        }
      },
      "grantRole(bytes32,address)": {
        "details": "Grants `role` to `account`.     * If `account` had not been already granted `role`, emits a {RoleGranted} event.     * Requirements:     * - the caller must have ``role``'s admin role."
      },
      "hasRole(bytes32,address)": {
        "details": "Returns `true` if `account` has been granted `role`."
      },
      "isBalancer(address)": {
        "params": {
          "_address": "address to check"
        },
        "returns": {
          "_0": "true _address is a balancer"
        }
      },
      "isGovernor(address)": {
        "params": {
          "_address": "address to check"
        },
        "returns": {
          "_0": "true _address is a governor"
        }
      },
      "isGuardian(address)": {
        "params": {
          "_address": "address to check"
        },
        "returns": {
          "_0": "true _address is a guardian"
        }
      },
      "isMinter(address)": {
        "params": {
          "_address": "address to check"
        },
        "returns": {
          "_0": "true _address is a minter"
        }
      },
      "isPoolWrapper(address)": {
        "params": {
          "_address": "address to check"
        },
        "returns": {
          "_0": "true _address is a balancer"
        }
      },
      "renounceRole(bytes32,address)": {
        "details": "Revokes `role` from the calling account.     * Roles are often managed via {grantRole} and {revokeRole}: this function's purpose is to provide a mechanism for accounts to lose their privileges if they are compromised (such as when a trusted device is misplaced).     * If the calling account had been granted `role`, emits a {RoleRevoked} event.     * Requirements:     * - the caller must be `account`."
      },
      "revokeBalancer(address)": {
        "params": {
          "balancer": "ex balancer"
        }
      },
      "revokeGovernor(address)": {
        "params": {
          "governor": "ex governor"
        }
      },
      "revokeGuardian(address)": {
        "params": {
          "guardian": "ex guardian"
        }
      },
      "revokeMinter(address)": {
        "params": {
          "minter": "ex minter"
        }
      },
      "revokeOverride(bytes32,address)": {
        "params": {
          "account": "the address to revoke the role from",
          "role": "the role to revoke"
        }
      },
      "revokePoolWrapper(address)": {
        "params": {
          "poolWrapper": "ex poolWrapper"
        }
      },
      "revokeRole(bytes32,address)": {
        "details": "Revokes `role` from `account`.     * If `account` had been granted `role`, emits a {RoleRevoked} event.     * Requirements:     * - the caller must have ``role``'s admin role."
      },
      "setAUSD(address)": {
        "params": {
          "token": "new ausd address"
        }
      },
      "setArtha(address)": {
        "params": {
          "token": "new Artha address"
        }
      }
    }
  },
  "userdoc": {
    "methods": {
      "allocateArtha(address,uint256)": {
        "notice": "sends AGT tokens from treasury to an address"
      },
      "createRole(bytes32,bytes32)": {
        "notice": "creates a new role to be maintained"
      },
      "grantBalancer(address)": {
        "notice": "grants balancer role to address"
      },
      "grantGovernor(address)": {
        "notice": "grants governor role to address"
      },
      "grantGuardian(address)": {
        "notice": "grants guardian role to address"
      },
      "grantMinter(address)": {
        "notice": "grants minter role to address"
      },
      "grantPoolWrapper(address)": {
        "notice": "grants balancer role to address"
      },
      "isBalancer(address)": {
        "notice": "checks if address is a balancer"
      },
      "isGovernor(address)": {
        "notice": "checks if address is a governor"
      },
      "isGuardian(address)": {
        "notice": "checks if address is a guardian"
      },
      "isMinter(address)": {
        "notice": "checks if address is a minter"
      },
      "isPoolWrapper(address)": {
        "notice": "checks if address is a balancer"
      },
      "revokeBalancer(address)": {
        "notice": "revokes balancer role from address"
      },
      "revokeGovernor(address)": {
        "notice": "revokes governor role from address"
      },
      "revokeGuardian(address)": {
        "notice": "revokes guardian role from address"
      },
      "revokeMinter(address)": {
        "notice": "revokes minter role from address"
      },
      "revokeOverride(bytes32,address)": {
        "notice": "revokes a role from address"
      },
      "revokePoolWrapper(address)": {
        "notice": "revokes balancer role from address"
      },
      "setAUSD(address)": {
        "notice": "sets ausd address to a new address"
      },
      "setArtha(address)": {
        "notice": "sets Artha address to a new address"
      }
    }
  }
}