{
  "contractName": "CoreTeamRewardsDistributor",
  "abi": [
    {
      "inputs": [
        {
          "internalType": "address",
          "name": "_controller",
          "type": "address"
        },
        {
          "internalType": "address",
          "name": "_coreTeam",
          "type": "address"
        },
        {
          "internalType": "uint256",
          "name": "_duration",
          "type": "uint256"
        }
      ],
      "stateMutability": "nonpayable",
      "type": "constructor"
    },
    {
      "anonymous": false,
      "inputs": [
        {
          "indexed": false,
          "internalType": "uint256",
          "name": "_amount",
          "type": "uint256"
        }
      ],
      "name": "ArthaWithdraw",
      "type": "event"
    },
    {
      "anonymous": false,
      "inputs": [
        {
          "indexed": true,
          "internalType": "address",
          "name": "_controller",
          "type": "address"
        }
      ],
      "name": "ControllerUpdate",
      "type": "event"
    },
    {
      "anonymous": false,
      "inputs": [
        {
          "indexed": false,
          "internalType": "uint256",
          "name": "_duration",
          "type": "uint256"
        }
      ],
      "name": "DurationUpdate",
      "type": "event"
    },
    {
      "anonymous": false,
      "inputs": [
        {
          "indexed": false,
          "internalType": "address",
          "name": "account",
          "type": "address"
        }
      ],
      "name": "Paused",
      "type": "event"
    },
    {
      "anonymous": false,
      "inputs": [
        {
          "indexed": false,
          "internalType": "uint256",
          "name": "_startTime",
          "type": "uint256"
        }
      ],
      "name": "TimerReset",
      "type": "event"
    },
    {
      "anonymous": false,
      "inputs": [
        {
          "indexed": false,
          "internalType": "address",
          "name": "account",
          "type": "address"
        }
      ],
      "name": "Unpaused",
      "type": "event"
    },
    {
      "inputs": [],
      "name": "artha",
      "outputs": [
        {
          "internalType": "contract IERC20",
          "name": "",
          "type": "address"
        }
      ],
      "stateMutability": "view",
      "type": "function"
    },
    {
      "inputs": [],
      "name": "arthaBalance",
      "outputs": [
        {
          "internalType": "uint256",
          "name": "",
          "type": "uint256"
        }
      ],
      "stateMutability": "view",
      "type": "function"
    },
    {
      "inputs": [],
      "name": "ausd",
      "outputs": [
        {
          "internalType": "contract IAUSD",
          "name": "",
          "type": "address"
        }
      ],
      "stateMutability": "view",
      "type": "function"
    },
    {
      "inputs": [],
      "name": "ausdBalance",
      "outputs": [
        {
          "internalType": "uint256",
          "name": "",
          "type": "uint256"
        }
      ],
      "stateMutability": "view",
      "type": "function"
    },
    {
      "inputs": [],
      "name": "controller",
      "outputs": [
        {
          "internalType": "contract IController",
          "name": "",
          "type": "address"
        }
      ],
      "stateMutability": "view",
      "type": "function"
    },
    {
      "inputs": [],
      "name": "coreTeam",
      "outputs": [
        {
          "internalType": "address",
          "name": "",
          "type": "address"
        }
      ],
      "stateMutability": "view",
      "type": "function"
    },
    {
      "inputs": [],
      "name": "distributedRewards",
      "outputs": [
        {
          "internalType": "uint256",
          "name": "",
          "type": "uint256"
        }
      ],
      "stateMutability": "view",
      "type": "function"
    },
    {
      "inputs": [],
      "name": "duration",
      "outputs": [
        {
          "internalType": "uint256",
          "name": "",
          "type": "uint256"
        }
      ],
      "stateMutability": "view",
      "type": "function"
    },
    {
      "inputs": [],
      "name": "isTimeEnded",
      "outputs": [
        {
          "internalType": "bool",
          "name": "",
          "type": "bool"
        }
      ],
      "stateMutability": "view",
      "type": "function"
    },
    {
      "inputs": [],
      "name": "isTimeStarted",
      "outputs": [
        {
          "internalType": "bool",
          "name": "",
          "type": "bool"
        }
      ],
      "stateMutability": "view",
      "type": "function"
    },
    {
      "inputs": [],
      "name": "pause",
      "outputs": [],
      "stateMutability": "nonpayable",
      "type": "function"
    },
    {
      "inputs": [],
      "name": "paused",
      "outputs": [
        {
          "internalType": "bool",
          "name": "",
          "type": "bool"
        }
      ],
      "stateMutability": "view",
      "type": "function"
    },
    {
      "inputs": [],
      "name": "remainingTime",
      "outputs": [
        {
          "internalType": "uint256",
          "name": "",
          "type": "uint256"
        }
      ],
      "stateMutability": "view",
      "type": "function"
    },
    {
      "inputs": [
        {
          "internalType": "address",
          "name": "controller",
          "type": "address"
        }
      ],
      "name": "setController",
      "outputs": [],
      "stateMutability": "nonpayable",
      "type": "function"
    },
    {
      "inputs": [],
      "name": "startTime",
      "outputs": [
        {
          "internalType": "uint256",
          "name": "",
          "type": "uint256"
        }
      ],
      "stateMutability": "view",
      "type": "function"
    },
    {
      "inputs": [],
      "name": "timeSinceStart",
      "outputs": [
        {
          "internalType": "uint256",
          "name": "",
          "type": "uint256"
        }
      ],
      "stateMutability": "view",
      "type": "function"
    },
    {
      "inputs": [],
      "name": "unpause",
      "outputs": [],
      "stateMutability": "nonpayable",
      "type": "function"
    },
    {
      "inputs": [],
      "name": "withdraw",
      "outputs": [
        {
          "internalType": "uint256",
          "name": "",
          "type": "uint256"
        }
      ],
      "stateMutability": "nonpayable",
      "type": "function"
    },
    {
      "inputs": [
        {
          "internalType": "uint256",
          "name": "amount",
          "type": "uint256"
        }
      ],
      "name": "governorWithdrawArtha",
      "outputs": [],
      "stateMutability": "nonpayable",
      "type": "function"
    },
    {
      "inputs": [],
      "name": "releasedReward",
      "outputs": [
        {
          "internalType": "uint256",
          "name": "",
          "type": "uint256"
        }
      ],
      "stateMutability": "view",
      "type": "function"
    },
    {
      "inputs": [],
      "name": "totalReward",
      "outputs": [
        {
          "internalType": "uint256",
          "name": "",
          "type": "uint256"
        }
      ],
      "stateMutability": "view",
      "type": "function"
    },
    {
      "inputs": [],
      "name": "rewardBalance",
      "outputs": [
        {
          "internalType": "uint256",
          "name": "",
          "type": "uint256"
        }
      ],
      "stateMutability": "view",
      "type": "function"
    },
    {
      "inputs": [],
      "name": "unreleasedReward",
      "outputs": [
        {
          "internalType": "uint256",
          "name": "",
          "type": "uint256"
        }
      ],
      "stateMutability": "view",
      "type": "function"
    }
  ],
  "bytecode": "0x608060405234801561001057600080fd5b5060405161102a38038061102a8339818101604052606081101561003357600080fd5b50805160208201516040909201519091908281610058816001600160e01b036100a016565b50600280546001600160a81b0319166101006001600160a01b0393841602179055600480546001600160a01b0319169184169190911790556100986100db565b505050610115565b60018190556040805182815290517fef01a748b5b8a4f1d48b88861f6d361d7391ad2bbed27ff97d762889ca80d7379181900360200190a150565b42600081905560408051918252517fd1dbb2ce8081405078443ef34dae718285114121a39370b14ef01b9d2b0a20839181900360200190a1565b610f06806101246000396000f3fe608060405234801561001057600080fd5b506004361061014c5760003560e01c806392eefe9b116100c3578063c252676a1161007c578063c252676a1461023b578063c80cb44314610258578063e142487614610260578063f3e14f1e14610268578063f77c479114610270578063fd1827e2146102785761014c565b806392eefe9b146101d1578063aa5c3ab4146101f7578063acc4bd08146101ff578063ae951b2e14610207578063b617c3bb1461020f578063c23af832146102175761014c565b80635c975abb116101155780635c975abb146101a157806367fc6dea146101a9578063750142e6146101b157806378e97925146101b95780638043c10c146101c15780638456cb59146101c95761014c565b8062d89b33146101515780630d5b00c31461016d5780630fb5a6b4146101875780633ccfd60b1461018f5780633f4ba83a14610197575b600080fd5b610159610280565b604080519115158252519081900360200190f35b610175610289565b60408051918252519081900360200190f35b610175610319565b61017561031f565b61019f6103d4565b005b610159610516565b61017561051f565b610175610553565b610175610574565b61017561057a565b61019f6105dd565b61019f600480360360208110156101e757600080fd5b50356001600160a01b031661071d565b610175610825565b61017561082f565b610159610842565b610175610852565b61021f610884565b604080516001600160a01b039092168252519081900360200190f35b61019f6004803603602081101561025157600080fd5b50356108d4565b610175610a5a565b61021f610a64565b610175610a73565b61021f610a79565b61021f610a8d565b60005415155b90565b6000610293610884565b6001600160a01b03166370a08231306040518263ffffffff1660e01b815260040180826001600160a01b03166001600160a01b0316815260200191505060206040518083038186803b1580156102e857600080fd5b505afa1580156102fc573d6000803e3d6000fd5b505050506040513d602081101561031257600080fd5b5051905090565b60015481565b60008061032a61057a565b600354909150610340908263ffffffff610add16565b60035561034b610a8d565b600480546040805163a9059cbb60e01b81526001600160a01b0392831693810193909352602483018590525192169163a9059cbb916044808201926020929091908290030181600087803b1580156103a257600080fd5b505af11580156103b6573d6000803e3d6000fd5b505050506040513d60208110156103cc57600080fd5b509091505090565b60025460408051631c86b03760e31b815233600482015290516101009092046001600160a01b03169163e43581b891602480820192602092909190829003018186803b15801561042357600080fd5b505afa158015610437573d6000803e3d6000fd5b505050506040513d602081101561044d57600080fd5b5051806104d1575060025460408051630c68ba2160e01b815233600482015290516101009092046001600160a01b031691630c68ba2191602480820192602092909190829003018186803b1580156104a457600080fd5b505afa1580156104b8573d6000803e3d6000fd5b505050506040513d60208110156104ce57600080fd5b50515b61050c5760405162461bcd60e51b8152600401808060200182810382526033815260200180610e566033913960400191505060405180910390fd5b610514610b40565b565b60025460ff1690565b6000610529610280565b61053557506000610286565b600154600054420381811161054a578061054c565b815b9250505090565b600061056f600354610563610825565b9063ffffffff610add16565b905090565b60005481565b600080610585610825565b90506000610591610852565b905061054c816040518060400160405280601f81526020017f506f6f6c3a2052656c65617365642052657761726420756e646572666c6f770081525084610be09092919063ffffffff16565b60025460408051631c86b03760e31b815233600482015290516101009092046001600160a01b03169163e43581b891602480820192602092909190829003018186803b15801561062c57600080fd5b505afa158015610640573d6000803e3d6000fd5b505050506040513d602081101561065657600080fd5b5051806106da575060025460408051630c68ba2160e01b815233600482015290516101009092046001600160a01b031691630c68ba2191602480820192602092909190829003018186803b1580156106ad57600080fd5b505afa1580156106c1573d6000803e3d6000fd5b505050506040513d60208110156106d757600080fd5b50515b6107155760405162461bcd60e51b8152600401808060200182810382526033815260200180610e566033913960400191505060405180910390fd5b610514610c77565b60025460408051631c86b03760e31b815233600482015290516101009092046001600160a01b03169163e43581b891602480820192602092909190829003018186803b15801561076c57600080fd5b505afa158015610780573d6000803e3d6000fd5b505050506040513d602081101561079657600080fd5b50516107d35760405162461bcd60e51b8152600401808060200182810382526027815260200180610e896027913960400191505060405180910390fd5b60028054610100600160a81b0319166101006001600160a01b038416908102919091179091556040517f5b9e04ebd57dd0a9649b6a969291839f2794d18ee0dfe7027b5757db16eb98b690600090a250565b600061056f610a5a565b600061083961051f565b60015403905090565b600061084c61082f565b15905090565b600061085c610842565b1561086957506000610286565b61056f610874610553565b60015461087f61051f565b610cfa565b6000600260019054906101000a90046001600160a01b03166001600160a01b031663c23af8326040518163ffffffff1660e01b815260040160206040518083038186803b1580156102e857600080fd5b60025460408051631c86b03760e31b815233600482015290516101009092046001600160a01b03169163e43581b891602480820192602092909190829003018186803b15801561092357600080fd5b505afa158015610937573d6000803e3d6000fd5b505050506040513d602081101561094d57600080fd5b505161098a5760405162461bcd60e51b8152600401808060200182810382526027815260200180610e896027913960400191505060405180910390fd5b610992610a8d565b6001600160a01b031663a9059cbb6109a8610a79565b836040518363ffffffff1660e01b815260040180836001600160a01b03166001600160a01b0316815260200182815260200192505050602060405180830381600087803b1580156109f857600080fd5b505af1158015610a0c573d6000803e3d6000fd5b505050506040513d6020811015610a2257600080fd5b50506040805182815290517f5bbea09ba6b1607cba7285ad1714be6fc5fee814c635859c581b46dfee0aa8e79181900360200190a150565b6000610293610a8d565b6004546001600160a01b031681565b60035481565b60025461010090046001600160a01b031690565b6000600260019054906101000a90046001600160a01b03166001600160a01b031663fd1827e26040518163ffffffff1660e01b815260040160206040518083038186803b1580156102e857600080fd5b600082820183811015610b37576040805162461bcd60e51b815260206004820152601b60248201527f536166654d6174683a206164646974696f6e206f766572666c6f770000000000604482015290519081900360640190fd5b90505b92915050565b610b48610516565b610b90576040805162461bcd60e51b815260206004820152601460248201527314185d5cd8589b194e881b9bdd081c185d5cd95960621b604482015290519081900360640190fd5b6002805460ff191690557f5db9ee0a495bf2e6ff9c91a7834c1ba4fdd244a5e8aa4e537bd38aeae4b073aa610bc3610d34565b604080516001600160a01b039092168252519081900360200190a1565b60008184841115610c6f5760405162461bcd60e51b81526004018080602001828103825283818151815260200191508051906020019080838360005b83811015610c34578181015183820152602001610c1c565b50505050905090810190601f168015610c615780820380516001836020036101000a031916815260200191505b509250505060405180910390fd5b505050900390565b610c7f610516565b15610cc4576040805162461bcd60e51b815260206004820152601060248201526f14185d5cd8589b194e881c185d5cd95960821b604482015290519081900360640190fd5b6002805460ff191660011790557f62e78cea01bee320cd4e420270b5ea74000d11b0c9f74754ebdbfc544b05a258610bc3610d34565b6000610d2c83610d20610d13828663ffffffff610d3816565b879063ffffffff610d9516565b9063ffffffff610dee16565b949350505050565b3390565b600082821115610d8f576040805162461bcd60e51b815260206004820152601e60248201527f536166654d6174683a207375627472616374696f6e206f766572666c6f770000604482015290519081900360640190fd5b50900390565b600082610da457506000610b3a565b82820282848281610db157fe5b0414610b375760405162461bcd60e51b8152600401808060200182810382526021815260200180610eb06021913960400191505060405180910390fd5b6000808211610e44576040805162461bcd60e51b815260206004820152601a60248201527f536166654d6174683a206469766973696f6e206279207a65726f000000000000604482015290519081900360640190fd5b818381610e4d57fe5b04939250505056fe436f6e74726f6c6c65725265663a2043616c6c6572206973206e6f74206120677561726469616e206f7220676f7665726e6f72436f6e74726f6c6c65725265663a2043616c6c6572206973206e6f74206120676f7665726e6f72536166654d6174683a206d756c7469706c69636174696f6e206f766572666c6f77a2646970667358221220e609f61c0d1a171a9580ea383b281832c3935bff2d744370ec979d297bfc754664736f6c63430006060033",
  "immutableReferences": {},
  "source": "pragma solidity ^0.6.0;\n\n\nimport \"@openzeppelin/contracts/math/Math.sol\";\nimport \"@openzeppelin/contracts/math/SafeMath.sol\";\nimport \"../utils/Timed.sol\";\nimport \"../controller/ControllerRef.sol\";\nimport \"./IRewardsDistributor.sol\";\n\n/// @title Distributor for Artha rewards to the core team\n/// @author Artha Protocol\n/// @notice distributes ARTHA over time at a constant rate\n\ncontract CoreTeamRewardsDistributor is IRewardsDistributor, Timed, ControllerRef {\n\n    using SafeMath for uint256;\n\n\n    uint256 public override distributedRewards;\n\n    address public coreTeam;\n\n    constructor(\n        address _controller,\n        address _coreTeam,\n        uint256 _duration\n    ) public \n        ControllerRef(_controller)\n        Timed(_duration)\n    {\n        coreTeam = _coreTeam;\n\n        _initTimed();\n    }\n\n\n    /// @notice sends the unlocked amount of ARTHA to the core team gnosis safe\n    /// @return amount of ARTHA sent\n    function withdraw() public returns(uint256) {\n\n        uint amount = releasedReward();\n\n        distributedRewards = distributedRewards.add(amount);\n\n        artha().transfer(coreTeam, amount);\n\n        return amount;\n    }\n\n\n    /// @notice sends tokens back to governance treasury. Only callable by governance\n    /// @param amount the amount of tokens to send back to treasury\n    function governorWithdrawArtha(uint256 amount) external override onlyGovernor {\n        artha().transfer(address(controller()), amount);\n        emit ArthaWithdraw(amount);\n    }\n\n    /// @notice the total amount of rewards owned by contract and unlocked for release\n    function releasedReward() public view override returns (uint256) {\n        uint256 total = rewardBalance();\n        uint256 unreleased = unreleasedReward();\n        return total.sub(unreleased, \"Pool: Released Reward underflow\");\n    }\n    \n    /// @notice the total amount of rewards distributed by the contract over entire period\n    function totalReward() public view override returns (uint256) {\n        return rewardBalance().add(distributedRewards);\n    }\n\n    /// @notice the total balance of rewards owned by contract, locked or unlocked\n    function rewardBalance() public view override returns (uint256) {\n        return arthaBalance();\n    }\n\n    /// @notice the total amount of rewards owned by contract and locked\n    function unreleasedReward() public view override returns (uint256) {\n        if (isTimeEnded()) {\n            return 0;\n        }\n        \n        return\n            _unreleasedReward(\n                totalReward(),\n                duration,\n                timeSinceStart()\n            );\n    }\n\n    /// @notice constant vesting calculation and return unreleased reward\n    function _unreleasedReward(\n        uint256 _totalReward,\n        uint256 _duration,\n        uint256 _time\n    ) internal pure returns (uint256) {\n\n        return _totalReward.mul(_duration.sub(_time)).div(_duration);\n    }\n\n}\n",
  "sourcePath": "/Users/parashar/Documents/defi/arthafinance/contracts/rewards/CoreTeamRewardsDistributor.sol",
  "compiler": {
    "name": "solc",
    "version": "0.6.6+commit.6c089d02.Emscripten.clang"
  },
  "schemaVersion": "3.3.4",
  "updatedAt": "2021-06-03T16:05:15.744Z",
  "devdoc": {
    "author": "Artha Protocol",
    "methods": {
      "governorWithdrawArtha(uint256)": {
        "params": {
          "amount": "the amount of tokens to send back to treasury"
        }
      },
      "paused()": {
        "details": "Returns true if the contract is paused, and false otherwise."
      },
      "setController(address)": {
        "params": {
          "controller": "the new controller address"
        }
      },
      "timeSinceStart()": {
        "details": "will be less than or equal to duration",
        "returns": {
          "_0": "timestamp"
        }
      }
    },
    "title": "Distributor for Artha rewards to the core team"
  },
  "userdoc": {
    "methods": {
      "artha()": {
        "notice": "address of the AGT contract referenced by Controller"
      },
      "arthaBalance()": {
        "notice": "Artha balance of contract"
      },
      "ausd()": {
        "notice": "address of the AUSD contract referenced by Controller"
      },
      "ausdBalance()": {
        "notice": "ausd balance of contract"
      },
      "controller()": {
        "notice": "address of the Controller contract referenced"
      },
      "governorWithdrawArtha(uint256)": {
        "notice": "sends tokens back to governance treasury. Only callable by governance"
      },
      "isTimeEnded()": {
        "notice": "return true if time period has ended"
      },
      "pause()": {
        "notice": "set pausable methods to paused"
      },
      "releasedReward()": {
        "notice": "the total amount of rewards owned by contract and unlocked for release"
      },
      "remainingTime()": {
        "notice": "number of seconds remaining until time is up"
      },
      "rewardBalance()": {
        "notice": "the total balance of rewards owned by contract, locked or unlocked"
      },
      "setController(address)": {
        "notice": "set new Controller reference address"
      },
      "timeSinceStart()": {
        "notice": "number of seconds since contract was initialized"
      },
      "totalReward()": {
        "notice": "the total amount of rewards distributed by the contract over entire period"
      },
      "unpause()": {
        "notice": "set pausable methods to unpaused"
      },
      "unreleasedReward()": {
        "notice": "the total amount of rewards owned by contract and locked"
      },
      "withdraw()": {
        "notice": "sends the unlocked amount of ARTHA to the core team gnosis safe"
      }
    },
    "notice": "distributes ARTHA over time at a constant rate"
  }
}