{
  "contractName": "GovernorAlpha",
  "abi": [
    {
      "inputs": [
        {
          "internalType": "address",
          "name": "timelock_",
          "type": "address"
        },
        {
          "internalType": "address",
          "name": "artha_",
          "type": "address"
        },
        {
          "internalType": "address",
          "name": "guardian_",
          "type": "address"
        }
      ],
      "stateMutability": "nonpayable",
      "type": "constructor"
    },
    {
      "anonymous": false,
      "inputs": [
        {
          "indexed": false,
          "internalType": "uint256",
          "name": "id",
          "type": "uint256"
        }
      ],
      "name": "ProposalCanceled",
      "type": "event"
    },
    {
      "anonymous": false,
      "inputs": [
        {
          "indexed": false,
          "internalType": "uint256",
          "name": "id",
          "type": "uint256"
        },
        {
          "indexed": false,
          "internalType": "address",
          "name": "proposer",
          "type": "address"
        },
        {
          "indexed": false,
          "internalType": "address[]",
          "name": "targets",
          "type": "address[]"
        },
        {
          "indexed": false,
          "internalType": "uint256[]",
          "name": "values",
          "type": "uint256[]"
        },
        {
          "indexed": false,
          "internalType": "string[]",
          "name": "signatures",
          "type": "string[]"
        },
        {
          "indexed": false,
          "internalType": "bytes[]",
          "name": "calldatas",
          "type": "bytes[]"
        },
        {
          "indexed": false,
          "internalType": "uint256",
          "name": "startBlock",
          "type": "uint256"
        },
        {
          "indexed": false,
          "internalType": "uint256",
          "name": "endBlock",
          "type": "uint256"
        },
        {
          "indexed": false,
          "internalType": "string",
          "name": "description",
          "type": "string"
        }
      ],
      "name": "ProposalCreated",
      "type": "event"
    },
    {
      "anonymous": false,
      "inputs": [
        {
          "indexed": false,
          "internalType": "uint256",
          "name": "id",
          "type": "uint256"
        }
      ],
      "name": "ProposalExecuted",
      "type": "event"
    },
    {
      "anonymous": false,
      "inputs": [
        {
          "indexed": false,
          "internalType": "uint256",
          "name": "id",
          "type": "uint256"
        },
        {
          "indexed": false,
          "internalType": "uint256",
          "name": "eta",
          "type": "uint256"
        }
      ],
      "name": "ProposalQueued",
      "type": "event"
    },
    {
      "anonymous": false,
      "inputs": [
        {
          "indexed": false,
          "internalType": "address",
          "name": "voter",
          "type": "address"
        },
        {
          "indexed": false,
          "internalType": "uint256",
          "name": "proposalId",
          "type": "uint256"
        },
        {
          "indexed": false,
          "internalType": "bool",
          "name": "support",
          "type": "bool"
        },
        {
          "indexed": false,
          "internalType": "uint256",
          "name": "votes",
          "type": "uint256"
        }
      ],
      "name": "VoteCast",
      "type": "event"
    },
    {
      "inputs": [],
      "name": "BALLOT_TYPEHASH",
      "outputs": [
        {
          "internalType": "bytes32",
          "name": "",
          "type": "bytes32"
        }
      ],
      "stateMutability": "view",
      "type": "function"
    },
    {
      "inputs": [],
      "name": "DOMAIN_TYPEHASH",
      "outputs": [
        {
          "internalType": "bytes32",
          "name": "",
          "type": "bytes32"
        }
      ],
      "stateMutability": "view",
      "type": "function"
    },
    {
      "inputs": [],
      "name": "artha",
      "outputs": [
        {
          "internalType": "contract ArthaInterface",
          "name": "",
          "type": "address"
        }
      ],
      "stateMutability": "view",
      "type": "function"
    },
    {
      "inputs": [],
      "name": "guardian",
      "outputs": [
        {
          "internalType": "address",
          "name": "",
          "type": "address"
        }
      ],
      "stateMutability": "view",
      "type": "function"
    },
    {
      "inputs": [
        {
          "internalType": "address",
          "name": "",
          "type": "address"
        }
      ],
      "name": "latestProposalIds",
      "outputs": [
        {
          "internalType": "uint256",
          "name": "",
          "type": "uint256"
        }
      ],
      "stateMutability": "view",
      "type": "function"
    },
    {
      "inputs": [],
      "name": "name",
      "outputs": [
        {
          "internalType": "string",
          "name": "",
          "type": "string"
        }
      ],
      "stateMutability": "view",
      "type": "function"
    },
    {
      "inputs": [],
      "name": "proposalCount",
      "outputs": [
        {
          "internalType": "uint256",
          "name": "",
          "type": "uint256"
        }
      ],
      "stateMutability": "view",
      "type": "function"
    },
    {
      "inputs": [
        {
          "internalType": "uint256",
          "name": "",
          "type": "uint256"
        }
      ],
      "name": "proposals",
      "outputs": [
        {
          "internalType": "uint256",
          "name": "id",
          "type": "uint256"
        },
        {
          "internalType": "address",
          "name": "proposer",
          "type": "address"
        },
        {
          "internalType": "uint256",
          "name": "eta",
          "type": "uint256"
        },
        {
          "internalType": "uint256",
          "name": "startBlock",
          "type": "uint256"
        },
        {
          "internalType": "uint256",
          "name": "endBlock",
          "type": "uint256"
        },
        {
          "internalType": "uint256",
          "name": "forVotes",
          "type": "uint256"
        },
        {
          "internalType": "uint256",
          "name": "againstVotes",
          "type": "uint256"
        },
        {
          "internalType": "bool",
          "name": "canceled",
          "type": "bool"
        },
        {
          "internalType": "bool",
          "name": "executed",
          "type": "bool"
        }
      ],
      "stateMutability": "view",
      "type": "function"
    },
    {
      "inputs": [],
      "name": "timelock",
      "outputs": [
        {
          "internalType": "contract TimelockInterface",
          "name": "",
          "type": "address"
        }
      ],
      "stateMutability": "view",
      "type": "function"
    },
    {
      "inputs": [],
      "name": "quorumVotes",
      "outputs": [
        {
          "internalType": "uint256",
          "name": "",
          "type": "uint256"
        }
      ],
      "stateMutability": "pure",
      "type": "function"
    },
    {
      "inputs": [],
      "name": "proposalThreshold",
      "outputs": [
        {
          "internalType": "uint256",
          "name": "",
          "type": "uint256"
        }
      ],
      "stateMutability": "pure",
      "type": "function"
    },
    {
      "inputs": [],
      "name": "proposalMaxOperations",
      "outputs": [
        {
          "internalType": "uint256",
          "name": "",
          "type": "uint256"
        }
      ],
      "stateMutability": "pure",
      "type": "function"
    },
    {
      "inputs": [],
      "name": "votingDelay",
      "outputs": [
        {
          "internalType": "uint256",
          "name": "",
          "type": "uint256"
        }
      ],
      "stateMutability": "pure",
      "type": "function"
    },
    {
      "inputs": [],
      "name": "votingPeriod",
      "outputs": [
        {
          "internalType": "uint256",
          "name": "",
          "type": "uint256"
        }
      ],
      "stateMutability": "pure",
      "type": "function"
    },
    {
      "inputs": [
        {
          "internalType": "address[]",
          "name": "targets",
          "type": "address[]"
        },
        {
          "internalType": "uint256[]",
          "name": "values",
          "type": "uint256[]"
        },
        {
          "internalType": "string[]",
          "name": "signatures",
          "type": "string[]"
        },
        {
          "internalType": "bytes[]",
          "name": "calldatas",
          "type": "bytes[]"
        },
        {
          "internalType": "string",
          "name": "description",
          "type": "string"
        }
      ],
      "name": "propose",
      "outputs": [
        {
          "internalType": "uint256",
          "name": "",
          "type": "uint256"
        }
      ],
      "stateMutability": "nonpayable",
      "type": "function"
    },
    {
      "inputs": [
        {
          "internalType": "uint256",
          "name": "proposalId",
          "type": "uint256"
        }
      ],
      "name": "queue",
      "outputs": [],
      "stateMutability": "nonpayable",
      "type": "function"
    },
    {
      "inputs": [
        {
          "internalType": "uint256",
          "name": "proposalId",
          "type": "uint256"
        }
      ],
      "name": "execute",
      "outputs": [],
      "stateMutability": "payable",
      "type": "function"
    },
    {
      "inputs": [
        {
          "internalType": "uint256",
          "name": "proposalId",
          "type": "uint256"
        }
      ],
      "name": "cancel",
      "outputs": [],
      "stateMutability": "nonpayable",
      "type": "function"
    },
    {
      "inputs": [
        {
          "internalType": "uint256",
          "name": "proposalId",
          "type": "uint256"
        }
      ],
      "name": "getActions",
      "outputs": [
        {
          "internalType": "address[]",
          "name": "targets",
          "type": "address[]"
        },
        {
          "internalType": "uint256[]",
          "name": "values",
          "type": "uint256[]"
        },
        {
          "internalType": "string[]",
          "name": "signatures",
          "type": "string[]"
        },
        {
          "internalType": "bytes[]",
          "name": "calldatas",
          "type": "bytes[]"
        }
      ],
      "stateMutability": "view",
      "type": "function"
    },
    {
      "inputs": [
        {
          "internalType": "uint256",
          "name": "proposalId",
          "type": "uint256"
        },
        {
          "internalType": "address",
          "name": "voter",
          "type": "address"
        }
      ],
      "name": "getReceipt",
      "outputs": [
        {
          "components": [
            {
              "internalType": "bool",
              "name": "hasVoted",
              "type": "bool"
            },
            {
              "internalType": "bool",
              "name": "support",
              "type": "bool"
            },
            {
              "internalType": "uint96",
              "name": "votes",
              "type": "uint96"
            }
          ],
          "internalType": "struct GovernorAlpha.Receipt",
          "name": "",
          "type": "tuple"
        }
      ],
      "stateMutability": "view",
      "type": "function"
    },
    {
      "inputs": [
        {
          "internalType": "uint256",
          "name": "proposalId",
          "type": "uint256"
        }
      ],
      "name": "state",
      "outputs": [
        {
          "internalType": "enum GovernorAlpha.ProposalState",
          "name": "",
          "type": "uint8"
        }
      ],
      "stateMutability": "view",
      "type": "function"
    },
    {
      "inputs": [
        {
          "internalType": "uint256",
          "name": "proposalId",
          "type": "uint256"
        },
        {
          "internalType": "bool",
          "name": "support",
          "type": "bool"
        }
      ],
      "name": "castVote",
      "outputs": [],
      "stateMutability": "nonpayable",
      "type": "function"
    },
    {
      "inputs": [
        {
          "internalType": "uint256",
          "name": "proposalId",
          "type": "uint256"
        },
        {
          "internalType": "bool",
          "name": "support",
          "type": "bool"
        },
        {
          "internalType": "uint8",
          "name": "v",
          "type": "uint8"
        },
        {
          "internalType": "bytes32",
          "name": "r",
          "type": "bytes32"
        },
        {
          "internalType": "bytes32",
          "name": "s",
          "type": "bytes32"
        }
      ],
      "name": "castVoteBySig",
      "outputs": [],
      "stateMutability": "nonpayable",
      "type": "function"
    },
    {
      "inputs": [],
      "name": "__acceptAdmin",
      "outputs": [],
      "stateMutability": "nonpayable",
      "type": "function"
    },
    {
      "inputs": [],
      "name": "__abdicate",
      "outputs": [],
      "stateMutability": "nonpayable",
      "type": "function"
    },
    {
      "inputs": [
        {
          "internalType": "address",
          "name": "newGuardian",
          "type": "address"
        }
      ],
      "name": "__transferGuardian",
      "outputs": [],
      "stateMutability": "nonpayable",
      "type": "function"
    },
    {
      "inputs": [
        {
          "internalType": "address",
          "name": "newPendingAdmin",
          "type": "address"
        },
        {
          "internalType": "uint256",
          "name": "eta",
          "type": "uint256"
        }
      ],
      "name": "__queueSetTimelockPendingAdmin",
      "outputs": [],
      "stateMutability": "nonpayable",
      "type": "function"
    },
    {
      "inputs": [
        {
          "internalType": "address",
          "name": "newPendingAdmin",
          "type": "address"
        },
        {
          "internalType": "uint256",
          "name": "eta",
          "type": "uint256"
        }
      ],
      "name": "__executeSetTimelockPendingAdmin",
      "outputs": [],
      "stateMutability": "nonpayable",
      "type": "function"
    }
  ],
  "bytecode": "0x60806040523480156200001157600080fd5b50604051620031c8380380620031c8833981016040819052620000349162000077565b600080546001600160a01b039485166001600160a01b031991821617909155600180549385169382169390931790925560028054919093169116179055620000e3565b6000806000606084860312156200008c578283fd5b83516200009981620000ca565b6020850151909350620000ac81620000ca565b6040850151909250620000bf81620000ca565b809150509250925092565b6001600160a01b0381168114620000e057600080fd5b50565b6130d580620000f36000396000f3fe6080604052600436106101b75760003560e01c80634634c61f116100ec578063da35c6641161008a578063deaaa7cc11610064578063deaaa7cc1461049c578063e23a9a52146104b1578063fd1827e2146104de578063fe0d94c1146104f3576101b7565b8063da35c66414610447578063da95691a1461045c578063ddf0b0091461047c576101b7565b806391500671116100c657806391500671146103e8578063b58131b014610408578063b9a619611461041d578063d33219b414610432576101b7565b80634634c61f1461039e578063760fbc13146103be5780637bdbe4d0146103d3576101b7565b806321f43e42116101595780633932abb1116101335780633932abb11461031a5780633e4f49e61461032f57806340e58ee51461035c578063452a93201461037c576101b7565b806321f43e42146102b557806324bc1a64146102d5578063328dd982146102ea576101b7565b806315373e3d1161019557806315373e3d1461023e57806317977c61146102605780631afef6e41461028057806320606b70146102a0576101b7565b8063013cf08b146101bc57806302a251a3146101fa57806306fdde031461021c575b600080fd5b3480156101c857600080fd5b506101dc6101d736600461242f565b610506565b6040516101f199989796959493929190612f94565b60405180910390f35b34801561020657600080fd5b5061020f61055f565b6040516101f191906128e8565b34801561022857600080fd5b50610231610566565b6040516101f1919061295f565b34801561024a57600080fd5b5061025e610259366004612473565b610596565b005b34801561026c57600080fd5b5061020f61027b366004612274565b6105a5565b34801561028c57600080fd5b5061025e61029b366004612274565b6105b7565b3480156102ac57600080fd5b5061020f61060c565b3480156102c157600080fd5b5061025e6102d036600461228f565b610623565b3480156102e157600080fd5b5061020f610701565b3480156102f657600080fd5b5061030a61030536600461242f565b610710565b6040516101f19493929190612891565b34801561032657600080fd5b5061020f61099f565b34801561033b57600080fd5b5061034f61034a36600461242f565b6109a5565b6040516101f1919061294b565b34801561036857600080fd5b5061025e61037736600461242f565b610b27565b34801561038857600080fd5b50610391610da5565b6040516101f19190612742565b3480156103aa57600080fd5b5061025e6103b93660046124a2565b610db4565b3480156103ca57600080fd5b5061025e610f48565b3480156103df57600080fd5b5061020f610f84565b3480156103f457600080fd5b5061025e61040336600461228f565b610f89565b34801561041457600080fd5b5061020f61105e565b34801561042957600080fd5b5061025e61106d565b34801561043e57600080fd5b506103916110f2565b34801561045357600080fd5b5061020f611101565b34801561046857600080fd5b5061020f6104773660046122b9565b611107565b34801561048857600080fd5b5061025e61049736600461242f565b611527565b3480156104a857600080fd5b5061020f611791565b3480156104bd57600080fd5b506104d16104cc366004612447565b61179d565b6040516101f19190612ed0565b3480156104ea57600080fd5b5061039161180c565b61025e61050136600461242f565b61181b565b6004602052600090815260409020805460018201546002830154600784015460088501546009860154600a870154600b9097015495966001600160a01b0390951695939492939192909160ff8082169161010090041689565b6127105b90565b60405180604001604052806014815260200173417274686120476f7665726e6f7220416c70686160601b81525081565b6105a13383836119e0565b5050565b60056020526000908152604090205481565b6002546001600160a01b031633146105ea5760405162461bcd60e51b81526004016105e190612c1e565b60405180910390fd5b600280546001600160a01b0319166001600160a01b0392909216919091179055565b604051610618906126ae565b604051809103902081565b6002546001600160a01b0316331461064d5760405162461bcd60e51b81526004016105e190612c1e565b600080546040516001600160a01b0390911691630825f38f91839190610677908790602001612742565b604051602081830303815290604052856040518563ffffffff1660e01b81526004016106a6949392919061276f565b600060405180830381600087803b1580156106c057600080fd5b505af11580156106d4573d6000803e3d6000fd5b505050506040513d6000823e601f3d908101601f191682016040526106fc91908101906123b9565b505050565b6a14adf4b7320334b900000090565b6060806060806000600460008781526020019081526020016000209050806003018160040182600501836006018380548060200260200160405190810160405280929190818152602001828054801561079257602002820191906000526020600020905b81546001600160a01b03168152600190910190602001808311610774575b50505050509350828054806020026020016040519081016040528092919081815260200182805480156107e457602002820191906000526020600020905b8154815260200190600101908083116107d0575b5050505050925081805480602002602001604051908101604052809291908181526020016000905b828210156108b75760008481526020908190208301805460408051601f60026000196101006001871615020190941693909304928301859004850281018501909152818152928301828280156108a35780601f10610878576101008083540402835291602001916108a3565b820191906000526020600020905b81548152906001019060200180831161088657829003601f168201915b50505050508152602001906001019061080c565b50505050915080805480602002602001604051908101604052809291908181526020016000905b828210156109895760008481526020908190208301805460408051601f60026000196101006001871615020190941693909304928301859004850281018501909152818152928301828280156109755780601f1061094a57610100808354040283529160200191610975565b820191906000526020600020905b81548152906001019060200180831161095857829003601f168201915b5050505050815260200190600101906108de565b5050505090509450945094509450509193509193565b610d0590565b600081600354101580156109b95750600082115b6109d55760405162461bcd60e51b81526004016105e190612aae565b6000828152600460205260409020600b81015460ff16156109fa576002915050610b22565b80600701544311610a0f576000915050610b22565b80600801544311610a24576001915050610b22565b80600a01548160090154111580610a455750610a3e610701565b8160090154105b15610a54576003915050610b22565b6002810154610a67576004915050610b22565b600b810154610100900460ff1615610a83576007915050610b22565b6002810154600054604080516360d143f160e11b81529051610b0c93926001600160a01b03169163c1a287e2916004808301926020929190829003018186803b158015610acf57600080fd5b505afa158015610ae3573d6000803e3d6000fd5b505050506040513d601f19601f82011682018060405250810190610b0791906123a1565b611ba9565b4210610b1c576006915050610b22565b60059150505b919050565b6000610b32826109a5565b90506001816007811115610b4257fe5b1480610b5957506000816007811115610b5757fe5b145b610b755760405162461bcd60e51b81526004016105e190612e73565b60008281526004602052604090206002546001600160a01b0316331480610c405750610b9f61105e565b60018054838201546001600160a01b039182169263782d6fe19290911690610bc8904390611bd5565b6040518363ffffffff1660e01b8152600401610be5929190612756565b60206040518083038186803b158015610bfd57600080fd5b505afa158015610c11573d6000803e3d6000fd5b505050506040513d601f19601f82011682018060405250810190610c3591906124f8565b6001600160601b0316105b610c5c5760405162461bcd60e51b81526004016105e190612972565b600b8101805460ff1916600117905560005b6003820154811015610d68576000546003830180546001600160a01b039092169163591fcdfe919084908110610ca057fe5b6000918252602090912001546004850180546001600160a01b039092169185908110610cc857fe5b9060005260206000200154856005018581548110610ce257fe5b90600052602060002001866006018681548110610cfb57fe5b9060005260206000200187600201546040518663ffffffff1660e01b8152600401610d2a959493929190612858565b600060405180830381600087803b158015610d4457600080fd5b505af1158015610d58573d6000803e3d6000fd5b505060019092019150610c6e9050565b507f789cf55be980739dad1d0699b93b58e806b51c9d96619bfa8fe0a28abaa7b30c83604051610d9891906128e8565b60405180910390a1505050565b6002546001600160a01b031681565b6000604051610dc2906126ae565b604080519182900382208282019091526014825273417274686120476f7665726e6f7220416c70686160601b6020909201919091527f04dc5ca7b6c41245eeae40d0bfac89ec53e6ef1aa5e8ef9c6ba44ce5968ecc66610e20611bfd565b30604051602001610e3494939291906128f1565b6040516020818303038152906040528051906020012090506000604051610e5a90612709565b604051908190038120610e739189908990602001612915565b60405160208183030381529060405280519060200120905060008282604051602001610ea0929190612693565b604051602081830303815290604052805190602001209050600060018288888860405160008152602001604052604051610edd949392919061292d565b6020604051602081039080840390855afa158015610eff573d6000803e3d6000fd5b5050604051601f1901519150506001600160a01b038116610f325760405162461bcd60e51b81526004016105e190612e0f565b610f3d818a8a6119e0565b505050505050505050565b6002546001600160a01b03163314610f725760405162461bcd60e51b81526004016105e190612c1e565b600280546001600160a01b0319169055565b600a90565b6002546001600160a01b03163314610fb35760405162461bcd60e51b81526004016105e190612c1e565b600080546040516001600160a01b0390911691633a66f90191839190610fdd908790602001612742565b604051602081830303815290604052856040518563ffffffff1660e01b815260040161100c949392919061276f565b602060405180830381600087803b15801561102657600080fd5b505af115801561103a573d6000803e3d6000fd5b505050506040513d601f19601f820116820180604052508101906106fc91906123a1565b6a021165458500521280000090565b6002546001600160a01b031633146110975760405162461bcd60e51b81526004016105e190612c1e565b6000805460408051630e18b68160e01b815290516001600160a01b0390921692630e18b6819260048084019382900301818387803b1580156110d857600080fd5b505af11580156110ec573d6000803e3d6000fd5b50505050565b6000546001600160a01b031681565b60035481565b600061111161105e565b600180546001600160a01b03169063782d6fe1903390611132904390611bd5565b6040518363ffffffff1660e01b815260040161114f929190612756565b60206040518083038186803b15801561116757600080fd5b505afa15801561117b573d6000803e3d6000fd5b505050506040513d601f19601f8201168201806040525081019061119f91906124f8565b6001600160601b0316116111c55760405162461bcd60e51b81526004016105e190612a58565b845186511480156111d7575083518651145b80156111e4575082518651145b6112005760405162461bcd60e51b81526004016105e190612c68565b855161121e5760405162461bcd60e51b81526004016105e190612bdb565b611226610f84565b865111156112465760405162461bcd60e51b81526004016105e190612d4d565b3360009081526005602052604090205480156112c3576000611267826109a5565b9050600181600781111561127757fe5b14156112955760405162461bcd60e51b81526004016105e190612af0565b60008160078111156112a357fe5b14156112c15760405162461bcd60e51b81526004016105e190612b65565b505b60006112d143610b0761099f565b905060006112e182610b0761055f565b60038054600101905590506112f4611d60565b604051806101a001604052806003548152602001336001600160a01b03168152602001600081526020018b81526020018a815260200189815260200188815260200184815260200183815260200160008152602001600081526020016000151581526020016000151581525090508060046000836000015181526020019081526020016000206000820151816000015560208201518160010160006101000a8154816001600160a01b0302191690836001600160a01b031602179055506040820151816002015560608201518160030190805190602001906113d7929190611dd5565b50608082015180516113f3916004840191602090910190611e3a565b5060a0820151805161140f916005840191602090910190611e81565b5060c0820151805161142b916006840191602090910190611eda565b5060e082015181600701556101008201518160080155610120820151816009015561014082015181600a015561016082015181600b0160006101000a81548160ff02191690831515021790555061018082015181600b0160016101000a81548160ff02191690831515021790555090505080600001516005600083602001516001600160a01b03166001600160a01b03168152602001908152602001600020819055507f7d84a6263ae0d98d3329bd7b46bb4e8d6f98cd35a7adb45c274c8b7fd5ebd5e08160000151338c8c8c8c89898e60405161151199989796959493929190612efe565b60405180910390a1519998505050505050505050565b6004611532826109a5565b600781111561153d57fe5b1461155a5760405162461bcd60e51b81526004016105e190612cf0565b600081815260046020818152604080842084548251630d48571f60e31b815292519195946115af9442946001600160a01b0390931693636a42b8f8938084019390829003018186803b158015610acf57600080fd5b905060005b60038301548110156117575761174f8360030182815481106115d257fe5b6000918252602090912001546004850180546001600160a01b0390921691849081106115fa57fe5b906000526020600020015485600501848154811061161457fe5b600091825260209182902001805460408051601f60026000196101006001871615020190941693909304928301859004850281018501909152818152928301828280156116a25780601f10611677576101008083540402835291602001916116a2565b820191906000526020600020905b81548152906001019060200180831161168557829003601f168201915b50505050508660060185815481106116b657fe5b600091825260209182902001805460408051601f60026000196101006001871615020190941693909304928301859004850281018501909152818152928301828280156117445780601f1061171957610100808354040283529160200191611744565b820191906000526020600020905b81548152906001019060200180831161172757829003601f168201915b505050505086611c01565b6001016115b4565b50600282018190556040517f9a2e42fd6722813d69113e7d0079d3d940171428df7373df9c7f7617cfda289290610d989085908490612fe0565b60405161061890612709565b6117a5611f33565b5060008281526004602090815260408083206001600160a01b0385168452600c018252918290208251606081018452905460ff80821615158352610100820416151592820192909252620100009091046001600160601b0316918101919091525b92915050565b6001546001600160a01b031681565b6005611826826109a5565b600781111561183157fe5b1461184e5760405162461bcd60e51b81526004016105e1906129b9565b6000818152600460205260408120600b8101805461ff001916610100179055905b60038201548110156119a4576000546004830180546001600160a01b0390921691630825f38f9190849081106118a157fe5b90600052602060002001548460030184815481106118bb57fe5b6000918252602090912001546004860180546001600160a01b0390921691869081106118e357fe5b90600052602060002001548660050186815481106118fd57fe5b9060005260206000200187600601878154811061191657fe5b9060005260206000200188600201546040518763ffffffff1660e01b8152600401611945959493929190612858565b6000604051808303818588803b15801561195e57600080fd5b505af1158015611972573d6000803e3d6000fd5b50505050506040513d6000823e601f3d908101601f1916820160405261199b91908101906123b9565b5060010161186f565b507f712ae1383f79ac853f8d882153778e0260ef8f03b504e2866e0593e04d2b291f826040516119d491906128e8565b60405180910390a15050565b60016119eb836109a5565b60078111156119f657fe5b14611a135760405162461bcd60e51b81526004016105e190612dd8565b60008281526004602090815260408083206001600160a01b0387168452600c8101909252909120805460ff1615611a5c5760405162461bcd60e51b81526004016105e190612a16565b600154600783015460405163782d6fe160e01b81526000926001600160a01b03169163782d6fe191611a92918a91600401612756565b60206040518083038186803b158015611aaa57600080fd5b505afa158015611abe573d6000803e3d6000fd5b505050506040513d601f19601f82011682018060405250810190611ae291906124f8565b90508315611b0b57611b018360090154826001600160601b0316611ba9565b6009840155611b28565b611b2283600a0154826001600160601b0316611ba9565b600a8401555b8154600160ff199091161761ff00191661010085151502176dffffffffffffffffffffffff00001916620100006001600160601b038316021782556040517f877856338e13f63d0c36822ff0ef736b80934cd90574a3a5bc9262c39d217c4690611b999088908890889086906127db565b60405180910390a1505050505050565b600082820183811015611bce5760405162461bcd60e51b81526004016105e190612cc5565b9392505050565b600082821115611bf75760405162461bcd60e51b81526004016105e190612e44565b50900390565b4690565b6000546040516001600160a01b039091169063f2b0653790611c2f908890889088908890889060200161280c565b604051602081830303815290604052805190602001206040518263ffffffff1660e01b8152600401611c6191906128e8565b60206040518083038186803b158015611c7957600080fd5b505afa158015611c8d573d6000803e3d6000fd5b505050506040513d601f19601f82011682018060405250810190611cb19190612385565b15611cce5760405162461bcd60e51b81526004016105e190612d84565b600054604051633a66f90160e01b81526001600160a01b0390911690633a66f90190611d06908890889088908890889060040161280c565b602060405180830381600087803b158015611d2057600080fd5b505af1158015611d34573d6000803e3d6000fd5b505050506040513d601f19601f82011682018060405250810190611d5891906123a1565b505050505050565b604051806101a001604052806000815260200160006001600160a01b031681526020016000815260200160608152602001606081526020016060815260200160608152602001600081526020016000815260200160008152602001600081526020016000151581526020016000151581525090565b828054828255906000526020600020908101928215611e2a579160200282015b82811115611e2a57825182546001600160a01b0319166001600160a01b03909116178255602090920191600190910190611df5565b50611e36929150611f53565b5090565b828054828255906000526020600020908101928215611e75579160200282015b82811115611e75578251825591602001919060010190611e5a565b50611e36929150611f77565b828054828255906000526020600020908101928215611ece579160200282015b82811115611ece5782518051611ebe918491602090910190611f91565b5091602001919060010190611ea1565b50611e36929150611ffe565b828054828255906000526020600020908101928215611f27579160200282015b82811115611f275782518051611f17918491602090910190611f91565b5091602001919060010190611efa565b50611e36929150612021565b604080516060810182526000808252602082018190529181019190915290565b61056391905b80821115611e365780546001600160a01b0319168155600101611f59565b61056391905b80821115611e365760008155600101611f7d565b828054600181600116156101000203166002900490600052602060002090601f016020900481019282601f10611fd257805160ff1916838001178555611e75565b82800160010185558215611e755791820182811115611e75578251825591602001919060010190611e5a565b61056391905b80821115611e365760006120188282612044565b50600101612004565b61056391905b80821115611e3657600061203b8282612044565b50600101612027565b50805460018160011615610100020316600290046000825580601f1061206a5750612088565b601f0160209004906000526020600020908101906120889190611f77565b50565b80356001600160a01b038116811461180657600080fd5b600082601f8301126120b2578081fd5b81356120c56120c082613015565b612fee565b8181529150602080830190848101818402860182018710156120e657600080fd5b60005b8481101561210d576120fb888361208b565b845292820192908201906001016120e9565b505050505092915050565b600082601f830112612128578081fd5b81356121366120c082613015565b818152915060208083019084810160005b8481101561210d5761215e888484358a0101612226565b84529282019290820190600101612147565b600082601f830112612180578081fd5b813561218e6120c082613015565b818152915060208083019084810160005b8481101561210d576121b6888484358a0101612226565b8452928201929082019060010161219f565b600082601f8301126121d8578081fd5b81356121e66120c082613015565b81815291506020808301908481018184028601820187101561220757600080fd5b60005b8481101561210d5781358452928201929082019060010161220a565b600082601f830112612236578081fd5b81356122446120c082613035565b915080825283602082850101111561225b57600080fd5b8060208401602084013760009082016020015292915050565b600060208284031215612285578081fd5b611bce838361208b565b600080604083850312156122a1578081fd5b6122ab848461208b565b946020939093013593505050565b600080600080600060a086880312156122d0578081fd5b853567ffffffffffffffff808211156122e7578283fd5b6122f389838a016120a2565b96506020880135915080821115612308578283fd5b61231489838a016121c8565b95506040880135915080821115612329578283fd5b61233589838a01612170565b9450606088013591508082111561234a578283fd5b61235689838a01612118565b9350608088013591508082111561236b578283fd5b5061237888828901612226565b9150509295509295909350565b600060208284031215612396578081fd5b8151611bce81613091565b6000602082840312156123b2578081fd5b5051919050565b6000602082840312156123ca578081fd5b815167ffffffffffffffff8111156123e0578182fd5b80830184601f8201126123f1578283fd5b805191506124016120c083613035565b828152856020848401011115612415578384fd5b612426836020830160208501613065565b95945050505050565b600060208284031215612440578081fd5b5035919050565b60008060408385031215612459578182fd5b8235915061246a846020850161208b565b90509250929050565b60008060408385031215612485578182fd5b82359150602083013561249781613091565b809150509250929050565b600080600080600060a086880312156124b9578283fd5b8535945060208601356124cb81613091565b9350604086013560ff811681146124e0578384fd5b94979396509394606081013594506080013592915050565b600060208284031215612509578081fd5b81516001600160601b0381168114611bce578182fd5b6000815180845260208085019450808401835b838110156125575781516001600160a01b031687529582019590820190600101612532565b509495945050505050565b6000815180845260208085018081965082840281019150828601855b858110156125a85782840389526125968483516125e4565b9885019893509084019060010161257e565b5091979650505050505050565b6000815180845260208085019450808401835b83811015612557578151875295820195908201906001016125c8565b600081518084526125fc816020860160208601613065565b601f01601f19169290920160200192915050565b6000815460018082166000811461262e576001811461264c5761268a565b60028304607f16865260ff198316602087015260408601935061268a565b6002830480875261265c86613059565b60005b828110156126805781546020828b010152848201915060208101905061265f565b8801602001955050505b50505092915050565b61190160f01b81526002810192909252602282015260420190565b7f454950373132446f6d61696e28737472696e67206e616d652c75696e7432353681527f20636861696e49642c6164647265737320766572696679696e67436f6e74726160208201526263742960e81b604082015260430190565b7f42616c6c6f742875696e743235362070726f706f73616c49642c626f6f6c20738152667570706f72742960c81b602082015260270190565b6001600160a01b0391909116815260200190565b6001600160a01b03929092168252602082015260400190565b600060018060a01b038616825284602083015260a06040830152601860a08301527f73657450656e64696e6741646d696e286164647265737329000000000000000060c083015260e060608301526127ca60e08301856125e4565b905082608083015295945050505050565b6001600160a01b039490941684526020840192909252151560408301526001600160601b0316606082015260800190565b600060018060a01b038716825285602083015260a0604083015261283360a08301866125e4565b828103606084015261284581866125e4565b9150508260808301529695505050505050565b600060018060a01b038716825285602083015260a0604083015261287f60a0830186612610565b82810360608401526128458186612610565b6000608082526128a4608083018761251f565b82810360208401526128b681876125b5565b83810360408501526128c88187612562565b91505082810360608401526128dd8185612562565b979650505050505050565b90815260200190565b938452602084019290925260408301526001600160a01b0316606082015260800190565b92835260208301919091521515604082015260600190565b93845260ff9290921660208401526040830152606082015260800190565b602081016008831061295957fe5b91905290565b600060208252611bce60208301846125e4565b60208082526027908201527f476f7665726e6f72416c7068613a2070726f706f7365722061626f76652074686040820152661c995cda1bdb1960ca1b606082015260800190565b6020808252603c908201527f476f7665726e6f72416c7068613a2070726f706f73616c2063616e206f6e6c7960408201527f2062652065786563757465642069662069742069732071756575656400000000606082015260800190565b60208082526022908201527f476f7665726e6f72416c7068613a20766f74657220616c726561647920766f74604082015261195960f21b606082015260800190565b60208082526036908201527f476f7665726e6f72416c7068613a2070726f706f73657220766f7465732062656040820152751b1bddc81c1c9bdc1bdcd85b081d1a1c995cda1bdb1960521b606082015260800190565b60208082526022908201527f476f7665726e6f72416c7068613a20696e76616c69642070726f706f73616c206040820152611a5960f21b606082015260800190565b6020808252604f908201527f476f7665726e6f72416c7068613a206f6e65206c6976652070726f706f73616c60408201527f207065722070726f706f7365722c20666f756e6420616e20616c72656164792060608201526e1858dd1a5d99481c1c9bdc1bdcd85b608a1b608082015260a00190565b60208082526050908201527f476f7665726e6f72416c7068613a206f6e65206c6976652070726f706f73616c60408201527f207065722070726f706f7365722c20666f756e6420616e20616c72656164792060608201526f1c195b991a5b99c81c1c9bdc1bdcd85b60821b608082015260a00190565b60208082526023908201527f476f7665726e6f72416c7068613a206d7573742070726f7669646520616374696040820152626f6e7360e81b606082015260800190565b6020808252602a908201527f476f7665726e6f72416c7068613a2073656e646572206d75737420626520676f6040820152693b1033bab0b93234b0b760b11b606082015260800190565b6020808252603b908201527f476f7665726e6f72416c7068613a2070726f706f73616c2066756e6374696f6e60408201527f20696e666f726d6174696f6e206172697479206d69736d617463680000000000606082015260800190565b6020808252601190820152706164646974696f6e206f766572666c6f7760781b604082015260600190565b6020808252603d908201527f476f7665726e6f72416c7068613a2070726f706f73616c2063616e206f6e6c7960408201527f2062652071756575656420696620697420697320737563636565646564000000606082015260800190565b6020808252601f908201527f476f7665726e6f72416c7068613a20746f6f206d616e7920616374696f6e7300604082015260600190565b60208082526034908201527f476f7665726e6f72416c7068613a2070726f706f73616c20616374696f6e20616040820152736c7265616479207175657565642061742065746160601b606082015260800190565b6020808252601f908201527f476f7665726e6f72416c7068613a20766f74696e6720697320636c6f73656400604082015260600190565b6020808252818101527f476f7665726e6f72416c7068613a20696e76616c6964207369676e6174757265604082015260600190565b6020808252601590820152747375627472616374696f6e20756e646572666c6f7760581b604082015260600190565b60208082526039908201527f476f7665726e6f72416c7068613a2063616e206f6e6c792063616e63656c204160408201527f6374697665206f722050656e64696e672050726f706f73616c00000000000000606082015260800190565b8151151581526020808301511515908201526040918201516001600160601b03169181019190915260600190565b8981526001600160a01b038916602082015261012060408201819052600090612f298382018b61251f565b8381036060850152612f3b818b6125b5565b9150508281036080840152612f508189612562565b83810360a0850152612f628189612562565b9150508560c08401528460e0840152828103610100840152612f8481856125e4565b9c9b505050505050505050505050565b9889526001600160a01b0397909716602089015260408801959095526060870193909352608086019190915260a085015260c0840152151560e083015215156101008201526101200190565b918252602082015260400190565b60405181810167ffffffffffffffff8111828210171561300d57600080fd5b604052919050565b600067ffffffffffffffff82111561302b578081fd5b5060209081020190565b600067ffffffffffffffff82111561304b578081fd5b50601f01601f191660200190565b60009081526020902090565b60005b83811015613080578181015183820152602001613068565b838111156110ec5750506000910152565b801515811461208857600080fdfea26469706673582212202166b187a9d4b1d8a25672b10da4bf6b3d71ffd0e04a9b94d260e1cf4400a3d964736f6c63430006060033",
  "immutableReferences": {},
  "source": "pragma solidity ^0.6.0;\npragma experimental ABIEncoderV2;\n\n// Forked from Compound\n// See https://github.com/compound-finance/compound-protocol/blob/master/contracts/Governance/GovernorAlpha.sol\ncontract GovernorAlpha {\n    /// @notice The name of this contract\n    // solhint-disable-next-line const-name-snakecase\n    string public constant name = \"Artha Governor Alpha\";\n\n    /// @notice The number of votes in support of a proposal required in order for a quorum to be reached and for a vote to succeed\n    function quorumVotes() public pure returns (uint) { return 25000000e18; } // 25,000,000 = 2.5% of ARTHA\n\n    /// @notice The number of votes required in order for a voter to become a proposer\n    function proposalThreshold() public pure returns (uint) { return 2500000e18; } // 2,500,000 = .25% of ARTHA\n\n    /// @notice The maximum number of actions that can be included in a proposal\n    function proposalMaxOperations() public pure returns (uint) { return 10; } // 10 actions\n\n    /// @notice The delay before voting on a proposal may take place, once proposed\n    function votingDelay() public pure returns (uint) { return 3333; } // ~0.5 days in blocks (assuming 13s blocks)\n\n    /// @notice The duration of voting on a proposal, in blocks\n    function votingPeriod() public pure returns (uint) { return 10000; } // ~1.5 days in blocks (assuming 13s blocks)\n\n    /// @notice The address of the Artha Protocol Timelock\n    TimelockInterface public timelock;\n\n    /// @notice The address of the Artha governance token\n    ArthaInterface public artha;\n\n    /// @notice The address of the Governor Guardian\n    address public guardian;\n\n    /// @notice The total number of proposals\n    uint public proposalCount;\n\n    struct Proposal {\n        /// @notice Unique id for looking up a proposal\n        uint id;\n\n        /// @notice Creator of the proposal\n        address proposer;\n\n        /// @notice The timestamp that the proposal will be available for execution, set once the vote succeeds\n        uint eta;\n\n        /// @notice the ordered list of target addresses for calls to be made\n        address[] targets;\n\n        /// @notice The ordered list of values (i.e. msg.value) to be passed to the calls to be made\n        uint[] values;\n\n        /// @notice The ordered list of function signatures to be called\n        string[] signatures;\n\n        /// @notice The ordered list of calldata to be passed to each call\n        bytes[] calldatas;\n\n        /// @notice The block at which voting begins: holders must delegate their votes prior to this block\n        uint startBlock;\n\n        /// @notice The block at which voting ends: votes must be cast prior to this block\n        uint endBlock;\n\n        /// @notice Current number of votes in favor of this proposal\n        uint forVotes;\n\n        /// @notice Current number of votes in opposition to this proposal\n        uint againstVotes;\n\n        /// @notice Flag marking whether the proposal has been canceled\n        bool canceled;\n\n        /// @notice Flag marking whether the proposal has been executed\n        bool executed;\n\n        /// @notice Receipts of ballots for the entire set of voters\n        mapping (address => Receipt) receipts;\n    }\n\n    /// @notice Ballot receipt record for a voter\n    struct Receipt {\n        /// @notice Whether or not a vote has been cast\n        bool hasVoted;\n\n        /// @notice Whether or not the voter supports the proposal\n        bool support;\n\n        /// @notice The number of votes the voter had, which were cast\n        uint96 votes;\n    }\n\n    /// @notice Possible states that a proposal may be in\n    enum ProposalState {\n        Pending,\n        Active,\n        Canceled,\n        Defeated,\n        Succeeded,\n        Queued,\n        Expired,\n        Executed\n    }\n\n    /// @notice The official record of all proposals ever proposed\n    mapping (uint => Proposal) public proposals;\n\n    /// @notice The latest proposal for each proposer\n    mapping (address => uint) public latestProposalIds;\n\n    /// @notice The EIP-712 typehash for the contract's domain\n    bytes32 public constant DOMAIN_TYPEHASH = keccak256(\"EIP712Domain(string name,uint256 chainId,address verifyingContract)\");\n\n    /// @notice The EIP-712 typehash for the ballot struct used by the contract\n    bytes32 public constant BALLOT_TYPEHASH = keccak256(\"Ballot(uint256 proposalId,bool support)\");\n\n    /// @notice An event emitted when a new proposal is created\n    event ProposalCreated(uint id, address proposer, address[] targets, uint[] values, string[] signatures, bytes[] calldatas, uint startBlock, uint endBlock, string description);\n\n    /// @notice An event emitted when a vote has been cast on a proposal\n    event VoteCast(address voter, uint proposalId, bool support, uint votes);\n\n    /// @notice An event emitted when a proposal has been canceled\n    event ProposalCanceled(uint id);\n\n    /// @notice An event emitted when a proposal has been queued in the Timelock\n    event ProposalQueued(uint id, uint eta);\n\n    /// @notice An event emitted when a proposal has been executed in the Timelock\n    event ProposalExecuted(uint id);\n\n    constructor(address timelock_, address artha_, address guardian_) public {\n        timelock = TimelockInterface(timelock_);\n        artha = ArthaInterface(artha_);\n        guardian = guardian_;\n    }\n\n    function propose(address[] memory targets, uint[] memory values, string[] memory signatures, bytes[] memory calldatas, string memory description) public returns (uint) {\n        require(artha.getPriorVotes(msg.sender, sub256(block.number, 1)) > proposalThreshold(), \"GovernorAlpha: proposer votes below proposal threshold\");\n        require(targets.length == values.length && targets.length == signatures.length && targets.length == calldatas.length, \"GovernorAlpha: proposal function information arity mismatch\");\n        require(targets.length != 0, \"GovernorAlpha: must provide actions\");\n        require(targets.length <= proposalMaxOperations(), \"GovernorAlpha: too many actions\");\n\n        uint latestProposalId = latestProposalIds[msg.sender];\n        if (latestProposalId != 0) {\n          ProposalState proposersLatestProposalState = state(latestProposalId);\n          require(proposersLatestProposalState != ProposalState.Active, \"GovernorAlpha: one live proposal per proposer, found an already active proposal\");\n          require(proposersLatestProposalState != ProposalState.Pending, \"GovernorAlpha: one live proposal per proposer, found an already pending proposal\");\n        }\n\n        uint startBlock = add256(block.number, votingDelay());\n        uint endBlock = add256(startBlock, votingPeriod());\n\n        proposalCount++;\n        Proposal memory newProposal = Proposal({\n            id: proposalCount,\n            proposer: msg.sender,\n            eta: 0,\n            targets: targets,\n            values: values,\n            signatures: signatures,\n            calldatas: calldatas,\n            startBlock: startBlock,\n            endBlock: endBlock,\n            forVotes: 0,\n            againstVotes: 0,\n            canceled: false,\n            executed: false\n        });\n\n        proposals[newProposal.id] = newProposal;\n        latestProposalIds[newProposal.proposer] = newProposal.id;\n\n        emit ProposalCreated(newProposal.id, msg.sender, targets, values, signatures, calldatas, startBlock, endBlock, description);\n        return newProposal.id;\n    }\n\n    function queue(uint proposalId) public {\n        require(state(proposalId) == ProposalState.Succeeded, \"GovernorAlpha: proposal can only be queued if it is succeeded\");\n        Proposal storage proposal = proposals[proposalId];\n        // solhint-disable-next-line not-rely-on-time\n        uint eta = add256(block.timestamp, timelock.delay());\n        for (uint i = 0; i < proposal.targets.length; i++) {\n            _queueOrRevert(proposal.targets[i], proposal.values[i], proposal.signatures[i], proposal.calldatas[i], eta);\n        }\n        proposal.eta = eta;\n        emit ProposalQueued(proposalId, eta);\n    }\n\n    function _queueOrRevert(address target, uint value, string memory signature, bytes memory data, uint eta) internal {\n        require(!timelock.queuedTransactions(keccak256(abi.encode(target, value, signature, data, eta))), \"GovernorAlpha: proposal action already queued at eta\");\n        timelock.queueTransaction(target, value, signature, data, eta);\n    }\n\n    function execute(uint proposalId) public payable {\n        require(state(proposalId) == ProposalState.Queued, \"GovernorAlpha: proposal can only be executed if it is queued\");\n        Proposal storage proposal = proposals[proposalId];\n        proposal.executed = true;\n        for (uint i = 0; i < proposal.targets.length; i++) {\n            timelock.executeTransaction{value : proposal.values[i]}(proposal.targets[i], proposal.values[i], proposal.signatures[i], proposal.calldatas[i], proposal.eta);\n        }\n        emit ProposalExecuted(proposalId);\n    }\n\n    function cancel(uint proposalId) public {\n        ProposalState state = state(proposalId);\n        require(state == ProposalState.Active || state == ProposalState.Pending, \"GovernorAlpha: can only cancel Active or Pending Proposal\");\n\n        Proposal storage proposal = proposals[proposalId];\n        require(msg.sender == guardian || artha.getPriorVotes(proposal.proposer, sub256(block.number, 1)) < proposalThreshold(), \"GovernorAlpha: proposer above threshold\");\n\n        proposal.canceled = true;\n        for (uint i = 0; i < proposal.targets.length; i++) {\n            timelock.cancelTransaction(proposal.targets[i], proposal.values[i], proposal.signatures[i], proposal.calldatas[i], proposal.eta);\n        }\n\n        emit ProposalCanceled(proposalId);\n    }\n\n    function getActions(uint proposalId) public view returns (address[] memory targets, uint[] memory values, string[] memory signatures, bytes[] memory calldatas) {\n        Proposal storage p = proposals[proposalId];\n        return (p.targets, p.values, p.signatures, p.calldatas);\n    }\n\n    function getReceipt(uint proposalId, address voter) public view returns (Receipt memory) {\n        return proposals[proposalId].receipts[voter];\n    }\n\n    function state(uint proposalId) public view returns (ProposalState) {\n        require(proposalCount >= proposalId && proposalId > 0, \"GovernorAlpha: invalid proposal id\");\n        Proposal storage proposal = proposals[proposalId];\n        if (proposal.canceled) {\n            return ProposalState.Canceled;\n        } else if (block.number <= proposal.startBlock) {\n            return ProposalState.Pending;\n        } else if (block.number <= proposal.endBlock) {\n            return ProposalState.Active;\n        } else if (proposal.forVotes <= proposal.againstVotes || proposal.forVotes < quorumVotes()) {\n            return ProposalState.Defeated;\n        } else if (proposal.eta == 0) {\n            return ProposalState.Succeeded;\n        } else if (proposal.executed) {\n            return ProposalState.Executed;\n        // solhint-disable-next-line not-rely-on-time\n        } else if (block.timestamp >= add256(proposal.eta, timelock.GRACE_PERIOD())) {\n            return ProposalState.Expired;\n        } else {\n            return ProposalState.Queued;\n        }\n    }\n\n    function castVote(uint proposalId, bool support) public {\n        return _castVote(msg.sender, proposalId, support);\n    }\n\n    function castVoteBySig(uint proposalId, bool support, uint8 v, bytes32 r, bytes32 s) public {\n        bytes32 domainSeparator = keccak256(abi.encode(DOMAIN_TYPEHASH, keccak256(bytes(name)), getChainId(), address(this)));\n        bytes32 structHash = keccak256(abi.encode(BALLOT_TYPEHASH, proposalId, support));\n        bytes32 digest = keccak256(abi.encodePacked(\"\\x19\\x01\", domainSeparator, structHash));\n        address signatory = ecrecover(digest, v, r, s);\n        require(signatory != address(0), \"GovernorAlpha: invalid signature\");\n        return _castVote(signatory, proposalId, support);\n    }\n\n    function _castVote(address voter, uint proposalId, bool support) internal {\n        require(state(proposalId) == ProposalState.Active, \"GovernorAlpha: voting is closed\");\n        Proposal storage proposal = proposals[proposalId];\n        Receipt storage receipt = proposal.receipts[voter];\n        require(receipt.hasVoted == false, \"GovernorAlpha: voter already voted\");\n        uint96 votes = artha.getPriorVotes(voter, proposal.startBlock);\n\n        if (support) {\n            proposal.forVotes = add256(proposal.forVotes, votes);\n        } else {\n            proposal.againstVotes = add256(proposal.againstVotes, votes);\n        }\n\n        receipt.hasVoted = true;\n        receipt.support = support;\n        receipt.votes = votes;\n\n        emit VoteCast(voter, proposalId, support, votes);\n    }\n\n    function __acceptAdmin() public {\n        require(msg.sender == guardian, \"GovernorAlpha: sender must be gov guardian\");\n        timelock.acceptAdmin();\n    }\n\n    function __abdicate() public {\n        require(msg.sender == guardian, \"GovernorAlpha: sender must be gov guardian\");\n        guardian = address(0);\n    }\n\n    function __transferGuardian(address newGuardian) public {\n        require(msg.sender == guardian, \"GovernorAlpha: sender must be gov guardian\");\n        guardian = newGuardian;\n    }\n\n    function __queueSetTimelockPendingAdmin(address newPendingAdmin, uint eta) public {\n        require(msg.sender == guardian, \"GovernorAlpha: sender must be gov guardian\");\n        timelock.queueTransaction(address(timelock), 0, \"setPendingAdmin(address)\", abi.encode(newPendingAdmin), eta);\n    }\n\n    function __executeSetTimelockPendingAdmin(address newPendingAdmin, uint eta) public {\n        require(msg.sender == guardian, \"GovernorAlpha: sender must be gov guardian\");\n        timelock.executeTransaction(address(timelock), 0, \"setPendingAdmin(address)\", abi.encode(newPendingAdmin), eta);\n    }\n\n    function add256(uint256 a, uint256 b) internal pure returns (uint) {\n        uint c = a + b;\n        require(c >= a, \"addition overflow\");\n        return c;\n    }\n\n    function sub256(uint256 a, uint256 b) internal pure returns (uint) {\n        require(b <= a, \"subtraction underflow\");\n        return a - b;\n    }\n\n    function getChainId() internal pure returns (uint) {\n        uint chainId;\n        // solhint-disable-next-line no-inline-assembly\n        assembly { chainId := chainid() }\n        return chainId;\n    }\n}\n\ninterface TimelockInterface {\n    function delay() external view returns (uint);\n    // solhint-disable-next-line func-name-mixedcase\n    function GRACE_PERIOD() external view returns (uint);\n    function acceptAdmin() external;\n    function queuedTransactions(bytes32 hash) external view returns (bool);\n    function queueTransaction(address target, uint value, string calldata signature, bytes calldata data, uint eta) external returns (bytes32);\n    function cancelTransaction(address target, uint value, string calldata signature, bytes calldata data, uint eta) external;\n    function executeTransaction(address target, uint value, string calldata signature, bytes calldata data, uint eta) external payable returns (bytes memory);\n}\n\ninterface ArthaInterface {\n    function getPriorVotes(address account, uint blockNumber) external view returns (uint96);\n}",
  "sourcePath": "/Users/parashar/Documents/defi/arthafinance/contracts/dao/Governance.sol",
  "compiler": {
    "name": "solc",
    "version": "0.6.6+commit.6c089d02.Emscripten.clang"
  },
  "schemaVersion": "3.3.4",
  "updatedAt": "2021-06-03T16:05:15.669Z",
  "devdoc": {
    "methods": {}
  },
  "userdoc": {
    "methods": {
      "proposalMaxOperations()": {
        "notice": "The maximum number of actions that can be included in a proposal"
      },
      "proposalThreshold()": {
        "notice": "The number of votes required in order for a voter to become a proposer"
      },
      "quorumVotes()": {
        "notice": "The number of votes in support of a proposal required in order for a quorum to be reached and for a vote to succeed"
      },
      "votingDelay()": {
        "notice": "The delay before voting on a proposal may take place, once proposed"
      },
      "votingPeriod()": {
        "notice": "The duration of voting on a proposal, in blocks"
      }
    }
  }
}