{
  "contractName": "Permissions",
  "abi": [
    {
      "inputs": [],
      "stateMutability": "nonpayable",
      "type": "constructor"
    },
    {
      "anonymous": false,
      "inputs": [
        {
          "indexed": true,
          "internalType": "bytes32",
          "name": "role",
          "type": "bytes32"
        },
        {
          "indexed": true,
          "internalType": "bytes32",
          "name": "previousAdminRole",
          "type": "bytes32"
        },
        {
          "indexed": true,
          "internalType": "bytes32",
          "name": "newAdminRole",
          "type": "bytes32"
        }
      ],
      "name": "RoleAdminChanged",
      "type": "event"
    },
    {
      "anonymous": false,
      "inputs": [
        {
          "indexed": true,
          "internalType": "bytes32",
          "name": "role",
          "type": "bytes32"
        },
        {
          "indexed": true,
          "internalType": "address",
          "name": "account",
          "type": "address"
        },
        {
          "indexed": true,
          "internalType": "address",
          "name": "sender",
          "type": "address"
        }
      ],
      "name": "RoleGranted",
      "type": "event"
    },
    {
      "anonymous": false,
      "inputs": [
        {
          "indexed": true,
          "internalType": "bytes32",
          "name": "role",
          "type": "bytes32"
        },
        {
          "indexed": true,
          "internalType": "address",
          "name": "account",
          "type": "address"
        },
        {
          "indexed": true,
          "internalType": "address",
          "name": "sender",
          "type": "address"
        }
      ],
      "name": "RoleRevoked",
      "type": "event"
    },
    {
      "inputs": [],
      "name": "BALANCER_ROLE",
      "outputs": [
        {
          "internalType": "bytes32",
          "name": "",
          "type": "bytes32"
        }
      ],
      "stateMutability": "view",
      "type": "function"
    },
    {
      "inputs": [],
      "name": "DEFAULT_ADMIN_ROLE",
      "outputs": [
        {
          "internalType": "bytes32",
          "name": "",
          "type": "bytes32"
        }
      ],
      "stateMutability": "view",
      "type": "function"
    },
    {
      "inputs": [],
      "name": "GOVERN_ROLE",
      "outputs": [
        {
          "internalType": "bytes32",
          "name": "",
          "type": "bytes32"
        }
      ],
      "stateMutability": "view",
      "type": "function"
    },
    {
      "inputs": [],
      "name": "GUARDIAN_ROLE",
      "outputs": [
        {
          "internalType": "bytes32",
          "name": "",
          "type": "bytes32"
        }
      ],
      "stateMutability": "view",
      "type": "function"
    },
    {
      "inputs": [],
      "name": "MINTER_ROLE",
      "outputs": [
        {
          "internalType": "bytes32",
          "name": "",
          "type": "bytes32"
        }
      ],
      "stateMutability": "view",
      "type": "function"
    },
    {
      "inputs": [],
      "name": "POOL_WRAPPER_ROLE",
      "outputs": [
        {
          "internalType": "bytes32",
          "name": "",
          "type": "bytes32"
        }
      ],
      "stateMutability": "view",
      "type": "function"
    },
    {
      "inputs": [
        {
          "internalType": "bytes32",
          "name": "role",
          "type": "bytes32"
        }
      ],
      "name": "getRoleAdmin",
      "outputs": [
        {
          "internalType": "bytes32",
          "name": "",
          "type": "bytes32"
        }
      ],
      "stateMutability": "view",
      "type": "function"
    },
    {
      "inputs": [
        {
          "internalType": "bytes32",
          "name": "role",
          "type": "bytes32"
        },
        {
          "internalType": "uint256",
          "name": "index",
          "type": "uint256"
        }
      ],
      "name": "getRoleMember",
      "outputs": [
        {
          "internalType": "address",
          "name": "",
          "type": "address"
        }
      ],
      "stateMutability": "view",
      "type": "function"
    },
    {
      "inputs": [
        {
          "internalType": "bytes32",
          "name": "role",
          "type": "bytes32"
        }
      ],
      "name": "getRoleMemberCount",
      "outputs": [
        {
          "internalType": "uint256",
          "name": "",
          "type": "uint256"
        }
      ],
      "stateMutability": "view",
      "type": "function"
    },
    {
      "inputs": [
        {
          "internalType": "bytes32",
          "name": "role",
          "type": "bytes32"
        },
        {
          "internalType": "address",
          "name": "account",
          "type": "address"
        }
      ],
      "name": "grantRole",
      "outputs": [],
      "stateMutability": "nonpayable",
      "type": "function"
    },
    {
      "inputs": [
        {
          "internalType": "bytes32",
          "name": "role",
          "type": "bytes32"
        },
        {
          "internalType": "address",
          "name": "account",
          "type": "address"
        }
      ],
      "name": "hasRole",
      "outputs": [
        {
          "internalType": "bool",
          "name": "",
          "type": "bool"
        }
      ],
      "stateMutability": "view",
      "type": "function"
    },
    {
      "inputs": [
        {
          "internalType": "bytes32",
          "name": "role",
          "type": "bytes32"
        },
        {
          "internalType": "address",
          "name": "account",
          "type": "address"
        }
      ],
      "name": "renounceRole",
      "outputs": [],
      "stateMutability": "nonpayable",
      "type": "function"
    },
    {
      "inputs": [
        {
          "internalType": "bytes32",
          "name": "role",
          "type": "bytes32"
        },
        {
          "internalType": "address",
          "name": "account",
          "type": "address"
        }
      ],
      "name": "revokeRole",
      "outputs": [],
      "stateMutability": "nonpayable",
      "type": "function"
    },
    {
      "inputs": [
        {
          "internalType": "bytes32",
          "name": "role",
          "type": "bytes32"
        },
        {
          "internalType": "bytes32",
          "name": "adminRole",
          "type": "bytes32"
        }
      ],
      "name": "createRole",
      "outputs": [],
      "stateMutability": "nonpayable",
      "type": "function"
    },
    {
      "inputs": [
        {
          "internalType": "address",
          "name": "minter",
          "type": "address"
        }
      ],
      "name": "grantMinter",
      "outputs": [],
      "stateMutability": "nonpayable",
      "type": "function"
    },
    {
      "inputs": [
        {
          "internalType": "address",
          "name": "governor",
          "type": "address"
        }
      ],
      "name": "grantGovernor",
      "outputs": [],
      "stateMutability": "nonpayable",
      "type": "function"
    },
    {
      "inputs": [
        {
          "internalType": "address",
          "name": "guardian",
          "type": "address"
        }
      ],
      "name": "grantGuardian",
      "outputs": [],
      "stateMutability": "nonpayable",
      "type": "function"
    },
    {
      "inputs": [
        {
          "internalType": "address",
          "name": "balancer",
          "type": "address"
        }
      ],
      "name": "grantBalancer",
      "outputs": [],
      "stateMutability": "nonpayable",
      "type": "function"
    },
    {
      "inputs": [
        {
          "internalType": "address",
          "name": "poolWrapper",
          "type": "address"
        }
      ],
      "name": "grantPoolWrapper",
      "outputs": [],
      "stateMutability": "nonpayable",
      "type": "function"
    },
    {
      "inputs": [
        {
          "internalType": "address",
          "name": "minter",
          "type": "address"
        }
      ],
      "name": "revokeMinter",
      "outputs": [],
      "stateMutability": "nonpayable",
      "type": "function"
    },
    {
      "inputs": [
        {
          "internalType": "address",
          "name": "governor",
          "type": "address"
        }
      ],
      "name": "revokeGovernor",
      "outputs": [],
      "stateMutability": "nonpayable",
      "type": "function"
    },
    {
      "inputs": [
        {
          "internalType": "address",
          "name": "guardian",
          "type": "address"
        }
      ],
      "name": "revokeGuardian",
      "outputs": [],
      "stateMutability": "nonpayable",
      "type": "function"
    },
    {
      "inputs": [
        {
          "internalType": "address",
          "name": "balancer",
          "type": "address"
        }
      ],
      "name": "revokeBalancer",
      "outputs": [],
      "stateMutability": "nonpayable",
      "type": "function"
    },
    {
      "inputs": [
        {
          "internalType": "address",
          "name": "poolWrapper",
          "type": "address"
        }
      ],
      "name": "revokePoolWrapper",
      "outputs": [],
      "stateMutability": "nonpayable",
      "type": "function"
    },
    {
      "inputs": [
        {
          "internalType": "bytes32",
          "name": "role",
          "type": "bytes32"
        },
        {
          "internalType": "address",
          "name": "account",
          "type": "address"
        }
      ],
      "name": "revokeOverride",
      "outputs": [],
      "stateMutability": "nonpayable",
      "type": "function"
    },
    {
      "inputs": [
        {
          "internalType": "address",
          "name": "_address",
          "type": "address"
        }
      ],
      "name": "isMinter",
      "outputs": [
        {
          "internalType": "bool",
          "name": "",
          "type": "bool"
        }
      ],
      "stateMutability": "view",
      "type": "function"
    },
    {
      "inputs": [
        {
          "internalType": "address",
          "name": "_address",
          "type": "address"
        }
      ],
      "name": "isGovernor",
      "outputs": [
        {
          "internalType": "bool",
          "name": "",
          "type": "bool"
        }
      ],
      "stateMutability": "view",
      "type": "function"
    },
    {
      "inputs": [
        {
          "internalType": "address",
          "name": "_address",
          "type": "address"
        }
      ],
      "name": "isGuardian",
      "outputs": [
        {
          "internalType": "bool",
          "name": "",
          "type": "bool"
        }
      ],
      "stateMutability": "view",
      "type": "function"
    },
    {
      "inputs": [
        {
          "internalType": "address",
          "name": "_address",
          "type": "address"
        }
      ],
      "name": "isBalancer",
      "outputs": [
        {
          "internalType": "bool",
          "name": "",
          "type": "bool"
        }
      ],
      "stateMutability": "view",
      "type": "function"
    },
    {
      "inputs": [
        {
          "internalType": "address",
          "name": "_address",
          "type": "address"
        }
      ],
      "name": "isPoolWrapper",
      "outputs": [
        {
          "internalType": "bool",
          "name": "",
          "type": "bool"
        }
      ],
      "stateMutability": "view",
      "type": "function"
    }
  ],
  "bytecode": "0x60806040523480156200001157600080fd5b5062000026306001600160e01b03620000b416565b620000666040516200003890620002d2565b60405180910390206040516200004e90620002bb565b6040519081900390206001600160e01b03620000e216565b620000786040516200003890620002bb565b6200008a604051620000389062000285565b6200009c60405162000038906200026c565b620000ae60405162000038906200029e565b620002e9565b620000df604051620000c690620002bb565b604051908190039020826001600160e01b036200013416565b50565b600082815260208190526040808220600201549051839285917fbd79b86ffe0ab8e8776151514217cd7cacd52c909f66475c3af44e129f0b00ff9190a460009182526020829052604090912060020155565b6200014982826001600160e01b036200014d16565b5050565b6000828152602081815260409091206200017291839062000a5f620001cf821b17901c565b1562000149576200018b6001600160e01b03620001f816565b6001600160a01b0316816001600160a01b0316837f2f8788117e7eff1d82e926ec794901d17c78024a50270940304540a733656f0d60405160405180910390a45050565b6000620001ef836001600160a01b0384166001600160e01b03620001fc16565b90505b92915050565b3390565b60006200021383836001600160e01b036200025416565b6200024b57508154600181810184556000848152602080822090930184905584548482528286019093526040902091909155620001f2565b506000620001f2565b60009081526001919091016020526040902054151590565b6c42414c414e4345525f524f4c4560981b8152600d0190565b6c475541524449414e5f524f4c4560981b8152600d0190565b70504f4f4c5f575241505045525f524f4c4560781b815260110190565b6a474f5645524e5f524f4c4560a81b8152600b0190565b6a4d494e5445525f524f4c4560a81b8152600b0190565b610f8c80620002f96000396000f3fe608060405234801561001057600080fd5b50600436106101da5760003560e01c806391d1485411610104578063ca15c873116100a2578063d539139311610071578063d5391393146103c8578063d547741f146103d0578063e43581b8146103e3578063e6eb982f146103f6576101da565b8063ca15c87314610387578063cdb532051461039a578063cfbd4885146103ad578063cffdeacc146103c0576101da565b8063a217fddf116100de578063a217fddf14610346578063a58f180e1461034e578063aa271e1a14610361578063af648c3d14610374576101da565b806391d148541461030d57806394b1d2c014610320578063992651e814610333576101da565b80632f2ff15d1161017c578063395c62e81161014b578063395c62e8146102b45780634c9f9384146102c757806369467e2f146102da5780639010d07c146102ed576101da565b80632f2ff15d1461027e57806330d3c5341461029157806336568abe1461029957806338b7f446146102ac576101da565b806324099a14116101b857806324099a1414610230578063248a9ca31461024357806324ea54f414610263578063261707fa1461026b576101da565b8063080bf57c146101df5780630c68ba21146101f457806319c7f5361461021d575b600080fd5b6101f26101ed366004610c39565b610409565b005b610207610202366004610bfa565b6104c5565b6040516102149190610d25565b60405180910390f35b61020761022b366004610bfa565b6104ea565b6101f261023e366004610bfa565b6104fb565b610256610251366004610c21565b610540565b6040516102149190610d30565b610256610555565b6101f2610279366004610bfa565b61056c565b6101f261028c366004610c39565b6105aa565b6102566105f2565b6101f26102a7366004610c39565b6105fe565b610256610640565b6101f26102c2366004610bfa565b61064c565b6101f26102d5366004610c73565b610680565b6101f26102e8366004610bfa565b6106af565b6103006102fb366004610c73565b6106e3565b6040516102149190610d11565b61020761031b366004610c39565b610708565b6101f261032e366004610bfa565b610726565b6101f2610341366004610bfa565b61075a565b61025661078e565b6101f261035c366004610bfa565b610793565b61020761036f366004610bfa565b6107c7565b6101f2610382366004610bfa565b6107d8565b610256610395366004610c21565b61080c565b6102076103a8366004610bfa565b610823565b6101f26103bb366004610bfa565b610834565b610256610868565b610256610874565b6101f26103de366004610c39565b610880565b6102076103f1366004610bfa565b6108ba565b6101f2610404366004610bfa565b6108cb565b610412336104c5565b6104375760405162461bcd60e51b815260040161042e90610e76565b60405180910390fd5b60405161044390610ce3565b604051809103902082141561046a5760405162461bcd60e51b815260040161042e90610ebb565b60405163d547741f60e01b8152309063d547741f9061048f9085908590600401610d39565b600060405180830381600087803b1580156104a957600080fd5b505af11580156104bd573d6000803e3d6000fd5b505050505050565b60006104e46040516104d690610cad565b604051809103902083610708565b92915050565b60006104e46040516104d690610cc6565b610504336108ba565b6105205760405162461bcd60e51b815260040161042e90610d92565b61053d60405161052f90610cc6565b604051809103902082610880565b50565b60009081526020819052604090206002015490565b60405161056190610cad565b604051809103902081565b610575336108ba565b6105915760405162461bcd60e51b815260040161042e90610d92565b61053d6040516105a090610cfa565b6040518091039020825b6000828152602081905260409020600201546105c89061031b6108ff565b6105e45760405162461bcd60e51b815260040161042e90610dd7565b6105ee8282610903565b5050565b60405161056190610c94565b6106066108ff565b6001600160a01b0316816001600160a01b0316146106365760405162461bcd60e51b815260040161042e90610f07565b6105ee8282610972565b60405161056190610ce3565b610655336108ba565b6106715760405162461bcd60e51b815260040161042e90610d92565b61053d6040516105a090610ce3565b610689336108ba565b6106a55760405162461bcd60e51b815260040161042e90610d92565b6105ee82826109e1565b6106b8336108ba565b6106d45760405162461bcd60e51b815260040161042e90610d92565b61053d6040516105a090610c94565b6000828152602081905260408120610701908363ffffffff610a3316565b9392505050565b6000828152602081905260408120610701908363ffffffff610a3f16565b61072f336108ba565b61074b5760405162461bcd60e51b815260040161042e90610d92565b61053d6040516105a090610cad565b610763336108ba565b61077f5760405162461bcd60e51b815260040161042e90610d92565b61053d60405161052f90610c94565b600081565b61079c336108ba565b6107b85760405162461bcd60e51b815260040161042e90610d92565b61053d6040516105a090610cc6565b60006104e46040516104d690610cfa565b6107e1336108ba565b6107fd5760405162461bcd60e51b815260040161042e90610d92565b61053d60405161052f90610cad565b60008181526020819052604081206104e490610a54565b60006104e46040516104d690610c94565b61083d336108ba565b6108595760405162461bcd60e51b815260040161042e90610d92565b61053d60405161052f90610cfa565b60405161056190610cc6565b60405161056190610cfa565b60008281526020819052604090206002015461089e9061031b6108ff565b6106365760405162461bcd60e51b815260040161042e90610e26565b60006104e46040516104d690610ce3565b6108d4336108ba565b6108f05760405162461bcd60e51b815260040161042e90610d92565b61053d60405161052f90610ce3565b3390565b6000828152602081905260409020610921908263ffffffff610a5f16565b156105ee5761092e6108ff565b6001600160a01b0316816001600160a01b0316837f2f8788117e7eff1d82e926ec794901d17c78024a50270940304540a733656f0d60405160405180910390a45050565b6000828152602081905260409020610990908263ffffffff610a7416565b156105ee5761099d6108ff565b6001600160a01b0316816001600160a01b0316837ff6391f5c32d9c69d2a47ea670b442974b53935d1edc7fd64eb21e047a839171b60405160405180910390a45050565b600082815260208190526040808220600201549051839285917fbd79b86ffe0ab8e8776151514217cd7cacd52c909f66475c3af44e129f0b00ff9190a460009182526020829052604090912060020155565b60006107018383610a89565b6000610701836001600160a01b038416610ace565b60006104e482610ae6565b6000610701836001600160a01b038416610aea565b6000610701836001600160a01b038416610b34565b81546000908210610aac5760405162461bcd60e51b815260040161042e90610d50565b826000018281548110610abb57fe5b9060005260206000200154905092915050565b60009081526001919091016020526040902054151590565b5490565b6000610af68383610ace565b610b2c575081546001818101845560008481526020808220909301849055845484825282860190935260409020919091556104e4565b5060006104e4565b60008181526001830160205260408120548015610bf05783546000198083019190810190600090879083908110610b6757fe5b9060005260206000200154905080876000018481548110610b8457fe5b600091825260208083209091019290925582815260018981019092526040902090840190558654879080610bb457fe5b600190038181906000526020600020016000905590558660010160008781526020019081526020016000206000905560019450505050506104e4565b60009150506104e4565b600060208284031215610c0b578081fd5b81356001600160a01b0381168114610701578182fd5b600060208284031215610c32578081fd5b5035919050565b60008060408385031215610c4b578081fd5b8235915060208301356001600160a01b0381168114610c68578182fd5b809150509250929050565b60008060408385031215610c85578182fd5b50508035926020909101359150565b6c42414c414e4345525f524f4c4560981b8152600d0190565b6c475541524449414e5f524f4c4560981b8152600d0190565b70504f4f4c5f575241505045525f524f4c4560781b815260110190565b6a474f5645524e5f524f4c4560a81b8152600b0190565b6a4d494e5445525f524f4c4560a81b8152600b0190565b6001600160a01b0391909116815260200190565b901515815260200190565b90815260200190565b9182526001600160a01b0316602082015260400190565b60208082526022908201527f456e756d657261626c655365743a20696e646578206f7574206f6620626f756e604082015261647360f01b606082015260800190565b60208082526025908201527f5065726d697373696f6e733a2043616c6c6572206973206e6f74206120676f7660408201526432b93737b960d91b606082015260800190565b6020808252602f908201527f416363657373436f6e74726f6c3a2073656e646572206d75737420626520616e60408201526e0818591b5a5b881d1bc819dc985b9d608a1b606082015260800190565b60208082526030908201527f416363657373436f6e74726f6c3a2073656e646572206d75737420626520616e60408201526f2061646d696e20746f207265766f6b6560801b606082015260800190565b60208082526025908201527f5065726d697373696f6e733a2043616c6c6572206973206e6f74206120677561604082015264393234b0b760d91b606082015260800190565b6020808252602c908201527f5065726d697373696f6e733a20477561726469616e2063616e6e6f742072657660408201526b37b5b29033b7bb32b93737b960a11b606082015260800190565b6020808252602f908201527f416363657373436f6e74726f6c3a2063616e206f6e6c792072656e6f756e636560408201526e103937b632b9903337b91039b2b63360891b60608201526080019056fea2646970667358221220f6059e580a2cbfe151daffa3e6c26fd716c8600a121d0c28152d30fcf7c4958f64736f6c63430006060033",
  "immutableReferences": {},
  "source": "pragma solidity ^0.6.0;\npragma experimental ABIEncoderV2;\n\nimport \"@openzeppelin/contracts/access/AccessControl.sol\";\nimport \"./IPermissions.sol\";\n\n/// @title Access control module for Controller\n/// @author Artha Protocol\ncontract Permissions is IPermissions, AccessControl {\n    bytes32 public constant MINTER_ROLE = keccak256(\"MINTER_ROLE\");\n    bytes32 public constant GOVERN_ROLE = keccak256(\"GOVERN_ROLE\");\n    bytes32 public constant GUARDIAN_ROLE = keccak256(\"GUARDIAN_ROLE\");\n    bytes32 public constant BALANCER_ROLE = keccak256(\"BALANCER_ROLE\");\n    bytes32 public constant POOL_WRAPPER_ROLE = keccak256(\"POOL_WRAPPER_ROLE\");\n\n    constructor() public {\n        // Appointed as a governor so guardian can have indirect access to revoke ability\n        _setupGovernor(address(this));\n\n        _setRoleAdmin(MINTER_ROLE, GOVERN_ROLE);\n        _setRoleAdmin(GOVERN_ROLE, GOVERN_ROLE);\n        _setRoleAdmin(GUARDIAN_ROLE, GOVERN_ROLE);\n        _setRoleAdmin(BALANCER_ROLE, GOVERN_ROLE);\n        _setRoleAdmin(POOL_WRAPPER_ROLE, GOVERN_ROLE);\n    }\n\n    modifier onlyGovernor() {\n        require(\n            isGovernor(msg.sender),\n            \"Permissions: Caller is not a governor\"\n        );\n        _;\n    }\n\n    modifier onlyGuardian() {\n        require(isGuardian(msg.sender), \"Permissions: Caller is not a guardian\");\n        _;\n    }\n\n    modifier onlyBalancer() {\n        require(isBalancer(msg.sender), \"Permissions: Caller is not a balancer\");\n        _;\n    }\n\n    modifier onlyMinter() {\n        require(isMinter(msg.sender), \"Permissions: Caller is not a minter\");\n        _;\n    }\n\n\n    /// @notice creates a new role to be maintained\n    /// @param role the new role id\n    /// @param adminRole the admin role id for `role`\n    /// @dev can also be used to update admin of existing role\n    function createRole(bytes32 role, bytes32 adminRole)\n        public\n        override\n        onlyGovernor\n    {\n        _setRoleAdmin(role, adminRole);\n    }\n\n    /// @notice grants minter role to address\n    /// @param minter new minter\n    function grantMinter(address minter) public override onlyGovernor {\n        grantRole(MINTER_ROLE, minter);\n    }\n\n    /// @notice grants governor role to address\n    /// @param governor new governor\n    function grantGovernor(address governor) public override onlyGovernor {\n        grantRole(GOVERN_ROLE, governor);\n    }\n\n    /// @notice grants guardian role to address\n    /// @param guardian new guardian\n    function grantGuardian(address guardian) public override onlyGovernor {\n        grantRole(GUARDIAN_ROLE, guardian);\n    }\n\n    /// @notice grants balancer role to address\n    /// @param balancer new balancer\n    function grantBalancer(address balancer) public override onlyGovernor {\n        grantRole(BALANCER_ROLE, balancer);\n    }\n\n    /// @notice grants balancer role to address\n    /// @param poolWrapper new poolWrapper\n    function grantPoolWrapper(address poolWrapper) public override onlyGovernor {\n        grantRole(POOL_WRAPPER_ROLE, poolWrapper);\n    }\n\n\n    /// @notice revokes minter role from address\n    /// @param minter ex minter\n    function revokeMinter(address minter) public override onlyGovernor {\n        revokeRole(MINTER_ROLE, minter);\n    }\n\n\n    /// @notice revokes governor role from address\n    /// @param governor ex governor\n    function revokeGovernor(address governor) public override onlyGovernor {\n        revokeRole(GOVERN_ROLE, governor);\n    }\n\n    /// @notice revokes guardian role from address\n    /// @param guardian ex guardian\n    function revokeGuardian(address guardian) public override onlyGovernor {\n        revokeRole(GUARDIAN_ROLE, guardian);\n    }\n\n    /// @notice revokes balancer role from address\n    /// @param balancer ex balancer\n    function revokeBalancer(address balancer) public override onlyGovernor {\n        revokeRole(BALANCER_ROLE, balancer);\n    }\n\n    /// @notice revokes balancer role from address\n    /// @param poolWrapper ex poolWrapper\n    function revokePoolWrapper(address poolWrapper) public override onlyGovernor {\n        revokeRole(POOL_WRAPPER_ROLE, poolWrapper);\n    }\n\n\n    /// @notice revokes a role from address\n    /// @param role the role to revoke\n    /// @param account the address to revoke the role from\n    function revokeOverride(bytes32 role, address account)\n        public\n        override\n        onlyGuardian\n    {\n        require(role != GOVERN_ROLE, \"Permissions: Guardian cannot revoke governor\");\n\n        // External call because this contract is appointed as a governor and has access to revoke\n        this.revokeRole(role, account);\n    }\n\n\n    /// @notice checks if address is a minter\n    /// @param _address address to check\n    /// @return true _address is a minter\n    function isMinter(address _address) public view override returns (bool) {\n        return hasRole(MINTER_ROLE, _address);\n    }\n\n    /// @notice checks if address is a governor\n    /// @param _address address to check\n    /// @return true _address is a governor\n    // only virtual for testing mock override\n    function isGovernor(address _address)\n        public\n        view\n        virtual\n        override\n        returns (bool)\n    {\n        return hasRole(GOVERN_ROLE, _address);\n    }\n\n    /// @notice checks if address is a guardian\n    /// @param _address address to check\n    /// @return true _address is a guardian\n    function isGuardian(address _address) public view override returns (bool) {\n        return hasRole(GUARDIAN_ROLE, _address);\n    }\n\n    /// @notice checks if address is a balancer\n    /// @param _address address to check\n    /// @return true _address is a balancer\n    function isBalancer(address _address) public view override returns (bool) {\n        return hasRole(BALANCER_ROLE, _address);\n    }\n\n    /// @notice checks if address is a balancer\n    /// @param _address address to check\n    /// @return true _address is a balancer\n    function isPoolWrapper(address _address) public view override returns (bool) {\n        return hasRole(POOL_WRAPPER_ROLE, _address);\n    }\n\n\n    function _setupGovernor(address governor) internal {\n        _setupRole(GOVERN_ROLE, governor);\n    }\n}\n",
  "sourcePath": "/Users/parashar/Documents/defi/arthafinance/contracts/controller/Permissions.sol",
  "compiler": {
    "name": "solc",
    "version": "0.6.6+commit.6c089d02.Emscripten.clang"
  },
  "schemaVersion": "3.3.4",
  "updatedAt": "2021-06-03T16:05:15.598Z",
  "devdoc": {
    "author": "Artha Protocol",
    "methods": {
      "createRole(bytes32,bytes32)": {
        "details": "can also be used to update admin of existing role",
        "params": {
          "adminRole": "the admin role id for `role`",
          "role": "the new role id"
        }
      },
      "getRoleAdmin(bytes32)": {
        "details": "Returns the admin role that controls `role`. See {grantRole} and {revokeRole}.     * To change a role's admin, use {_setRoleAdmin}."
      },
      "getRoleMember(bytes32,uint256)": {
        "details": "Returns one of the accounts that have `role`. `index` must be a value between 0 and {getRoleMemberCount}, non-inclusive.     * Role bearers are not sorted in any particular way, and their ordering may change at any point.     * WARNING: When using {getRoleMember} and {getRoleMemberCount}, make sure you perform all queries on the same block. See the following https://forum.openzeppelin.com/t/iterating-over-elements-on-enumerableset-in-openzeppelin-contracts/2296[forum post] for more information."
      },
      "getRoleMemberCount(bytes32)": {
        "details": "Returns the number of accounts that have `role`. Can be used together with {getRoleMember} to enumerate all bearers of a role."
      },
      "grantBalancer(address)": {
        "params": {
          "balancer": "new balancer"
        }
      },
      "grantGovernor(address)": {
        "params": {
          "governor": "new governor"
        }
      },
      "grantGuardian(address)": {
        "params": {
          "guardian": "new guardian"
        }
      },
      "grantMinter(address)": {
        "params": {
          "minter": "new minter"
        }
      },
      "grantPoolWrapper(address)": {
        "params": {
          "poolWrapper": "new poolWrapper"
        }
      },
      "grantRole(bytes32,address)": {
        "details": "Grants `role` to `account`.     * If `account` had not been already granted `role`, emits a {RoleGranted} event.     * Requirements:     * - the caller must have ``role``'s admin role."
      },
      "hasRole(bytes32,address)": {
        "details": "Returns `true` if `account` has been granted `role`."
      },
      "isBalancer(address)": {
        "params": {
          "_address": "address to check"
        },
        "returns": {
          "_0": "true _address is a balancer"
        }
      },
      "isGovernor(address)": {
        "params": {
          "_address": "address to check"
        },
        "returns": {
          "_0": "true _address is a governor"
        }
      },
      "isGuardian(address)": {
        "params": {
          "_address": "address to check"
        },
        "returns": {
          "_0": "true _address is a guardian"
        }
      },
      "isMinter(address)": {
        "params": {
          "_address": "address to check"
        },
        "returns": {
          "_0": "true _address is a minter"
        }
      },
      "isPoolWrapper(address)": {
        "params": {
          "_address": "address to check"
        },
        "returns": {
          "_0": "true _address is a balancer"
        }
      },
      "renounceRole(bytes32,address)": {
        "details": "Revokes `role` from the calling account.     * Roles are often managed via {grantRole} and {revokeRole}: this function's purpose is to provide a mechanism for accounts to lose their privileges if they are compromised (such as when a trusted device is misplaced).     * If the calling account had been granted `role`, emits a {RoleRevoked} event.     * Requirements:     * - the caller must be `account`."
      },
      "revokeBalancer(address)": {
        "params": {
          "balancer": "ex balancer"
        }
      },
      "revokeGovernor(address)": {
        "params": {
          "governor": "ex governor"
        }
      },
      "revokeGuardian(address)": {
        "params": {
          "guardian": "ex guardian"
        }
      },
      "revokeMinter(address)": {
        "params": {
          "minter": "ex minter"
        }
      },
      "revokeOverride(bytes32,address)": {
        "params": {
          "account": "the address to revoke the role from",
          "role": "the role to revoke"
        }
      },
      "revokePoolWrapper(address)": {
        "params": {
          "poolWrapper": "ex poolWrapper"
        }
      },
      "revokeRole(bytes32,address)": {
        "details": "Revokes `role` from `account`.     * If `account` had been granted `role`, emits a {RoleRevoked} event.     * Requirements:     * - the caller must have ``role``'s admin role."
      }
    },
    "title": "Access control module for Controller"
  },
  "userdoc": {
    "methods": {
      "createRole(bytes32,bytes32)": {
        "notice": "creates a new role to be maintained"
      },
      "grantBalancer(address)": {
        "notice": "grants balancer role to address"
      },
      "grantGovernor(address)": {
        "notice": "grants governor role to address"
      },
      "grantGuardian(address)": {
        "notice": "grants guardian role to address"
      },
      "grantMinter(address)": {
        "notice": "grants minter role to address"
      },
      "grantPoolWrapper(address)": {
        "notice": "grants balancer role to address"
      },
      "isBalancer(address)": {
        "notice": "checks if address is a balancer"
      },
      "isGovernor(address)": {
        "notice": "checks if address is a governor"
      },
      "isGuardian(address)": {
        "notice": "checks if address is a guardian"
      },
      "isMinter(address)": {
        "notice": "checks if address is a minter"
      },
      "isPoolWrapper(address)": {
        "notice": "checks if address is a balancer"
      },
      "revokeBalancer(address)": {
        "notice": "revokes balancer role from address"
      },
      "revokeGovernor(address)": {
        "notice": "revokes governor role from address"
      },
      "revokeGuardian(address)": {
        "notice": "revokes guardian role from address"
      },
      "revokeMinter(address)": {
        "notice": "revokes minter role from address"
      },
      "revokeOverride(bytes32,address)": {
        "notice": "revokes a role from address"
      },
      "revokePoolWrapper(address)": {
        "notice": "revokes balancer role from address"
      }
    }
  }
}