{
  "contractName": "PoolBalancer",
  "abi": [
    {
      "inputs": [
        {
          "internalType": "address",
          "name": "_controller",
          "type": "address"
        },
        {
          "internalType": "uint256",
          "name": "_duration",
          "type": "uint256"
        }
      ],
      "stateMutability": "nonpayable",
      "type": "constructor"
    },
    {
      "anonymous": false,
      "inputs": [
        {
          "indexed": true,
          "internalType": "address",
          "name": "_controller",
          "type": "address"
        }
      ],
      "name": "ControllerUpdate",
      "type": "event"
    },
    {
      "anonymous": false,
      "inputs": [
        {
          "indexed": false,
          "internalType": "uint256",
          "name": "_duration",
          "type": "uint256"
        }
      ],
      "name": "DurationUpdate",
      "type": "event"
    },
    {
      "anonymous": false,
      "inputs": [
        {
          "indexed": false,
          "internalType": "address",
          "name": "account",
          "type": "address"
        }
      ],
      "name": "Paused",
      "type": "event"
    },
    {
      "anonymous": false,
      "inputs": [
        {
          "indexed": false,
          "internalType": "uint256",
          "name": "_startTime",
          "type": "uint256"
        }
      ],
      "name": "TimerReset",
      "type": "event"
    },
    {
      "anonymous": false,
      "inputs": [
        {
          "indexed": false,
          "internalType": "address",
          "name": "account",
          "type": "address"
        }
      ],
      "name": "Unpaused",
      "type": "event"
    },
    {
      "inputs": [],
      "name": "WAD",
      "outputs": [
        {
          "internalType": "uint256",
          "name": "",
          "type": "uint256"
        }
      ],
      "stateMutability": "view",
      "type": "function"
    },
    {
      "inputs": [],
      "name": "artha",
      "outputs": [
        {
          "internalType": "contract IERC20",
          "name": "",
          "type": "address"
        }
      ],
      "stateMutability": "view",
      "type": "function"
    },
    {
      "inputs": [],
      "name": "arthaBalance",
      "outputs": [
        {
          "internalType": "uint256",
          "name": "",
          "type": "uint256"
        }
      ],
      "stateMutability": "view",
      "type": "function"
    },
    {
      "inputs": [],
      "name": "ausd",
      "outputs": [
        {
          "internalType": "contract IAUSD",
          "name": "",
          "type": "address"
        }
      ],
      "stateMutability": "view",
      "type": "function"
    },
    {
      "inputs": [],
      "name": "ausdBalance",
      "outputs": [
        {
          "internalType": "uint256",
          "name": "",
          "type": "uint256"
        }
      ],
      "stateMutability": "view",
      "type": "function"
    },
    {
      "inputs": [],
      "name": "controller",
      "outputs": [
        {
          "internalType": "contract IController",
          "name": "",
          "type": "address"
        }
      ],
      "stateMutability": "view",
      "type": "function"
    },
    {
      "inputs": [],
      "name": "duration",
      "outputs": [
        {
          "internalType": "uint256",
          "name": "",
          "type": "uint256"
        }
      ],
      "stateMutability": "view",
      "type": "function"
    },
    {
      "inputs": [],
      "name": "isTimeEnded",
      "outputs": [
        {
          "internalType": "bool",
          "name": "",
          "type": "bool"
        }
      ],
      "stateMutability": "view",
      "type": "function"
    },
    {
      "inputs": [],
      "name": "isTimeStarted",
      "outputs": [
        {
          "internalType": "bool",
          "name": "",
          "type": "bool"
        }
      ],
      "stateMutability": "view",
      "type": "function"
    },
    {
      "inputs": [],
      "name": "pause",
      "outputs": [],
      "stateMutability": "nonpayable",
      "type": "function"
    },
    {
      "inputs": [],
      "name": "paused",
      "outputs": [
        {
          "internalType": "bool",
          "name": "",
          "type": "bool"
        }
      ],
      "stateMutability": "view",
      "type": "function"
    },
    {
      "inputs": [],
      "name": "remainingTime",
      "outputs": [
        {
          "internalType": "uint256",
          "name": "",
          "type": "uint256"
        }
      ],
      "stateMutability": "view",
      "type": "function"
    },
    {
      "inputs": [
        {
          "internalType": "address",
          "name": "controller",
          "type": "address"
        }
      ],
      "name": "setController",
      "outputs": [],
      "stateMutability": "nonpayable",
      "type": "function"
    },
    {
      "inputs": [],
      "name": "startTime",
      "outputs": [
        {
          "internalType": "uint256",
          "name": "",
          "type": "uint256"
        }
      ],
      "stateMutability": "view",
      "type": "function"
    },
    {
      "inputs": [],
      "name": "timeSinceStart",
      "outputs": [
        {
          "internalType": "uint256",
          "name": "",
          "type": "uint256"
        }
      ],
      "stateMutability": "view",
      "type": "function"
    },
    {
      "inputs": [],
      "name": "unpause",
      "outputs": [],
      "stateMutability": "nonpayable",
      "type": "function"
    },
    {
      "inputs": [],
      "name": "rebalance",
      "outputs": [],
      "stateMutability": "nonpayable",
      "type": "function"
    },
    {
      "inputs": [
        {
          "internalType": "uint256",
          "name": "_frequency",
          "type": "uint256"
        }
      ],
      "name": "setIncentiveFrequency",
      "outputs": [],
      "stateMutability": "nonpayable",
      "type": "function"
    },
    {
      "inputs": [
        {
          "internalType": "address",
          "name": "dst",
          "type": "address"
        },
        {
          "internalType": "uint256",
          "name": "amount",
          "type": "uint256"
        }
      ],
      "name": "transferEth",
      "outputs": [],
      "stateMutability": "nonpayable",
      "type": "function"
    },
    {
      "inputs": [
        {
          "internalType": "address",
          "name": "token",
          "type": "address"
        },
        {
          "internalType": "address",
          "name": "dst",
          "type": "address"
        },
        {
          "internalType": "uint256",
          "name": "amount",
          "type": "uint256"
        }
      ],
      "name": "transferToken",
      "outputs": [],
      "stateMutability": "nonpayable",
      "type": "function"
    }
  ],
  "bytecode": "0x6080604052670de0b6b3a764000060035534801561001c57600080fd5b506040516116e03803806116e08339818101604052604081101561003f57600080fd5b508051602090910151818161005c816001600160e01b0361009a16565b50600280546001600160a01b03909216610100026001600160a81b03199092169190911790556100936001600160e01b036100d516565b505061010f565b60018190556040805182815290517fef01a748b5b8a4f1d48b88861f6d361d7391ad2bbed27ff97d762889ca80d7379181900360200190a150565b42600081905560408051918252517fd1dbb2ce8081405078443ef34dae718285114121a39370b14ef01b9d2b0a20839181900360200190a1565b6115c28061011e6000396000f3fe608060405234801561001057600080fd5b506004361061012b5760003560e01c806392eefe9b116100ad578063e1d92bf811610071578063e1d92bf81461020a578063e9bb84c214610227578063f5537ede14610253578063f77c479114610289578063fd1827e2146102915761012b565b806392eefe9b146101a8578063acc4bd08146101ce578063ae951b2e146101d6578063c23af832146101de578063c80cb443146102025761012b565b806367fc6dea116100f457806367fc6dea146101805780636a1460241461018857806378e97925146101905780637d7c2a1c146101985780638456cb59146101a05761012b565b8062d89b33146101305780630d5b00c31461014c5780630fb5a6b4146101665780633f4ba83a1461016e5780635c975abb14610178575b600080fd5b610138610299565b604080519115158252519081900360200190f35b6101546102a2565b60408051918252519081900360200190f35b610154610332565b610176610338565b005b61013861047a565b610154610483565b6101546104b7565b6101546104bd565b6101766104c3565b6101766106bd565b610176600480360360208110156101be57600080fd5b50356001600160a01b03166107fd565b610154610905565b610138610918565b6101e6610928565b604080516001600160a01b039092168252519081900360200190f35b610154610978565b6101766004803603602081101561022057600080fd5b5035610982565b6101766004803603604081101561023d57600080fd5b506001600160a01b038135169060200135610a44565b6101766004803603606081101561026957600080fd5b506001600160a01b03813581169160208101359091169060400135610b8a565b6101e6610ce1565b6101e6610cf5565b60005415155b90565b60006102ac610928565b6001600160a01b03166370a08231306040518263ffffffff1660e01b815260040180826001600160a01b03166001600160a01b0316815260200191505060206040518083038186803b15801561030157600080fd5b505afa158015610315573d6000803e3d6000fd5b505050506040513d602081101561032b57600080fd5b5051905090565b60015481565b60025460408051631c86b03760e31b815233600482015290516101009092046001600160a01b03169163e43581b891602480820192602092909190829003018186803b15801561038757600080fd5b505afa15801561039b573d6000803e3d6000fd5b505050506040513d60208110156103b157600080fd5b505180610435575060025460408051630c68ba2160e01b815233600482015290516101009092046001600160a01b031691630c68ba2191602480820192602092909190829003018186803b15801561040857600080fd5b505afa15801561041c573d6000803e3d6000fd5b505050506040513d602081101561043257600080fd5b50515b6104705760405162461bcd60e51b815260040180806020018281038252603381526020018061143d6033913960400191505060405180910390fd5b610478610d45565b565b60025460ff1690565b600061048d610299565b6104995750600061029f565b60015460005442038181116104ae57806104b0565b815b9250505090565b60035481565b60005481565b6104cb61047a565b15610510576040805162461bcd60e51b815260206004820152601060248201526f14185d5cd8589b194e881c185d5cd95960821b604482015290519081900360640190fd5b610518610918565b6105535760405162461bcd60e51b81526004018080602001828103825260368152602001806114f76036913960400191505060405180910390fd5b60005b61055e610ce1565b6001600160a01b0316638947857c6040518163ffffffff1660e01b815260040160206040518083038186803b15801561059657600080fd5b505afa1580156105aa573d6000803e3d6000fd5b505050506040513d60208110156105c057600080fd5b50518110156106ac5760006105d3610ce1565b6001600160a01b0316636bba6068836040518263ffffffff1660e01b81526004018082815260200191505060206040518083038186803b15801561061657600080fd5b505afa15801561062a573d6000803e3d6000fd5b505050506040513d602081101561064057600080fd5b505160408051631fcb350b60e11b815290519192506001600160a01b03831691633f966a169160048082019260009290919082900301818387803b15801561068757600080fd5b505af115801561069b573d6000803e3d6000fd5b505060019093019250610556915050565b506106b5610de5565b610478610ee5565b60025460408051631c86b03760e31b815233600482015290516101009092046001600160a01b03169163e43581b891602480820192602092909190829003018186803b15801561070c57600080fd5b505afa158015610720573d6000803e3d6000fd5b505050506040513d602081101561073657600080fd5b5051806107ba575060025460408051630c68ba2160e01b815233600482015290516101009092046001600160a01b031691630c68ba2191602480820192602092909190829003018186803b15801561078d57600080fd5b505afa1580156107a1573d6000803e3d6000fd5b505050506040513d60208110156107b757600080fd5b50515b6107f55760405162461bcd60e51b815260040180806020018281038252603381526020018061143d6033913960400191505060405180910390fd5b610478610f39565b60025460408051631c86b03760e31b815233600482015290516101009092046001600160a01b03169163e43581b891602480820192602092909190829003018186803b15801561084c57600080fd5b505afa158015610860573d6000803e3d6000fd5b505050506040513d602081101561087657600080fd5b50516108b35760405162461bcd60e51b81526004018080602001828103825260278152602001806114d06027913960400191505060405180910390fd5b60028054610100600160a81b0319166101006001600160a01b038416908102919091179091556040517f5b9e04ebd57dd0a9649b6a969291839f2794d18ee0dfe7027b5757db16eb98b690600090a250565b600061090f610483565b60015403905090565b6000610922610905565b15905090565b6000600260019054906101000a90046001600160a01b03166001600160a01b031663c23af8326040518163ffffffff1660e01b815260040160206040518083038186803b15801561030157600080fd5b60006102ac610cf5565b60025460408051631c86b03760e31b815233600482015290516101009092046001600160a01b03169163e43581b891602480820192602092909190829003018186803b1580156109d157600080fd5b505afa1580156109e5573d6000803e3d6000fd5b505050506040513d60208110156109fb57600080fd5b5051610a385760405162461bcd60e51b81526004018080602001828103825260278152602001806114d06027913960400191505060405180910390fd5b610a4181610fbc565b50565b60025460408051631c86b03760e31b815233600482015290516101009092046001600160a01b03169163e43581b891602480820192602092909190829003018186803b158015610a9357600080fd5b505afa158015610aa7573d6000803e3d6000fd5b505050506040513d6020811015610abd57600080fd5b505180610b41575060025460408051630ce3fa9b60e11b815233600482015290516101009092046001600160a01b0316916319c7f53691602480820192602092909190829003018186803b158015610b1457600080fd5b505afa158015610b28573d6000803e3d6000fd5b505050506040513d6020811015610b3e57600080fd5b50515b610b7c5760405162461bcd60e51b81526004018080602001828103825260368152602001806115576036913960400191505060405180910390fd5b610b868282610ff7565b5050565b60025460408051631c86b03760e31b815233600482015290516101009092046001600160a01b03169163e43581b891602480820192602092909190829003018186803b158015610bd957600080fd5b505afa158015610bed573d6000803e3d6000fd5b505050506040513d6020811015610c0357600080fd5b505180610c87575060025460408051630ce3fa9b60e11b815233600482015290516101009092046001600160a01b0316916319c7f53691602480820192602092909190829003018186803b158015610c5a57600080fd5b505afa158015610c6e573d6000803e3d6000fd5b505050506040513d6020811015610c8457600080fd5b50515b610cc25760405162461bcd60e51b81526004018080602001828103825260368152602001806115576036913960400191505060405180910390fd5b610cdc6001600160a01b038416838363ffffffff6110dc16565b505050565b60025461010090046001600160a01b031690565b6000600260019054906101000a90046001600160a01b03166001600160a01b031663fd1827e26040518163ffffffff1660e01b815260040160206040518083038186803b15801561030157600080fd5b610d4d61047a565b610d95576040805162461bcd60e51b815260206004820152601460248201527314185d5cd8589b194e881b9bdd081c185d5cd95960621b604482015290519081900360640190fd5b6002805460ff191690557f5db9ee0a495bf2e6ff9c91a7834c1ba4fdd244a5e8aa4e537bd38aeae4b073aa610dc861112e565b604080516001600160a01b039092168252519081900360200190a1565b610ded610918565b1561047857610dfa611132565b610e02610928565b6001600160a01b03166340c10f1933610e19610ce1565b6001600160a01b03166340afc15c6040518163ffffffff1660e01b815260040160206040518083038186803b158015610e5157600080fd5b505afa158015610e65573d6000803e3d6000fd5b505050506040513d6020811015610e7b57600080fd5b5051604080516001600160e01b031960e086901b1681526001600160a01b039093166004840152602483019190915251604480830192600092919082900301818387803b158015610ecb57600080fd5b505af1158015610edf573d6000803e3d6000fd5b50505050565b610eed610928565b6001600160a01b03166342966c68610f036102a2565b6040518263ffffffff1660e01b815260040180828152602001915050600060405180830381600087803b158015610ecb57600080fd5b610f4161047a565b15610f86576040805162461bcd60e51b815260206004820152601060248201526f14185d5cd8589b194e881c185d5cd95960821b604482015290519081900360640190fd5b6002805460ff191660011790557f62e78cea01bee320cd4e420270b5ea74000d11b0c9f74754ebdbfc544b05a258610dc861112e565b60018190556040805182815290517fef01a748b5b8a4f1d48b88861f6d361d7391ad2bbed27ff97d762889ca80d7379181900360200190a150565b8047101561104c576040805162461bcd60e51b815260206004820152601d60248201527f416464726573733a20696e73756666696369656e742062616c616e6365000000604482015290519081900360640190fd5b6040516000906001600160a01b0384169083908381818185875af1925050503d8060008114611097576040519150601f19603f3d011682016040523d82523d6000602084013e61109c565b606091505b5050905080610cdc5760405162461bcd60e51b815260040180806020018281038252603a815260200180611470603a913960400191505060405180910390fd5b604080516001600160a01b038416602482015260448082018490528251808303909101815260649091019091526020810180516001600160e01b031663a9059cbb60e01b179052610cdc90849061116c565b3390565b42600081905560408051918252517fd1dbb2ce8081405078443ef34dae718285114121a39370b14ef01b9d2b0a20839181900360200190a1565b60606111c1826040518060400160405280602081526020017f5361666545524332303a206c6f772d6c6576656c2063616c6c206661696c6564815250856001600160a01b031661121d9092919063ffffffff16565b805190915015610cdc578080602001905160208110156111e057600080fd5b5051610cdc5760405162461bcd60e51b815260040180806020018281038252602a81526020018061152d602a913960400191505060405180910390fd5b606061122c8484600085611236565b90505b9392505050565b6060824710156112775760405162461bcd60e51b81526004018080602001828103825260268152602001806114aa6026913960400191505060405180910390fd5b61128085611392565b6112d1576040805162461bcd60e51b815260206004820152601d60248201527f416464726573733a2063616c6c20746f206e6f6e2d636f6e7472616374000000604482015290519081900360640190fd5b60006060866001600160a01b031685876040518082805190602001908083835b602083106113105780518252601f1990920191602091820191016112f1565b6001836020036101000a03801982511681845116808217855250505050505090500191505060006040518083038185875af1925050503d8060008114611372576040519150601f19603f3d011682016040523d82523d6000602084013e611377565b606091505b5091509150611387828286611398565b979650505050505050565b3b151590565b606083156113a757508161122f565b8251156113b75782518084602001fd5b8160405162461bcd60e51b81526004018080602001828103825283818151815260200191508051906020019080838360005b838110156114015781810151838201526020016113e9565b50505050905090810190601f16801561142e5780820380516001836020036101000a031916815260200191505b509250505060405180910390fdfe436f6e74726f6c6c65725265663a2043616c6c6572206973206e6f74206120677561726469616e206f7220676f7665726e6f72416464726573733a20756e61626c6520746f2073656e642076616c75652c20726563697069656e74206d61792068617665207265766572746564416464726573733a20696e73756666696369656e742062616c616e636520666f722063616c6c436f6e74726f6c6c65725265663a2043616c6c6572206973206e6f74206120676f7665726e6f72506f6f6c2042616c616e6365723a2043616e206f6e6c792062652063616c6c65642061667465722074696d652068617320656e6465645361666545524332303a204552433230206f7065726174696f6e20646964206e6f742073756363656564436f6e74726f6c6c65725265663a2043616c6c6572206973206e6f74206120706f6f6c57726170706572206f7220676f7665726e6f72a2646970667358221220a437bec457853b74ac6bdd39fea4a6aa54022a6c99c5c5a4dbbe3abf0ab11b9164736f6c63430006060033",
  "immutableReferences": {},
  "source": "pragma solidity ^0.6.0;\n\nimport \"@openzeppelin/contracts/utils/EnumerableSet.sol\";\nimport \"@openzeppelin/contracts/token/ERC20/SafeERC20.sol\";\nimport \"@openzeppelin/contracts/token/ERC20/IERC20.sol\";\nimport \"@openzeppelin/contracts/utils/Address.sol\";\nimport \"../utils/Timed.sol\";\nimport \"./ControllerRef.sol\";\nimport \"./IPoolWrapper.sol\";\nimport \"./IPoolBalancer.sol\";\n\ncontract PoolBalancer is IPoolBalancer, Timed, ControllerRef {\n\n    using EnumerableSet for EnumerableSet.AddressSet;\n    using SafeERC20 for IERC20;\n\n    uint256 public WAD = 1e18;\n\n    constructor(address _controller, uint256 _duration) public\n        ControllerRef(_controller) \n        Timed(_duration) \n    {\n        _initTimed(); // reset window\n    }\n\n\n    /// @notice rebalance dex pool by adjusting artha balance in it\n    function rebalance() public override whenNotPaused {\n\n        require(isTimeEnded(), \"Pool Balancer: Can only be called after time has ended\");\n\n        for (uint i=0; i<controller().poolWrappersLength(); i++){\n\n            IPoolWrapper pool = IPoolWrapper(controller().poolWrapperAt(i));\n            pool.swapForRebalance();\n\n        }\n        _incentivize();\n        _burnAUSDHeld();\n    }\n\n\n    /// @notice if window has passed, reward caller and reset window\n    function _incentivize() internal virtual {\n        if (isTimeEnded()) {\n            _initTimed(); // reset window\n            ausd().mint(msg.sender, controller().balancerRewardAmount());\n        }\n    }\n\n    /// @notice sets the rebalance incentive frequency\n    function setIncentiveFrequency(uint256 _frequency) public override onlyGovernor {\n        _setDuration(_frequency);\n    }\n\n    /// @notice transfer eth to address, only callable by poolWrappers\n    /// @param dst address to transfer to\n    /// @param amount amount of eth to transfer\n    function transferEth(address dst, uint256 amount) public override onlyPoolWrapperOrGovernor {\n        Address.sendValue(payable(dst), amount);\n    }\n\n    /// @notice transfer token to address, only callable by poolWrappers\n    /// @param token address of token\n    /// @param dst address to transfer to\n    /// @param amount amount of token to transfer\n    function transferToken(address token, address dst, uint256 amount) public override onlyPoolWrapperOrGovernor {\n        IERC20(token).safeTransfer(dst, amount);\n    }\n\n}",
  "sourcePath": "/Users/parashar/Documents/defi/arthafinance/contracts/controller/PoolBalancer.sol",
  "compiler": {
    "name": "solc",
    "version": "0.6.6+commit.6c089d02.Emscripten.clang"
  },
  "schemaVersion": "3.3.4",
  "updatedAt": "2021-06-03T16:05:15.604Z",
  "devdoc": {
    "methods": {
      "paused()": {
        "details": "Returns true if the contract is paused, and false otherwise."
      },
      "setController(address)": {
        "params": {
          "controller": "the new controller address"
        }
      },
      "timeSinceStart()": {
        "details": "will be less than or equal to duration",
        "returns": {
          "_0": "timestamp"
        }
      },
      "transferEth(address,uint256)": {
        "params": {
          "amount": "amount of eth to transfer",
          "dst": "address to transfer to"
        }
      },
      "transferToken(address,address,uint256)": {
        "params": {
          "amount": "amount of token to transfer",
          "dst": "address to transfer to",
          "token": "address of token"
        }
      }
    }
  },
  "userdoc": {
    "methods": {
      "artha()": {
        "notice": "address of the AGT contract referenced by Controller"
      },
      "arthaBalance()": {
        "notice": "Artha balance of contract"
      },
      "ausd()": {
        "notice": "address of the AUSD contract referenced by Controller"
      },
      "ausdBalance()": {
        "notice": "ausd balance of contract"
      },
      "controller()": {
        "notice": "address of the Controller contract referenced"
      },
      "isTimeEnded()": {
        "notice": "return true if time period has ended"
      },
      "pause()": {
        "notice": "set pausable methods to paused"
      },
      "rebalance()": {
        "notice": "rebalance dex pool by adjusting artha balance in it"
      },
      "remainingTime()": {
        "notice": "number of seconds remaining until time is up"
      },
      "setController(address)": {
        "notice": "set new Controller reference address"
      },
      "setIncentiveFrequency(uint256)": {
        "notice": "sets the rebalance incentive frequency"
      },
      "timeSinceStart()": {
        "notice": "number of seconds since contract was initialized"
      },
      "transferEth(address,uint256)": {
        "notice": "transfer eth to address, only callable by poolWrappers"
      },
      "transferToken(address,address,uint256)": {
        "notice": "transfer token to address, only callable by poolWrappers"
      },
      "unpause()": {
        "notice": "set pausable methods to unpaused"
      }
    }
  }
}