{
  "contractName": "TestNetOrchestrator",
  "abi": [
    {
      "inputs": [
        {
          "internalType": "address",
          "name": "_admin",
          "type": "address"
        }
      ],
      "stateMutability": "nonpayable",
      "type": "constructor"
    },
    {
      "anonymous": false,
      "inputs": [
        {
          "indexed": true,
          "internalType": "address",
          "name": "previousOwner",
          "type": "address"
        },
        {
          "indexed": true,
          "internalType": "address",
          "name": "newOwner",
          "type": "address"
        }
      ],
      "name": "OwnershipTransferred",
      "type": "event"
    },
    {
      "inputs": [],
      "name": "BALANCER_FREQUENCY",
      "outputs": [
        {
          "internalType": "uint256",
          "name": "",
          "type": "uint256"
        }
      ],
      "stateMutability": "view",
      "type": "function",
      "constant": true
    },
    {
      "inputs": [],
      "name": "CHAINLINK_AGGREGATOR",
      "outputs": [
        {
          "internalType": "address",
          "name": "",
          "type": "address"
        }
      ],
      "stateMutability": "view",
      "type": "function",
      "constant": true
    },
    {
      "inputs": [],
      "name": "ORACLE_FREQUENCY",
      "outputs": [
        {
          "internalType": "uint256",
          "name": "",
          "type": "uint256"
        }
      ],
      "stateMutability": "view",
      "type": "function",
      "constant": true
    },
    {
      "inputs": [],
      "name": "ROUTER",
      "outputs": [
        {
          "internalType": "address",
          "name": "",
          "type": "address"
        }
      ],
      "stateMutability": "view",
      "type": "function",
      "constant": true
    },
    {
      "inputs": [],
      "name": "UNISWAP_FACTORY",
      "outputs": [
        {
          "internalType": "contract IUniswapV2Factory",
          "name": "",
          "type": "address"
        }
      ],
      "stateMutability": "view",
      "type": "function",
      "constant": true
    },
    {
      "inputs": [],
      "name": "WETH",
      "outputs": [
        {
          "internalType": "address",
          "name": "",
          "type": "address"
        }
      ],
      "stateMutability": "view",
      "type": "function",
      "constant": true
    },
    {
      "inputs": [],
      "name": "admin",
      "outputs": [
        {
          "internalType": "address",
          "name": "",
          "type": "address"
        }
      ],
      "stateMutability": "view",
      "type": "function",
      "constant": true
    },
    {
      "inputs": [],
      "name": "ausd",
      "outputs": [
        {
          "internalType": "address",
          "name": "",
          "type": "address"
        }
      ],
      "stateMutability": "view",
      "type": "function",
      "constant": true
    },
    {
      "inputs": [],
      "name": "ausdIssuer",
      "outputs": [
        {
          "internalType": "address",
          "name": "",
          "type": "address"
        }
      ],
      "stateMutability": "view",
      "type": "function",
      "constant": true
    },
    {
      "inputs": [],
      "name": "controller",
      "outputs": [
        {
          "internalType": "address",
          "name": "",
          "type": "address"
        }
      ],
      "stateMutability": "view",
      "type": "function",
      "constant": true
    },
    {
      "inputs": [],
      "name": "ethAUSDPair",
      "outputs": [
        {
          "internalType": "address",
          "name": "",
          "type": "address"
        }
      ],
      "stateMutability": "view",
      "type": "function",
      "constant": true
    },
    {
      "inputs": [],
      "name": "owner",
      "outputs": [
        {
          "internalType": "address",
          "name": "",
          "type": "address"
        }
      ],
      "stateMutability": "view",
      "type": "function",
      "constant": true
    },
    {
      "inputs": [],
      "name": "poolBalancer",
      "outputs": [
        {
          "internalType": "address",
          "name": "",
          "type": "address"
        }
      ],
      "stateMutability": "view",
      "type": "function",
      "constant": true
    },
    {
      "inputs": [],
      "name": "poolWrapper",
      "outputs": [
        {
          "internalType": "address",
          "name": "",
          "type": "address"
        }
      ],
      "stateMutability": "view",
      "type": "function",
      "constant": true
    },
    {
      "inputs": [],
      "name": "priceFeed",
      "outputs": [
        {
          "internalType": "address",
          "name": "",
          "type": "address"
        }
      ],
      "stateMutability": "view",
      "type": "function",
      "constant": true
    },
    {
      "inputs": [],
      "name": "renounceOwnership",
      "outputs": [],
      "stateMutability": "nonpayable",
      "type": "function"
    },
    {
      "inputs": [
        {
          "internalType": "address",
          "name": "newOwner",
          "type": "address"
        }
      ],
      "name": "transferOwnership",
      "outputs": [],
      "stateMutability": "nonpayable",
      "type": "function"
    },
    {
      "inputs": [],
      "name": "initPairs",
      "outputs": [],
      "stateMutability": "nonpayable",
      "type": "function"
    },
    {
      "inputs": [],
      "name": "initPriceFeed",
      "outputs": [],
      "stateMutability": "nonpayable",
      "type": "function"
    },
    {
      "inputs": [],
      "name": "initBalancer",
      "outputs": [],
      "stateMutability": "nonpayable",
      "type": "function"
    },
    {
      "inputs": [],
      "name": "initPoolWrapper",
      "outputs": [],
      "stateMutability": "nonpayable",
      "type": "function"
    },
    {
      "inputs": [],
      "name": "initAUSDIssuer",
      "outputs": [],
      "stateMutability": "nonpayable",
      "type": "function"
    },
    {
      "inputs": [
        {
          "internalType": "address",
          "name": "_controller",
          "type": "address"
        }
      ],
      "name": "initController",
      "outputs": [],
      "stateMutability": "nonpayable",
      "type": "function"
    },
    {
      "inputs": [],
      "name": "initControllerBalancer",
      "outputs": [],
      "stateMutability": "nonpayable",
      "type": "function"
    },
    {
      "inputs": [],
      "name": "renounceGovernor",
      "outputs": [],
      "stateMutability": "nonpayable",
      "type": "function"
    }
  ],
  "bytecode": "0x608060405234801561001057600080fd5b50604051615f76380380615f768339818101604052602081101561003357600080fd5b505160006100486001600160e01b0361009916565b600080546001600160a01b0319166001600160a01b0383169081178255604051929350917f8be0079c531659141344cd1fd0a4f28419497f9722a3daafe3b4186f6b6457e0908290a35061009d9050565b3390565b615eca806100ac6000396000f3fe60806040523480156200001157600080fd5b5060043610620001965760003560e01c80638f5010df11620000f3578063c8ccd53911620000a5578063f2fde38b116200007b578063f2fde38b146200029d578063f77c479114620002c6578063f851a44014620002d0578063fb01cc3614620002da5762000196565b8063c8ccd539146200027f578063d755fa771462000289578063e026049c14620002935762000196565b80638f5010df1462000243578063ad5c4648146200024d578063c0d1bfe31462000257578063c23af8321462000261578063c5766619146200026b578063c74c0fac14620002755762000196565b80636cb96376116200014d5780636cb963761462000207578063715018a61462000211578063741bef1a146200021b578063758d9878146200022557806382714a8d146200022f5780638da5cb5b14620002395762000196565b806313da9027146200019b57806332fe7b2614620001c1578063387347fd14620001cb5780634096e1b414620001d75780634638951d14620001e1578063478ba35c14620001eb575b600080fd5b620001a562000303565b604080516001600160a01b039092168252519081900360200190f35b620001a56200031b565b620001d562000333565b005b620001d562000415565b620001a562000729565b620001f562000738565b60408051918252519081900360200190f35b620001d56200073e565b620001d5620009f4565b620001a562000aa6565b620001a562000ab5565b620001f562000ac4565b620001a562000aca565b620001d562000ad9565b620001a562000bbc565b620001a562000bd4565b620001a562000be3565b620001d562000bf2565b620001a562000cf1565b620001a562000d09565b620001d562000d18565b620001d562000df6565b620001d560048036036020811015620002b557600080fd5b50356001600160a01b031662000ecf565b620001a562000fd9565b620001a562000fe8565b620001d560048036036020811015620002f257600080fd5b50356001600160a01b031662000ff7565b739326bfa02add2366b30bacb125260af64103133181565b737a250d5630b4cf539739df2c5dacb4c659f2488d81565b6200033d620011c1565b6001600160a01b03166200035062000aca565b6001600160a01b0316146200039b576040805162461bcd60e51b8152602060048201819052602482015260008051602062005e75833981519152604482015290519081900360640190fd5b610384739326bfa02add2366b30bacb125260af641031331604051620003c190620011c5565b9182526001600160a01b03166020820152604080519182900301906000f080158015620003f2573d6000803e3d6000fd5b50600780546001600160a01b0319166001600160a01b0392909216919091179055565b6200041f620011c1565b6001600160a01b03166200043262000aca565b6001600160a01b0316146200047d576040805162461bcd60e51b8152602060048201819052602482015260008051602062005e75833981519152604482015290519081900360640190fd5b6004805460065460408051630760814d60e21b81526001600160a01b039283169481019490945251911691631d82053491602480830192600092919082900301818387803b158015620004cf57600080fd5b505af1158015620004e4573d6000803e3d6000fd5b50506004805460055460408051631a30cae760e21b81526001600160a01b039283169481019490945251911693506368c32b9c9250602480830192600092919082900301818387803b1580156200053a57600080fd5b505af11580156200054f573d6000803e3d6000fd5b505060048054600654604080516316f0115b60e01b815290516001600160a01b039384169650637e788c9d955092909116926316f0115b928282019260209290829003018186803b158015620005a457600080fd5b505afa158015620005b9573d6000803e3d6000fd5b505050506040513d6020811015620005d057600080fd5b5051600754604080516001600160e01b031960e086901b16815260048101939093526001600160a01b03909116602483015251604480830192600092919082900301818387803b1580156200062457600080fd5b505af115801562000639573d6000803e3d6000fd5b505060048054600854604080516316f0115b60e01b815290516001600160a01b039384169650630a351afd955092909116926316f0115b928282019260209290829003018186803b1580156200068e57600080fd5b505afa158015620006a3573d6000803e3d6000fd5b505050506040513d6020811015620006ba57600080fd5b5051600854604080516001600160e01b031960e086901b16815260048101939093526001600160a01b03909116602483015251604480830192600092919082900301818387803b1580156200070e57600080fd5b505af115801562000723573d6000803e3d6000fd5b50505050565b6002546001600160a01b031681565b61038481565b62000748620011c1565b6001600160a01b03166200075b62000aca565b6001600160a01b031614620007a6576040805162461bcd60e51b8152602060048201819052602482015260008051602062005e75833981519152604482015290519081900360640190fd5b6003546040805163e6a4390560e01b81526001600160a01b03909216600483015273d0a1e359811322d97991e03f863a0c30c2cf029c602483015251600091735c69bee701ef814a2b6a3edd4b1652cb9cc5aa6f9163e6a4390591604480820192602092909190829003018186803b1580156200082257600080fd5b505afa15801562000837573d6000803e3d6000fd5b505050506040513d60208110156200084e57600080fd5b50516001600160a01b0316146200092a576003546040805163e6a4390560e01b81526001600160a01b03909216600483015273d0a1e359811322d97991e03f863a0c30c2cf029c602483015251735c69bee701ef814a2b6a3edd4b1652cb9cc5aa6f9163e6a43905916044808301926020929190829003018186803b158015620008d757600080fd5b505afa158015620008ec573d6000803e3d6000fd5b505050506040513d60208110156200090357600080fd5b5051600280546001600160a01b0319166001600160a01b03909216919091179055620009f2565b600354604080516364e329cb60e11b81526001600160a01b03909216600483015273d0a1e359811322d97991e03f863a0c30c2cf029c602483015251735c69bee701ef814a2b6a3edd4b1652cb9cc5aa6f9163c9c653969160448083019260209291908290030181600087803b158015620009a457600080fd5b505af1158015620009b9573d6000803e3d6000fd5b505050506040513d6020811015620009d057600080fd5b5051600280546001600160a01b0319166001600160a01b039092169190911790555b565b620009fe620011c1565b6001600160a01b031662000a1162000aca565b6001600160a01b03161462000a5c576040805162461bcd60e51b8152602060048201819052602482015260008051602062005e75833981519152604482015290519081900360640190fd5b600080546040516001600160a01b03909116907f8be0079c531659141344cd1fd0a4f28419497f9722a3daafe3b4186f6b6457e0908390a3600080546001600160a01b0319169055565b6007546001600160a01b031681565b6008546001600160a01b031681565b611c2081565b6000546001600160a01b031690565b62000ae3620011c1565b6001600160a01b031662000af662000aca565b6001600160a01b03161462000b41576040805162461bcd60e51b8152602060048201819052602482015260008051602062005e75833981519152604482015290519081900360640190fd5b6004546002546040516001600160a01b03928316929091169062000b6590620011d3565b6001600160a01b03928316815291166020820152604080519182900301906000f08015801562000b99573d6000803e3d6000fd5b50600680546001600160a01b0319166001600160a01b0392909216919091179055565b73d0a1e359811322d97991e03f863a0c30c2cf029c81565b6006546001600160a01b031681565b6003546001600160a01b031681565b62000bfc620011c1565b6001600160a01b031662000c0f62000aca565b6001600160a01b03161462000c5a576040805162461bcd60e51b8152602060048201819052602482015260008051602062005e75833981519152604482015290519081900360640190fd5b60045460405173d0a1e359811322d97991e03f863a0c30c2cf029c916001600160a01b031690611c209062000c8f90620011e1565b6001600160a01b039384168152919092166020820152604080820192909252905190819003606001906000f08015801562000cce573d6000803e3d6000fd5b50600880546001600160a01b0319166001600160a01b0392909216919091179055565b735c69bee701ef814a2b6a3edd4b1652cb9cc5aa6f81565b6005546001600160a01b031681565b62000d22620011c1565b6001600160a01b031662000d3562000aca565b6001600160a01b03161462000d80576040805162461bcd60e51b8152602060048201819052602482015260008051602062005e75833981519152604482015290519081900360640190fd5b6004546040516001600160a01b0390911690611c209062000da190620011ef565b6001600160a01b0390921682526020820152604080519182900301906000f08015801562000dd3573d6000803e3d6000fd5b50600580546001600160a01b0319166001600160a01b0392909216919091179055565b62000e00620011c1565b6001600160a01b031662000e1362000aca565b6001600160a01b03161462000e5e576040805162461bcd60e51b8152602060048201819052602482015260008051602062005e75833981519152604482015290519081900360640190fd5b600480546040805163e6eb982f60e01b81523093810193909352516001600160a01b039091169163e6eb982f91602480830192600092919082900301818387803b15801562000eac57600080fd5b505af115801562000ec1573d6000803e3d6000fd5b50505050620009f2620009f4565b62000ed9620011c1565b6001600160a01b031662000eec62000aca565b6001600160a01b03161462000f37576040805162461bcd60e51b8152602060048201819052602482015260008051602062005e75833981519152604482015290519081900360640190fd5b6001600160a01b03811662000f7e5760405162461bcd60e51b815260040180806020018281038252602681526020018062005e4f6026913960400191505060405180910390fd5b600080546040516001600160a01b03808516939216917f8be0079c531659141344cd1fd0a4f28419497f9722a3daafe3b4186f6b6457e091a3600080546001600160a01b0319166001600160a01b0392909216919091179055565b6004546001600160a01b031681565b6001546001600160a01b031681565b62001001620011c1565b6001600160a01b03166200101462000aca565b6001600160a01b0316146200105f576040805162461bcd60e51b8152602060048201819052602482015260008051602062005e75833981519152604482015290519081900360640190fd5b600480546001600160a01b0319166001600160a01b0383811691909117808355604080516370e39c9560e11b81529051919092169263e1c7392a9280820192600092909182900301818387803b158015620010b957600080fd5b505af1158015620010ce573d6000803e3d6000fd5b5050600480546040805163611d7c1960e11b815290516001600160a01b03909216945063c23af83293508083019260209291829003018186803b1580156200111557600080fd5b505afa1580156200112a573d6000803e3d6000fd5b505050506040513d60208110156200114157600080fd5b5051600380546001600160a01b0319166001600160a01b03928316179055600480546040805163072b8c5d60e31b815233938101939093525192169163395c62e89160248082019260009290919082900301818387803b158015620011a557600080fd5b505af1158015620011ba573d6000803e3d6000fd5b5050505050565b3390565b61067980620011fe83390190565b611504806200187783390190565b6119f48062002d7b83390190565b6116e0806200476f8339019056fe60806040819052670de0b6b3a76400006002556208aa8960eb1b90527faaaebeba3810b1e6b70781f14b2d72c1cb89c0b2b320c43bb67ff79f562f5ff460055534801561004b57600080fd5b506040516106793803806106798339818101604052604081101561006e57600080fd5b5080516020909101516000829055600180546001600160a01b0319166001600160a01b03831617905561009f6100a6565b5050610298565b60015460408051633fabe5a360e21b815290516000926001600160a01b03169163feaf968c9160048083019260a0929190829003018186803b1580156100eb57600080fd5b505afa1580156100ff573d6000803e3d6000fd5b505050506040513d60a081101561011557600080fd5b506020908101516001546040805163313ce56760e01b815290519294506101c5936001600160a01b039092169263313ce56792600480840193919291829003018186803b15801561016557600080fd5b505afa158015610179573d6000803e3d6000fd5b505050506040513d602081101561018f57600080fd5b505160025460ff909116600a0a906101b39084906101cf602090811b61029117901c565b61023160201b6102f31790919060201c565b6004555042600355565b6000826101de5750600061022b565b828202828482816101eb57fe5b04146102285760405162461bcd60e51b81526004018080602001828103825260218152602001806106586021913960400191505060405180910390fd5b90505b92915050565b6000808211610287576040805162461bcd60e51b815260206004820152601a60248201527f536166654d6174683a206469766973696f6e206279207a65726f000000000000604482015290519081900360640190fd5b81838161029057fe5b049392505050565b6103b1806102a76000396000f3fe608060405234801561001057600080fd5b506004361061007d5760003560e01c8063a2e620451161005b578063a2e62045146100c5578063ead50da3146100cf578063f3bd7103146100d7578063fbaf894c146100df5761007d565b806316f0115b146100825780636bdfeea71461009c578063a035b1fe146100bd575b600080fd5b61008a6100e7565b60408051918252519081900360200190f35b6100a46100ed565b6040805192835290151560208301528051918290030190f35b61008a6100fe565b6100cd610161565b005b61008a61027f565b61008a610285565b61008a61028b565b60055481565b600454600054600354420311159091565b600080546003544203111561015a576040805162461bcd60e51b815260206004820181905260248201527f436861696e6c696e6b20507269636520466565643a205374616c652044617461604482015290519081900360640190fd5b5060045490565b60015460408051633fabe5a360e21b815290516000926001600160a01b03169163feaf968c9160048083019260a0929190829003018186803b1580156101a657600080fd5b505afa1580156101ba573d6000803e3d6000fd5b505050506040513d60a08110156101d057600080fd5b506020908101516001546040805163313ce56760e01b81529051929450610275936001600160a01b039092169263313ce56792600480840193919291829003018186803b15801561022057600080fd5b505afa158015610234573d6000803e3d6000fd5b505050506040513d602081101561024a57600080fd5b505160025460ff909116600a0a9061026990849063ffffffff61029116565b9063ffffffff6102f316565b6004555042600355565b60005481565b60045481565b60035481565b6000826102a0575060006102ed565b828202828482816102ad57fe5b04146102ea5760405162461bcd60e51b815260040180806020018281038252602181526020018061035b6021913960400191505060405180910390fd5b90505b92915050565b6000808211610349576040805162461bcd60e51b815260206004820152601a60248201527f536166654d6174683a206469766973696f6e206279207a65726f000000000000604482015290519081900360640190fd5b81838161035257fe5b04939250505056fe536166654d6174683a206d756c7469706c69636174696f6e206f766572666c6f77a26469706673582212204a014862550c876349490a1949081a28d96e37491f9291ace5f4fc669682fb0664736f6c63430006060033536166654d6174683a206d756c7469706c69636174696f6e206f766572666c6f77608060408190526208aa8960eb1b90527faaaebeba3810b1e6b70781f14b2d72c1cb89c0b2b320c43bb67ff79f562f5ff4600155670de0b6b3a764000060035534801561004b57600080fd5b506040516115043803806115048339818101604052604081101561006e57600080fd5b508051602090910151600080546001600160a01b03938416610100026001600160a81b031990911617905560028054929091166001600160a01b0319928316811790915560048054909216179055611439806100cb6000396000f3fe608060405234801561001057600080fd5b50600436106100f55760003560e01c80638456cb5911610097578063c80cb44311610066578063c80cb443146101cd578063f77c4791146101d5578063fc0c546a146101dd578063fd1827e2146101e5576100f5565b80638456cb591461018f57806392eefe9b14610197578063a8aa1b31146101bd578063c23af832146101c5576100f5565b80631755ff21116100d35780631755ff211461013d5780633f4ba83a146101615780633f966a161461016b5780635c975abb14610173576100f5565b80630902f1ac146100fa5780630d5b00c31461011b57806316f0115b14610135575b600080fd5b6101026101ed565b6040805192835260208301919091528051918290030190f35b610123610337565b60408051918252519081900360200190f35b6101236103c8565b6101456103ce565b604080516001600160a01b039092168252519081900360200190f35b6101696103dd565b005b61016961051f565b61017b6108fa565b604080519115158252519081900360200190f35b610169610903565b610169600480360360208110156101ad57600080fd5b50356001600160a01b0316610a43565b610145610b49565b610145610b58565b610123610ba7565b610145610bb1565b610145610bc5565b610145610cd4565b6000806000600460009054906101000a90046001600160a01b03166001600160a01b0316630dfe16816040518163ffffffff1660e01b815260040160206040518083038186803b15801561024057600080fd5b505afa158015610254573d6000803e3d6000fd5b505050506040513d602081101561026a57600080fd5b50516004805460408051630240bc6b60e21b8152905193945060009384936001600160a01b0390931692630902f1ac92808201926060929091829003018186803b1580156102b757600080fd5b505afa1580156102cb573d6000803e3d6000fd5b505050506040513d60608110156102e157600080fd5b5080516020909101516dffffffffffffffffffffffffffff91821693501690506001600160a01b038316610313610b58565b6001600160a01b03161461032857808261032b565b81815b90955093505050509091565b6000610341610b58565b6001600160a01b03166370a08231306040518263ffffffff1660e01b815260040180826001600160a01b03166001600160a01b0316815260200191505060206040518083038186803b15801561039657600080fd5b505afa1580156103aa573d6000803e3d6000fd5b505050506040513d60208110156103c057600080fd5b505190505b90565b60015481565b6002546001600160a01b031681565b60005460408051631c86b03760e31b815233600482015290516101009092046001600160a01b03169163e43581b891602480820192602092909190829003018186803b15801561042c57600080fd5b505afa158015610440573d6000803e3d6000fd5b505050506040513d602081101561045657600080fd5b5051806104da575060005460408051630c68ba2160e01b815233600482015290516101009092046001600160a01b031691630c68ba2191602480820192602092909190829003018186803b1580156104ad57600080fd5b505afa1580156104c1573d6000803e3d6000fd5b505050506040513d60208110156104d757600080fd5b50515b6105155760405162461bcd60e51b815260040180806020018281038252603381526020018061130f6033913960400191505060405180910390fd5b61051d610d23565b565b6000546040805163cdb5320560e01b815233600482015290516101009092046001600160a01b03169163cdb5320591602480820192602092909190829003018186803b15801561056e57600080fd5b505afa158015610582573d6000803e3d6000fd5b505050506040513d602081101561059857600080fd5b50516105d55760405162461bcd60e51b81526004018080602001828103825260278152602001806113426027913960400191505060405180910390fd5b60006105df610bc5565b90506000806105ec6101ed565b9150915060006105fc8284610dc3565b905080156108f45761060c610bb1565b6001600160a01b031663e563037e6040518163ffffffff1660e01b815260040160206040518083038186803b15801561064457600080fd5b505afa158015610658573d6000803e3d6000fd5b505050506040513d602081101561066e57600080fd5b505160025460408051637aa9bf6f60e11b81526001600160a01b0388811660048301529283166024820152604481018590529051919092169163f5537ede91606480830192600092919082900301818387803b1580156106cd57600080fd5b505af11580156106e1573d6000803e3d6000fd5b5050505060006106f2828486610f32565b6004805460408051630dfe168160e01b8152905193945060009384936001600160a01b03808c16941692630dfe16819281830192602092829003018186803b15801561073d57600080fd5b505afa158015610751573d6000803e3d6000fd5b505050506040513d602081101561076757600080fd5b50516001600160a01b03161461077f57826000610783565b6000835b60045491935091506001600160a01b031663022c0d9f83836107a3610bb1565b6001600160a01b031663e563037e6040518163ffffffff1660e01b815260040160206040518083038186803b1580156107db57600080fd5b505afa1580156107ef573d6000803e3d6000fd5b505050506040513d602081101561080557600080fd5b50516040805160008082526020820190925290506040518563ffffffff1660e01b815260040180858152602001848152602001836001600160a01b03166001600160a01b0316815260200180602001828103825283818151815260200191508051906020019080838360005b83811015610889578181015183820152602001610871565b50505050905090810190601f1680156108b65780820380516001836020036101000a031916815260200191505b5095505050505050600060405180830381600087803b1580156108d857600080fd5b505af11580156108ec573d6000803e3d6000fd5b505050505050505b50505050565b60005460ff1690565b60005460408051631c86b03760e31b815233600482015290516101009092046001600160a01b03169163e43581b891602480820192602092909190829003018186803b15801561095257600080fd5b505afa158015610966573d6000803e3d6000fd5b505050506040513d602081101561097c57600080fd5b505180610a00575060005460408051630c68ba2160e01b815233600482015290516101009092046001600160a01b031691630c68ba2191602480820192602092909190829003018186803b1580156109d357600080fd5b505afa1580156109e7573d6000803e3d6000fd5b505050506040513d60208110156109fd57600080fd5b50515b610a3b5760405162461bcd60e51b815260040180806020018281038252603381526020018061130f6033913960400191505060405180910390fd5b61051d611022565b60005460408051631c86b03760e31b815233600482015290516101009092046001600160a01b03169163e43581b891602480820192602092909190829003018186803b158015610a9257600080fd5b505afa158015610aa6573d6000803e3d6000fd5b505050506040513d6020811015610abc57600080fd5b5051610af95760405162461bcd60e51b81526004018080602001828103825260278152602001806113696027913960400191505060405180910390fd5b60008054610100600160a81b0319166101006001600160a01b03841690810291909117825560405190917f5b9e04ebd57dd0a9649b6a969291839f2794d18ee0dfe7027b5757db16eb98b691a250565b6004546001600160a01b031681565b60008060019054906101000a90046001600160a01b03166001600160a01b031663c23af8326040518163ffffffff1660e01b815260040160206040518083038186803b15801561039657600080fd5b6000610341610cd4565b60005461010090046001600160a01b031690565b6004805460408051630dfe168160e01b8152905160009384936001600160a01b031692630dfe16819281830192602092829003018186803b158015610c0957600080fd5b505afa158015610c1d573d6000803e3d6000fd5b505050506040513d6020811015610c3357600080fd5b505190506001600160a01b038116610c49610b58565b6001600160a01b03161415610ccf57600480546040805163d21220a760e01b815290516001600160a01b039092169263d21220a7928282019260209290829003018186803b158015610c9a57600080fd5b505afa158015610cae573d6000803e3d6000fd5b505050506040513d6020811015610cc457600080fd5b505191506103c59050565b905090565b60008060019054906101000a90046001600160a01b03166001600160a01b031663fd1827e26040518163ffffffff1660e01b815260040160206040518083038186803b15801561039657600080fd5b610d2b6108fa565b610d73576040805162461bcd60e51b815260206004820152601460248201527314185d5cd8589b194e881b9bdd081c185d5cd95960621b604482015290519081900360640190fd5b6000805460ff191690557f5db9ee0a495bf2e6ff9c91a7834c1ba4fdd244a5e8aa4e537bd38aeae4b073aa610da66110a1565b604080516001600160a01b039092168252519081900360200190a1565b600080610dce610bb1565b6001600160a01b0316637061e80f6001546040518263ffffffff1660e01b81526004018082815260200191505060206040518083038186803b158015610e1357600080fd5b505afa158015610e27573d6000803e3d6000fd5b505050506040513d6020811015610e3d57600080fd5b50516040805163501ad8ff60e11b815290516001600160a01b039092169163a035b1fe91600480820192602092909190829003018186803b158015610e8157600080fd5b505afa158015610e95573d6000803e3d6000fd5b505050506040513d6020811015610eab57600080fd5b505190506000610ee9670de0b6b3a7640000610edd84610ed1888a63ffffffff6110a516565b9063ffffffff61110516565b9063ffffffff6110a516565b90506000610ef68261116c565b905085811115610f2457610f1a6103e5610ed18884036103e863ffffffff6110a516565b9350505050610f2c565b600093505050505b92915050565b6000808411610f725760405162461bcd60e51b815260040180806020018281038252602b8152602001806113d9602b913960400191505060405180910390fd5b600083118015610f825750600082115b610fbd5760405162461bcd60e51b81526004018080602001828103825260288152602001806113906028913960400191505060405180910390fd5b6000610fd1856103e563ffffffff6110a516565b90506000610fe5828563ffffffff6110a516565b9050600061100b83610fff886103e863ffffffff6110a516565b9063ffffffff6112b416565b905080828161101657fe5b04979650505050505050565b61102a6108fa565b1561106f576040805162461bcd60e51b815260206004820152601060248201526f14185d5cd8589b194e881c185d5cd95960821b604482015290519081900360640190fd5b6000805460ff191660011790557f62e78cea01bee320cd4e420270b5ea74000d11b0c9f74754ebdbfc544b05a258610da65b3390565b6000826110b457506000610f2c565b828202828482816110c157fe5b04146110fe5760405162461bcd60e51b81526004018080602001828103825260218152602001806113b86021913960400191505060405180910390fd5b9392505050565b600080821161115b576040805162461bcd60e51b815260206004820152601a60248201527f536166654d6174683a206469766973696f6e206279207a65726f000000000000604482015290519081900360640190fd5b81838161116457fe5b049392505050565b60008161117b575060006112af565b816001600160801b82106111945760809190911c9060401b5b6801000000000000000082106111af5760409190911c9060201b5b64010000000082106111c65760209190911c9060101b5b6201000082106111db5760109190911c9060081b5b61010082106111ef5760089190911c9060041b5b601082106112025760049190911c9060021b5b6008821061120e5760011b5b600181858161121957fe5b048201901c9050600181858161122b57fe5b048201901c9050600181858161123d57fe5b048201901c9050600181858161124f57fe5b048201901c9050600181858161126157fe5b048201901c9050600181858161127357fe5b048201901c9050600181858161128557fe5b048201901c9050600081858161129757fe5b0490508082106112a757806112a9565b815b93505050505b919050565b6000828201838110156110fe576040805162461bcd60e51b815260206004820152601b60248201527f536166654d6174683a206164646974696f6e206f766572666c6f770000000000604482015290519081900360640190fdfe436f6e74726f6c6c65725265663a2043616c6c6572206973206e6f74206120677561726469616e206f7220676f7665726e6f72436f6e74726f6c6c65725265663a2043616c6c6572206973206e6f7420612062616c616e636572436f6e74726f6c6c65725265663a2043616c6c6572206973206e6f74206120676f7665726e6f72556e697377617056324c6962726172793a20494e53554646494349454e545f4c4951554944495459536166654d6174683a206d756c7469706c69636174696f6e206f766572666c6f77556e697377617056324c6962726172793a20494e53554646494349454e545f494e5055545f414d4f554e54a264697066735822122088883d3ef02c5fe32cc4194ddfa48a4c901e47a0abad69cdd62b226da7987cc164736f6c63430006060033608060408190526208aa8960eb1b90527faaaebeba3810b1e6b70781f14b2d72c1cb89c0b2b320c43bb67ff79f562f5ff460035534801561003f57600080fd5b506040516119f43803806119f48339818101604052606081101561006257600080fd5b50805160208201516040909201519091908181610087816001600160e01b036100cf16565b50600280546001600160a81b0319166101006001600160a01b0393841602179055600480546001600160a01b0319169185169190911790556100c761010a565b505050610144565b60018190556040805182815290517fef01a748b5b8a4f1d48b88861f6d361d7391ad2bbed27ff97d762889ca80d7379181900360200190a150565b42600081905560408051918252517fd1dbb2ce8081405078443ef34dae718285114121a39370b14ef01b9d2b0a20839181900360200190a1565b6118a1806101536000396000f3fe6080604052600436106101345760003560e01c80638456cb59116100ab578063c23af8321161006f578063c23af83214610308578063c80cb4431461031d578063e1d92bf814610332578063e94e0b6f1461035c578063f77c47911461038f578063fd1827e2146103a457610134565b80638456cb591461028e57806392eefe9b146102a3578063acc4bd08146102d6578063ae951b2e146102eb578063b59d6dd51461030057610134565b806338d52e0f116100fd57806338d52e0f146101dd5780633f4ba83a1461020e5780635c975abb1461022557806367fc6dea1461023a57806378e979251461024f5780637bffd64b1461026457610134565b8062d89b33146101395780630875066a146101625780630d5b00c31461019e5780630fb5a6b4146101b357806316f0115b146101c8575b600080fd5b34801561014557600080fd5b5061014e6103b9565b604080519115158252519081900360200190f35b34801561016e57600080fd5b5061018c6004803603602081101561018557600080fd5b50356103c2565b60408051918252519081900360200190f35b3480156101aa57600080fd5b5061018c6104dd565b3480156101bf57600080fd5b5061018c61056d565b3480156101d457600080fd5b5061018c610573565b3480156101e957600080fd5b506101f2610579565b604080516001600160a01b039092168252519081900360200190f35b34801561021a57600080fd5b50610223610588565b005b34801561023157600080fd5b5061014e6106ca565b34801561024657600080fd5b5061018c6106d3565b34801561025b57600080fd5b5061018c610707565b34801561027057600080fd5b506102236004803603602081101561028757600080fd5b503561070d565b34801561029a57600080fd5b506102236108e3565b3480156102af57600080fd5b50610223600480360360208110156102c657600080fd5b50356001600160a01b0316610a23565b3480156102e257600080fd5b5061018c610b2b565b3480156102f757600080fd5b5061014e610b3e565b610223610b4e565b34801561031457600080fd5b506101f2610bf2565b34801561032957600080fd5b5061018c610c42565b34801561033e57600080fd5b506102236004803603602081101561035557600080fd5b5035610c4c565b34801561036857600080fd5b506102236004803603602081101561037f57600080fd5b50356001600160a01b0316610d0e565b34801561039b57600080fd5b506101f2610e6a565b3480156103b057600080fd5b506101f2610e7e565b60005415155b90565b6000806103cd610e6a565b6001600160a01b0316637061e80f6003546040518263ffffffff1660e01b81526004018082815260200191505060206040518083038186803b15801561041257600080fd5b505afa158015610426573d6000803e3d6000fd5b505050506040513d602081101561043c57600080fd5b50516040805163501ad8ff60e11b815290516001600160a01b039092169163a035b1fe91600480820192602092909190829003018186803b15801561048057600080fd5b505afa158015610494573d6000803e3d6000fd5b505050506040513d60208110156104aa57600080fd5b505190506104d6670de0b6b3a76400006104ca838663ffffffff610ece16565b9063ffffffff610f3016565b9392505050565b60006104e7610bf2565b6001600160a01b03166370a08231306040518263ffffffff1660e01b815260040180826001600160a01b03166001600160a01b0316815260200191505060206040518083038186803b15801561053c57600080fd5b505afa158015610550573d6000803e3d6000fd5b505050506040513d602081101561056657600080fd5b5051905090565b60015481565b60035481565b6004546001600160a01b031681565b60025460408051631c86b03760e31b815233600482015290516101009092046001600160a01b03169163e43581b891602480820192602092909190829003018186803b1580156105d757600080fd5b505afa1580156105eb573d6000803e3d6000fd5b505050506040513d602081101561060157600080fd5b505180610685575060025460408051630c68ba2160e01b815233600482015290516101009092046001600160a01b031691630c68ba2191602480820192602092909190829003018186803b15801561065857600080fd5b505afa15801561066c573d6000803e3d6000fd5b505050506040513d602081101561068257600080fd5b50515b6106c05760405162461bcd60e51b81526004018080602001828103825260338152602001806117416033913960400191505060405180910390fd5b6106c8610f97565b565b60025460ff1690565b60006106dd6103b9565b6106e9575060006103bf565b60015460005442038181116106fe5780610700565b815b9250505090565b60005481565b6107156106ca565b1561075a576040805162461bcd60e51b815260206004820152601060248201526f14185d5cd8589b194e881c185d5cd95960821b604482015290519081900360640190fd5b61077f610765611037565b6004546001600160a01b031690308463ffffffff61103b16565b610787610e6a565b6001600160a01b0316637061e80f6003546040518263ffffffff1660e01b81526004018082815260200191505060206040518083038186803b1580156107cc57600080fd5b505afa1580156107e0573d6000803e3d6000fd5b505050506040513d60208110156107f657600080fd5b50516040805163a2e6204560e01b815290516001600160a01b039092169163a2e620459160048082019260009290919082900301818387803b15801561083b57600080fd5b505af115801561084f573d6000803e3d6000fd5b50505050600061085e826103c2565b9050610868610bf2565b6001600160a01b03166340c10f1933836040518363ffffffff1660e01b815260040180836001600160a01b03166001600160a01b0316815260200182815260200192505050600060405180830381600087803b1580156108c757600080fd5b505af11580156108db573d6000803e3d6000fd5b505050505050565b60025460408051631c86b03760e31b815233600482015290516101009092046001600160a01b03169163e43581b891602480820192602092909190829003018186803b15801561093257600080fd5b505afa158015610946573d6000803e3d6000fd5b505050506040513d602081101561095c57600080fd5b5051806109e0575060025460408051630c68ba2160e01b815233600482015290516101009092046001600160a01b031691630c68ba2191602480820192602092909190829003018186803b1580156109b357600080fd5b505afa1580156109c7573d6000803e3d6000fd5b505050506040513d60208110156109dd57600080fd5b50515b610a1b5760405162461bcd60e51b81526004018080602001828103825260338152602001806117416033913960400191505060405180910390fd5b6106c861109b565b60025460408051631c86b03760e31b815233600482015290516101009092046001600160a01b03169163e43581b891602480820192602092909190829003018186803b158015610a7257600080fd5b505afa158015610a86573d6000803e3d6000fd5b505050506040513d6020811015610a9c57600080fd5b5051610ad95760405162461bcd60e51b81526004018080602001828103825260278152602001806117d46027913960400191505060405180910390fd5b60028054610100600160a81b0319166101006001600160a01b038416908102919091179091556040517f5b9e04ebd57dd0a9649b6a969291839f2794d18ee0dfe7027b5757db16eb98b690600090a250565b6000610b356106d3565b60015403905090565b6000610b48610b2b565b15905090565b610b566106ca565b15610b9b576040805162461bcd60e51b815260206004820152601060248201526f14185d5cd8589b194e881c185d5cd95960821b604482015290519081900360640190fd5b60003411610bda5760405162461bcd60e51b815260040180806020018281038252602681526020018061181c6026913960400191505060405180910390fd5b600454349061077f906001600160a01b03168261111e565b6000600260019054906101000a90046001600160a01b03166001600160a01b031663c23af8326040518163ffffffff1660e01b815260040160206040518083038186803b15801561053c57600080fd5b60006104e7610e7e565b60025460408051631c86b03760e31b815233600482015290516101009092046001600160a01b03169163e43581b891602480820192602092909190829003018186803b158015610c9b57600080fd5b505afa158015610caf573d6000803e3d6000fd5b505050506040513d6020811015610cc557600080fd5b5051610d025760405162461bcd60e51b81526004018080602001828103825260278152602001806117d46027913960400191505060405180910390fd5b610d0b81611208565b50565b604080516370a0823160e01b815230600482015290516000916001600160a01b038416916370a0823191602480820192602092909190829003018186803b158015610d5857600080fd5b505afa158015610d6c573d6000803e3d6000fd5b505050506040513d6020811015610d8257600080fd5b5051905080610dc25760405162461bcd60e51b81526004018080602001828103825260298152602001806117186029913960400191505060405180910390fd5b610e48610dcd610e6a565b6001600160a01b031663e563037e6040518163ffffffff1660e01b815260040160206040518083038186803b158015610e0557600080fd5b505afa158015610e19573d6000803e3d6000fd5b505050506040513d6020811015610e2f57600080fd5b50516001600160a01b038416908363ffffffff61124316565b6004546001600160a01b0383811691161415610e6657610e66611295565b5050565b60025461010090046001600160a01b031690565b6000600260019054906101000a90046001600160a01b03166001600160a01b031663fd1827e26040518163ffffffff1660e01b815260040160206040518083038186803b15801561053c57600080fd5b600082610edd57506000610f2a565b82820282848281610eea57fe5b0414610f275760405162461bcd60e51b81526004018080602001828103825260218152602001806117fb6021913960400191505060405180910390fd5b90505b92915050565b6000808211610f86576040805162461bcd60e51b815260206004820152601a60248201527f536166654d6174683a206469766973696f6e206279207a65726f000000000000604482015290519081900360640190fd5b818381610f8f57fe5b049392505050565b610f9f6106ca565b610fe7576040805162461bcd60e51b815260206004820152601460248201527314185d5cd8589b194e881b9bdd081c185d5cd95960621b604482015290519081900360640190fd5b6002805460ff191690557f5db9ee0a495bf2e6ff9c91a7834c1ba4fdd244a5e8aa4e537bd38aeae4b073aa61101a611037565b604080516001600160a01b039092168252519081900360200190a1565b3390565b604080516001600160a01b0380861660248301528416604482015260648082018490528251808303909101815260849091019091526020810180516001600160e01b03166323b872dd60e01b17905261109590859061140f565b50505050565b6110a36106ca565b156110e8576040805162461bcd60e51b815260206004820152601060248201526f14185d5cd8589b194e881c185d5cd95960821b604482015290519081900360640190fd5b6002805460ff191660011790557f62e78cea01bee320cd4e420270b5ea74000d11b0c9f74754ebdbfc544b05a25861101a611037565b80471015611173576040805162461bcd60e51b815260206004820152601d60248201527f416464726573733a20696e73756666696369656e742062616c616e6365000000604482015290519081900360640190fd5b6040516000906001600160a01b0384169083908381818185875af1925050503d80600081146111be576040519150601f19603f3d011682016040523d82523d6000602084013e6111c3565b606091505b50509050806112035760405162461bcd60e51b815260040180806020018281038252603a815260200180611774603a913960400191505060405180910390fd5b505050565b60018190556040805182815290517fef01a748b5b8a4f1d48b88861f6d361d7391ad2bbed27ff97d762889ca80d7379181900360200190a150565b604080516001600160a01b038416602482015260448082018490528251808303909101815260649091019091526020810180516001600160e01b031663a9059cbb60e01b17905261120390849061140f565b600254604080516355138f0d60e11b815230600482015290516101009092046001600160a01b03169163aa271e1a91602480820192602092909190829003018186803b1580156112e457600080fd5b505afa1580156112f8573d6000803e3d6000fd5b505050506040513d602081101561130e57600080fd5b5051156106c85761131d610b3e565b156106c85761132a6114c0565b611332610bf2565b6001600160a01b03166340c10f1933611349610e6a565b6001600160a01b031663c2f926d96040518163ffffffff1660e01b815260040160206040518083038186803b15801561138157600080fd5b505afa158015611395573d6000803e3d6000fd5b505050506040513d60208110156113ab57600080fd5b5051604080516001600160e01b031960e086901b1681526001600160a01b039093166004840152602483019190915251604480830192600092919082900301818387803b1580156113fb57600080fd5b505af1158015611095573d6000803e3d6000fd5b6060611464826040518060400160405280602081526020017f5361666545524332303a206c6f772d6c6576656c2063616c6c206661696c6564815250856001600160a01b03166114fa9092919063ffffffff16565b8051909150156112035780806020019051602081101561148357600080fd5b50516112035760405162461bcd60e51b815260040180806020018281038252602a815260200180611842602a913960400191505060405180910390fd5b42600081905560408051918252517fd1dbb2ce8081405078443ef34dae718285114121a39370b14ef01b9d2b0a20839181900360200190a1565b60606115098484600085611511565b949350505050565b6060824710156115525760405162461bcd60e51b81526004018080602001828103825260268152602001806117ae6026913960400191505060405180910390fd5b61155b8561166d565b6115ac576040805162461bcd60e51b815260206004820152601d60248201527f416464726573733a2063616c6c20746f206e6f6e2d636f6e7472616374000000604482015290519081900360640190fd5b60006060866001600160a01b031685876040518082805190602001908083835b602083106115eb5780518252601f1990920191602091820191016115cc565b6001836020036101000a03801982511681845116808217855250505050505090500191505060006040518083038185875af1925050503d806000811461164d576040519150601f19603f3d011682016040523d82523d6000602084013e611652565b606091505b5091509150611662828286611673565b979650505050505050565b3b151590565b606083156116825750816104d6565b8251156116925782518084602001fd5b8160405162461bcd60e51b81526004018080602001828103825283818151815260200191508051906020019080838360005b838110156116dc5781810151838201526020016116c4565b50505050905090810190601f1680156117095780820380516001836020036101000a031916815260200191505b509250505060405180910390fdfe415553444973737565723a20416d6f756e74206d757374206265206d6f7265207468616e207a65726f436f6e74726f6c6c65725265663a2043616c6c6572206973206e6f74206120677561726469616e206f7220676f7665726e6f72416464726573733a20756e61626c6520746f2073656e642076616c75652c20726563697069656e74206d61792068617665207265766572746564416464726573733a20696e73756666696369656e742062616c616e636520666f722063616c6c436f6e74726f6c6c65725265663a2043616c6c6572206973206e6f74206120676f7665726e6f72536166654d6174683a206d756c7469706c69636174696f6e206f766572666c6f77415553444973737565723a20457468206d7573742062652067726561746572207468616e20305361666545524332303a204552433230206f7065726174696f6e20646964206e6f742073756363656564a2646970667358221220e70c1dd72a6fa8f5d9d3d14f80a2288651ecbcdbffb79732cfeba06b02ee617664736f6c634300060600336080604052670de0b6b3a764000060035534801561001c57600080fd5b506040516116e03803806116e08339818101604052604081101561003f57600080fd5b508051602090910151818161005c816001600160e01b0361009a16565b50600280546001600160a01b03909216610100026001600160a81b03199092169190911790556100936001600160e01b036100d516565b505061010f565b60018190556040805182815290517fef01a748b5b8a4f1d48b88861f6d361d7391ad2bbed27ff97d762889ca80d7379181900360200190a150565b42600081905560408051918252517fd1dbb2ce8081405078443ef34dae718285114121a39370b14ef01b9d2b0a20839181900360200190a1565b6115c28061011e6000396000f3fe608060405234801561001057600080fd5b506004361061012b5760003560e01c806392eefe9b116100ad578063e1d92bf811610071578063e1d92bf81461020a578063e9bb84c214610227578063f5537ede14610253578063f77c479114610289578063fd1827e2146102915761012b565b806392eefe9b146101a8578063acc4bd08146101ce578063ae951b2e146101d6578063c23af832146101de578063c80cb443146102025761012b565b806367fc6dea116100f457806367fc6dea146101805780636a1460241461018857806378e97925146101905780637d7c2a1c146101985780638456cb59146101a05761012b565b8062d89b33146101305780630d5b00c31461014c5780630fb5a6b4146101665780633f4ba83a1461016e5780635c975abb14610178575b600080fd5b610138610299565b604080519115158252519081900360200190f35b6101546102a2565b60408051918252519081900360200190f35b610154610332565b610176610338565b005b61013861047a565b610154610483565b6101546104b7565b6101546104bd565b6101766104c3565b6101766106bd565b610176600480360360208110156101be57600080fd5b50356001600160a01b03166107fd565b610154610905565b610138610918565b6101e6610928565b604080516001600160a01b039092168252519081900360200190f35b610154610978565b6101766004803603602081101561022057600080fd5b5035610982565b6101766004803603604081101561023d57600080fd5b506001600160a01b038135169060200135610a44565b6101766004803603606081101561026957600080fd5b506001600160a01b03813581169160208101359091169060400135610b8a565b6101e6610ce1565b6101e6610cf5565b60005415155b90565b60006102ac610928565b6001600160a01b03166370a08231306040518263ffffffff1660e01b815260040180826001600160a01b03166001600160a01b0316815260200191505060206040518083038186803b15801561030157600080fd5b505afa158015610315573d6000803e3d6000fd5b505050506040513d602081101561032b57600080fd5b5051905090565b60015481565b60025460408051631c86b03760e31b815233600482015290516101009092046001600160a01b03169163e43581b891602480820192602092909190829003018186803b15801561038757600080fd5b505afa15801561039b573d6000803e3d6000fd5b505050506040513d60208110156103b157600080fd5b505180610435575060025460408051630c68ba2160e01b815233600482015290516101009092046001600160a01b031691630c68ba2191602480820192602092909190829003018186803b15801561040857600080fd5b505afa15801561041c573d6000803e3d6000fd5b505050506040513d602081101561043257600080fd5b50515b6104705760405162461bcd60e51b815260040180806020018281038252603381526020018061143d6033913960400191505060405180910390fd5b610478610d45565b565b60025460ff1690565b600061048d610299565b6104995750600061029f565b60015460005442038181116104ae57806104b0565b815b9250505090565b60035481565b60005481565b6104cb61047a565b15610510576040805162461bcd60e51b815260206004820152601060248201526f14185d5cd8589b194e881c185d5cd95960821b604482015290519081900360640190fd5b610518610918565b6105535760405162461bcd60e51b81526004018080602001828103825260368152602001806114f76036913960400191505060405180910390fd5b60005b61055e610ce1565b6001600160a01b0316638947857c6040518163ffffffff1660e01b815260040160206040518083038186803b15801561059657600080fd5b505afa1580156105aa573d6000803e3d6000fd5b505050506040513d60208110156105c057600080fd5b50518110156106ac5760006105d3610ce1565b6001600160a01b0316636bba6068836040518263ffffffff1660e01b81526004018082815260200191505060206040518083038186803b15801561061657600080fd5b505afa15801561062a573d6000803e3d6000fd5b505050506040513d602081101561064057600080fd5b505160408051631fcb350b60e11b815290519192506001600160a01b03831691633f966a169160048082019260009290919082900301818387803b15801561068757600080fd5b505af115801561069b573d6000803e3d6000fd5b505060019093019250610556915050565b506106b5610de5565b610478610ee5565b60025460408051631c86b03760e31b815233600482015290516101009092046001600160a01b03169163e43581b891602480820192602092909190829003018186803b15801561070c57600080fd5b505afa158015610720573d6000803e3d6000fd5b505050506040513d602081101561073657600080fd5b5051806107ba575060025460408051630c68ba2160e01b815233600482015290516101009092046001600160a01b031691630c68ba2191602480820192602092909190829003018186803b15801561078d57600080fd5b505afa1580156107a1573d6000803e3d6000fd5b505050506040513d60208110156107b757600080fd5b50515b6107f55760405162461bcd60e51b815260040180806020018281038252603381526020018061143d6033913960400191505060405180910390fd5b610478610f39565b60025460408051631c86b03760e31b815233600482015290516101009092046001600160a01b03169163e43581b891602480820192602092909190829003018186803b15801561084c57600080fd5b505afa158015610860573d6000803e3d6000fd5b505050506040513d602081101561087657600080fd5b50516108b35760405162461bcd60e51b81526004018080602001828103825260278152602001806114d06027913960400191505060405180910390fd5b60028054610100600160a81b0319166101006001600160a01b038416908102919091179091556040517f5b9e04ebd57dd0a9649b6a969291839f2794d18ee0dfe7027b5757db16eb98b690600090a250565b600061090f610483565b60015403905090565b6000610922610905565b15905090565b6000600260019054906101000a90046001600160a01b03166001600160a01b031663c23af8326040518163ffffffff1660e01b815260040160206040518083038186803b15801561030157600080fd5b60006102ac610cf5565b60025460408051631c86b03760e31b815233600482015290516101009092046001600160a01b03169163e43581b891602480820192602092909190829003018186803b1580156109d157600080fd5b505afa1580156109e5573d6000803e3d6000fd5b505050506040513d60208110156109fb57600080fd5b5051610a385760405162461bcd60e51b81526004018080602001828103825260278152602001806114d06027913960400191505060405180910390fd5b610a4181610fbc565b50565b60025460408051631c86b03760e31b815233600482015290516101009092046001600160a01b03169163e43581b891602480820192602092909190829003018186803b158015610a9357600080fd5b505afa158015610aa7573d6000803e3d6000fd5b505050506040513d6020811015610abd57600080fd5b505180610b41575060025460408051630ce3fa9b60e11b815233600482015290516101009092046001600160a01b0316916319c7f53691602480820192602092909190829003018186803b158015610b1457600080fd5b505afa158015610b28573d6000803e3d6000fd5b505050506040513d6020811015610b3e57600080fd5b50515b610b7c5760405162461bcd60e51b81526004018080602001828103825260368152602001806115576036913960400191505060405180910390fd5b610b868282610ff7565b5050565b60025460408051631c86b03760e31b815233600482015290516101009092046001600160a01b03169163e43581b891602480820192602092909190829003018186803b158015610bd957600080fd5b505afa158015610bed573d6000803e3d6000fd5b505050506040513d6020811015610c0357600080fd5b505180610c87575060025460408051630ce3fa9b60e11b815233600482015290516101009092046001600160a01b0316916319c7f53691602480820192602092909190829003018186803b158015610c5a57600080fd5b505afa158015610c6e573d6000803e3d6000fd5b505050506040513d6020811015610c8457600080fd5b50515b610cc25760405162461bcd60e51b81526004018080602001828103825260368152602001806115576036913960400191505060405180910390fd5b610cdc6001600160a01b038416838363ffffffff6110dc16565b505050565b60025461010090046001600160a01b031690565b6000600260019054906101000a90046001600160a01b03166001600160a01b031663fd1827e26040518163ffffffff1660e01b815260040160206040518083038186803b15801561030157600080fd5b610d4d61047a565b610d95576040805162461bcd60e51b815260206004820152601460248201527314185d5cd8589b194e881b9bdd081c185d5cd95960621b604482015290519081900360640190fd5b6002805460ff191690557f5db9ee0a495bf2e6ff9c91a7834c1ba4fdd244a5e8aa4e537bd38aeae4b073aa610dc861112e565b604080516001600160a01b039092168252519081900360200190a1565b610ded610918565b1561047857610dfa611132565b610e02610928565b6001600160a01b03166340c10f1933610e19610ce1565b6001600160a01b03166340afc15c6040518163ffffffff1660e01b815260040160206040518083038186803b158015610e5157600080fd5b505afa158015610e65573d6000803e3d6000fd5b505050506040513d6020811015610e7b57600080fd5b5051604080516001600160e01b031960e086901b1681526001600160a01b039093166004840152602483019190915251604480830192600092919082900301818387803b158015610ecb57600080fd5b505af1158015610edf573d6000803e3d6000fd5b50505050565b610eed610928565b6001600160a01b03166342966c68610f036102a2565b6040518263ffffffff1660e01b815260040180828152602001915050600060405180830381600087803b158015610ecb57600080fd5b610f4161047a565b15610f86576040805162461bcd60e51b815260206004820152601060248201526f14185d5cd8589b194e881c185d5cd95960821b604482015290519081900360640190fd5b6002805460ff191660011790557f62e78cea01bee320cd4e420270b5ea74000d11b0c9f74754ebdbfc544b05a258610dc861112e565b60018190556040805182815290517fef01a748b5b8a4f1d48b88861f6d361d7391ad2bbed27ff97d762889ca80d7379181900360200190a150565b8047101561104c576040805162461bcd60e51b815260206004820152601d60248201527f416464726573733a20696e73756666696369656e742062616c616e6365000000604482015290519081900360640190fd5b6040516000906001600160a01b0384169083908381818185875af1925050503d8060008114611097576040519150601f19603f3d011682016040523d82523d6000602084013e61109c565b606091505b5050905080610cdc5760405162461bcd60e51b815260040180806020018281038252603a815260200180611470603a913960400191505060405180910390fd5b604080516001600160a01b038416602482015260448082018490528251808303909101815260649091019091526020810180516001600160e01b031663a9059cbb60e01b179052610cdc90849061116c565b3390565b42600081905560408051918252517fd1dbb2ce8081405078443ef34dae718285114121a39370b14ef01b9d2b0a20839181900360200190a1565b60606111c1826040518060400160405280602081526020017f5361666545524332303a206c6f772d6c6576656c2063616c6c206661696c6564815250856001600160a01b031661121d9092919063ffffffff16565b805190915015610cdc578080602001905160208110156111e057600080fd5b5051610cdc5760405162461bcd60e51b815260040180806020018281038252602a81526020018061152d602a913960400191505060405180910390fd5b606061122c8484600085611236565b90505b9392505050565b6060824710156112775760405162461bcd60e51b81526004018080602001828103825260268152602001806114aa6026913960400191505060405180910390fd5b61128085611392565b6112d1576040805162461bcd60e51b815260206004820152601d60248201527f416464726573733a2063616c6c20746f206e6f6e2d636f6e7472616374000000604482015290519081900360640190fd5b60006060866001600160a01b031685876040518082805190602001908083835b602083106113105780518252601f1990920191602091820191016112f1565b6001836020036101000a03801982511681845116808217855250505050505090500191505060006040518083038185875af1925050503d8060008114611372576040519150601f19603f3d011682016040523d82523d6000602084013e611377565b606091505b5091509150611387828286611398565b979650505050505050565b3b151590565b606083156113a757508161122f565b8251156113b75782518084602001fd5b8160405162461bcd60e51b81526004018080602001828103825283818151815260200191508051906020019080838360005b838110156114015781810151838201526020016113e9565b50505050905090810190601f16801561142e5780820380516001836020036101000a031916815260200191505b509250505060405180910390fdfe436f6e74726f6c6c65725265663a2043616c6c6572206973206e6f74206120677561726469616e206f7220676f7665726e6f72416464726573733a20756e61626c6520746f2073656e642076616c75652c20726563697069656e74206d61792068617665207265766572746564416464726573733a20696e73756666696369656e742062616c616e636520666f722063616c6c436f6e74726f6c6c65725265663a2043616c6c6572206973206e6f74206120676f7665726e6f72506f6f6c2042616c616e6365723a2043616e206f6e6c792062652063616c6c65642061667465722074696d652068617320656e6465645361666545524332303a204552433230206f7065726174696f6e20646964206e6f742073756363656564436f6e74726f6c6c65725265663a2043616c6c6572206973206e6f74206120706f6f6c57726170706572206f7220676f7665726e6f72a2646970667358221220a437bec457853b74ac6bdd39fea4a6aa54022a6c99c5c5a4dbbe3abf0ab11b9164736f6c634300060600334f776e61626c653a206e6577206f776e657220697320746865207a65726f20616464726573734f776e61626c653a2063616c6c6572206973206e6f7420746865206f776e6572a26469706673582212206a7e12cb80420ca9d28adba9c76f51fc594aaa9872a049b44996e0967c7015d464736f6c63430006060033",
  "immutableReferences": {},
  "source": "pragma solidity ^0.6.0;\n\nimport \"@uniswap/v2-core/contracts/interfaces/IUniswapV2Factory.sol\";\nimport \"@openzeppelin/contracts/token/ERC20/IERC20.sol\";\nimport \"@openzeppelin/contracts/access/Ownable.sol\";\n\nimport \"../controller/AUSDIssuer.sol\";\nimport \"../controller/IController.sol\";\nimport \"../controller/UniPoolWrapper.sol\";\nimport \"../controller/PoolBalancer.sol\";\nimport \"../token/AUSD.sol\";\nimport \"../oracle/ChainlinkPriceFeed.sol\";\n\ncontract TestNetOrchestrator is Ownable {\n\n    address public admin;\n\n    address public constant ROUTER = address(0x7a250d5630B4cF539739dF2C5dAcb4c659F2488D);\n\n    address public constant WETH = address(0xd0A1E359811322d97991E03f863a0C30C2cF029C);\n\n    address public constant CHAINLINK_AGGREGATOR = address(0x9326BFA02ADD2366b30bacB125260Af641031331);\n\n    IUniswapV2Factory public constant UNISWAP_FACTORY =\n        IUniswapV2Factory(0x5C69bEe701ef814a2B6a3EDD4B1652CB9cc5aA6f);\n    \n    address public ethAUSDPair;\n    address public ausd;\n\n    address public controller;\n    address public poolBalancer;\n    address public poolWrapper;\n    address public priceFeed;\n    address public ausdIssuer;\n\n    uint256 public constant ORACLE_FREQUENCY = 15 minutes;\n\n    uint256 public constant BALANCER_FREQUENCY = 2 hours;\n\n    constructor(address _admin) public {\n        _admin = admin;\n    }\n\n    function initPairs() public onlyOwner {\n        if(UNISWAP_FACTORY.getPair(ausd, WETH) != address(0)){\n            ethAUSDPair = UNISWAP_FACTORY.getPair(ausd, WETH);\n            return;\n        }\n        ethAUSDPair = UNISWAP_FACTORY.createPair(ausd, WETH);\n    }\n\n    function initPriceFeed() public onlyOwner {\n        priceFeed = address(new ChainlinkOraclePriceFeed(ORACLE_FREQUENCY, CHAINLINK_AGGREGATOR));\n    }\n\n    function initBalancer() public onlyOwner {\n        poolBalancer = address(new PoolBalancer(controller, BALANCER_FREQUENCY));\n    }\n\n    function initPoolWrapper() public onlyOwner {\n        poolWrapper = address(new UniPoolWrapper(controller, ethAUSDPair));\n    }\n\n    function initAUSDIssuer() public onlyOwner {\n        ausdIssuer = address(new AUSDIssuer(WETH, controller, BALANCER_FREQUENCY));\n    }\n\n    function initController(address _controller) public onlyOwner {\n        controller = _controller;\n        IController(controller).init();\n        ausd = address(IController(controller).ausd());\n        IController(controller).grantGovernor(msg.sender);\n    }\n\n    function initControllerBalancer() public onlyOwner {\n\n        IController(controller).addPoolWrapper(poolWrapper);\n        IController(controller).setBalancer(poolBalancer);\n        IController(controller).setPoolPriceFeed(UniPoolWrapper(poolWrapper).pool(), priceFeed);\n        IController(controller).setPoolIssuer(AUSDIssuer(ausdIssuer).pool(), ausdIssuer);\n\n    }\n\n    function renounceGovernor() public onlyOwner {\n        IController(controller).revokeGovernor(address(this));\n        renounceOwnership();\n    }\n\n}\n",
  "sourcePath": "/Users/parashar/Documents/defi/arthafinance/contracts/orchestration/TestNetOrchestrator.sol",
  "compiler": {
    "name": "solc",
    "version": "0.6.6+commit.6c089d02.Emscripten.clang"
  },
  "schemaVersion": "3.4.0",
  "updatedAt": "2021-06-03T16:12:19.551Z",
  "networkType": "ethereum",
  "devdoc": {
    "methods": {
      "owner()": {
        "details": "Returns the address of the current owner."
      },
      "renounceOwnership()": {
        "details": "Leaves the contract without owner. It will not be possible to call `onlyOwner` functions anymore. Can only be called by the current owner.     * NOTE: Renouncing ownership will leave the contract without an owner, thereby removing any functionality that is only available to the owner."
      },
      "transferOwnership(address)": {
        "details": "Transfers ownership of the contract to a new account (`newOwner`). Can only be called by the current owner."
      }
    }
  },
  "userdoc": {
    "methods": {}
  }
}