{
  "contractName": "UniPoolWrapper",
  "abi": [
    {
      "inputs": [
        {
          "internalType": "address",
          "name": "_controller",
          "type": "address"
        },
        {
          "internalType": "address",
          "name": "_poolAddress",
          "type": "address"
        }
      ],
      "stateMutability": "nonpayable",
      "type": "constructor"
    },
    {
      "anonymous": false,
      "inputs": [
        {
          "indexed": true,
          "internalType": "address",
          "name": "_controller",
          "type": "address"
        }
      ],
      "name": "ControllerUpdate",
      "type": "event"
    },
    {
      "anonymous": false,
      "inputs": [
        {
          "indexed": false,
          "internalType": "address",
          "name": "account",
          "type": "address"
        }
      ],
      "name": "Paused",
      "type": "event"
    },
    {
      "anonymous": false,
      "inputs": [
        {
          "indexed": false,
          "internalType": "address",
          "name": "account",
          "type": "address"
        }
      ],
      "name": "Unpaused",
      "type": "event"
    },
    {
      "inputs": [],
      "name": "artha",
      "outputs": [
        {
          "internalType": "contract IERC20",
          "name": "",
          "type": "address"
        }
      ],
      "stateMutability": "view",
      "type": "function"
    },
    {
      "inputs": [],
      "name": "arthaBalance",
      "outputs": [
        {
          "internalType": "uint256",
          "name": "",
          "type": "uint256"
        }
      ],
      "stateMutability": "view",
      "type": "function"
    },
    {
      "inputs": [],
      "name": "ausd",
      "outputs": [
        {
          "internalType": "contract IAUSD",
          "name": "",
          "type": "address"
        }
      ],
      "stateMutability": "view",
      "type": "function"
    },
    {
      "inputs": [],
      "name": "ausdBalance",
      "outputs": [
        {
          "internalType": "uint256",
          "name": "",
          "type": "uint256"
        }
      ],
      "stateMutability": "view",
      "type": "function"
    },
    {
      "inputs": [],
      "name": "controller",
      "outputs": [
        {
          "internalType": "contract IController",
          "name": "",
          "type": "address"
        }
      ],
      "stateMutability": "view",
      "type": "function"
    },
    {
      "inputs": [],
      "name": "pair",
      "outputs": [
        {
          "internalType": "contract IUniswapV2Pair",
          "name": "",
          "type": "address"
        }
      ],
      "stateMutability": "view",
      "type": "function"
    },
    {
      "inputs": [],
      "name": "pause",
      "outputs": [],
      "stateMutability": "nonpayable",
      "type": "function"
    },
    {
      "inputs": [],
      "name": "paused",
      "outputs": [
        {
          "internalType": "bool",
          "name": "",
          "type": "bool"
        }
      ],
      "stateMutability": "view",
      "type": "function"
    },
    {
      "inputs": [],
      "name": "pool",
      "outputs": [
        {
          "internalType": "bytes32",
          "name": "",
          "type": "bytes32"
        }
      ],
      "stateMutability": "view",
      "type": "function"
    },
    {
      "inputs": [],
      "name": "poolAddress",
      "outputs": [
        {
          "internalType": "address",
          "name": "",
          "type": "address"
        }
      ],
      "stateMutability": "view",
      "type": "function"
    },
    {
      "inputs": [
        {
          "internalType": "address",
          "name": "controller",
          "type": "address"
        }
      ],
      "name": "setController",
      "outputs": [],
      "stateMutability": "nonpayable",
      "type": "function"
    },
    {
      "inputs": [],
      "name": "unpause",
      "outputs": [],
      "stateMutability": "nonpayable",
      "type": "function"
    },
    {
      "inputs": [],
      "name": "token",
      "outputs": [
        {
          "internalType": "address",
          "name": "",
          "type": "address"
        }
      ],
      "stateMutability": "view",
      "type": "function"
    },
    {
      "inputs": [],
      "name": "getReserves",
      "outputs": [
        {
          "internalType": "uint256",
          "name": "ausdReserves",
          "type": "uint256"
        },
        {
          "internalType": "uint256",
          "name": "tokenReserves",
          "type": "uint256"
        }
      ],
      "stateMutability": "view",
      "type": "function"
    },
    {
      "inputs": [],
      "name": "swapForRebalance",
      "outputs": [],
      "stateMutability": "nonpayable",
      "type": "function"
    }
  ],
  "bytecode": "0x608060408190526208aa8960eb1b90527faaaebeba3810b1e6b70781f14b2d72c1cb89c0b2b320c43bb67ff79f562f5ff4600155670de0b6b3a764000060035534801561004b57600080fd5b506040516115043803806115048339818101604052604081101561006e57600080fd5b508051602090910151600080546001600160a01b03938416610100026001600160a81b031990911617905560028054929091166001600160a01b0319928316811790915560048054909216179055611439806100cb6000396000f3fe608060405234801561001057600080fd5b50600436106100f55760003560e01c80638456cb5911610097578063c80cb44311610066578063c80cb443146101cd578063f77c4791146101d5578063fc0c546a146101dd578063fd1827e2146101e5576100f5565b80638456cb591461018f57806392eefe9b14610197578063a8aa1b31146101bd578063c23af832146101c5576100f5565b80631755ff21116100d35780631755ff211461013d5780633f4ba83a146101615780633f966a161461016b5780635c975abb14610173576100f5565b80630902f1ac146100fa5780630d5b00c31461011b57806316f0115b14610135575b600080fd5b6101026101ed565b6040805192835260208301919091528051918290030190f35b610123610337565b60408051918252519081900360200190f35b6101236103c8565b6101456103ce565b604080516001600160a01b039092168252519081900360200190f35b6101696103dd565b005b61016961051f565b61017b6108fa565b604080519115158252519081900360200190f35b610169610903565b610169600480360360208110156101ad57600080fd5b50356001600160a01b0316610a43565b610145610b49565b610145610b58565b610123610ba7565b610145610bb1565b610145610bc5565b610145610cd4565b6000806000600460009054906101000a90046001600160a01b03166001600160a01b0316630dfe16816040518163ffffffff1660e01b815260040160206040518083038186803b15801561024057600080fd5b505afa158015610254573d6000803e3d6000fd5b505050506040513d602081101561026a57600080fd5b50516004805460408051630240bc6b60e21b8152905193945060009384936001600160a01b0390931692630902f1ac92808201926060929091829003018186803b1580156102b757600080fd5b505afa1580156102cb573d6000803e3d6000fd5b505050506040513d60608110156102e157600080fd5b5080516020909101516dffffffffffffffffffffffffffff91821693501690506001600160a01b038316610313610b58565b6001600160a01b03161461032857808261032b565b81815b90955093505050509091565b6000610341610b58565b6001600160a01b03166370a08231306040518263ffffffff1660e01b815260040180826001600160a01b03166001600160a01b0316815260200191505060206040518083038186803b15801561039657600080fd5b505afa1580156103aa573d6000803e3d6000fd5b505050506040513d60208110156103c057600080fd5b505190505b90565b60015481565b6002546001600160a01b031681565b60005460408051631c86b03760e31b815233600482015290516101009092046001600160a01b03169163e43581b891602480820192602092909190829003018186803b15801561042c57600080fd5b505afa158015610440573d6000803e3d6000fd5b505050506040513d602081101561045657600080fd5b5051806104da575060005460408051630c68ba2160e01b815233600482015290516101009092046001600160a01b031691630c68ba2191602480820192602092909190829003018186803b1580156104ad57600080fd5b505afa1580156104c1573d6000803e3d6000fd5b505050506040513d60208110156104d757600080fd5b50515b6105155760405162461bcd60e51b815260040180806020018281038252603381526020018061130f6033913960400191505060405180910390fd5b61051d610d23565b565b6000546040805163cdb5320560e01b815233600482015290516101009092046001600160a01b03169163cdb5320591602480820192602092909190829003018186803b15801561056e57600080fd5b505afa158015610582573d6000803e3d6000fd5b505050506040513d602081101561059857600080fd5b50516105d55760405162461bcd60e51b81526004018080602001828103825260278152602001806113426027913960400191505060405180910390fd5b60006105df610bc5565b90506000806105ec6101ed565b9150915060006105fc8284610dc3565b905080156108f45761060c610bb1565b6001600160a01b031663e563037e6040518163ffffffff1660e01b815260040160206040518083038186803b15801561064457600080fd5b505afa158015610658573d6000803e3d6000fd5b505050506040513d602081101561066e57600080fd5b505160025460408051637aa9bf6f60e11b81526001600160a01b0388811660048301529283166024820152604481018590529051919092169163f5537ede91606480830192600092919082900301818387803b1580156106cd57600080fd5b505af11580156106e1573d6000803e3d6000fd5b5050505060006106f2828486610f32565b6004805460408051630dfe168160e01b8152905193945060009384936001600160a01b03808c16941692630dfe16819281830192602092829003018186803b15801561073d57600080fd5b505afa158015610751573d6000803e3d6000fd5b505050506040513d602081101561076757600080fd5b50516001600160a01b03161461077f57826000610783565b6000835b60045491935091506001600160a01b031663022c0d9f83836107a3610bb1565b6001600160a01b031663e563037e6040518163ffffffff1660e01b815260040160206040518083038186803b1580156107db57600080fd5b505afa1580156107ef573d6000803e3d6000fd5b505050506040513d602081101561080557600080fd5b50516040805160008082526020820190925290506040518563ffffffff1660e01b815260040180858152602001848152602001836001600160a01b03166001600160a01b0316815260200180602001828103825283818151815260200191508051906020019080838360005b83811015610889578181015183820152602001610871565b50505050905090810190601f1680156108b65780820380516001836020036101000a031916815260200191505b5095505050505050600060405180830381600087803b1580156108d857600080fd5b505af11580156108ec573d6000803e3d6000fd5b505050505050505b50505050565b60005460ff1690565b60005460408051631c86b03760e31b815233600482015290516101009092046001600160a01b03169163e43581b891602480820192602092909190829003018186803b15801561095257600080fd5b505afa158015610966573d6000803e3d6000fd5b505050506040513d602081101561097c57600080fd5b505180610a00575060005460408051630c68ba2160e01b815233600482015290516101009092046001600160a01b031691630c68ba2191602480820192602092909190829003018186803b1580156109d357600080fd5b505afa1580156109e7573d6000803e3d6000fd5b505050506040513d60208110156109fd57600080fd5b50515b610a3b5760405162461bcd60e51b815260040180806020018281038252603381526020018061130f6033913960400191505060405180910390fd5b61051d611022565b60005460408051631c86b03760e31b815233600482015290516101009092046001600160a01b03169163e43581b891602480820192602092909190829003018186803b158015610a9257600080fd5b505afa158015610aa6573d6000803e3d6000fd5b505050506040513d6020811015610abc57600080fd5b5051610af95760405162461bcd60e51b81526004018080602001828103825260278152602001806113696027913960400191505060405180910390fd5b60008054610100600160a81b0319166101006001600160a01b03841690810291909117825560405190917f5b9e04ebd57dd0a9649b6a969291839f2794d18ee0dfe7027b5757db16eb98b691a250565b6004546001600160a01b031681565b60008060019054906101000a90046001600160a01b03166001600160a01b031663c23af8326040518163ffffffff1660e01b815260040160206040518083038186803b15801561039657600080fd5b6000610341610cd4565b60005461010090046001600160a01b031690565b6004805460408051630dfe168160e01b8152905160009384936001600160a01b031692630dfe16819281830192602092829003018186803b158015610c0957600080fd5b505afa158015610c1d573d6000803e3d6000fd5b505050506040513d6020811015610c3357600080fd5b505190506001600160a01b038116610c49610b58565b6001600160a01b03161415610ccf57600480546040805163d21220a760e01b815290516001600160a01b039092169263d21220a7928282019260209290829003018186803b158015610c9a57600080fd5b505afa158015610cae573d6000803e3d6000fd5b505050506040513d6020811015610cc457600080fd5b505191506103c59050565b905090565b60008060019054906101000a90046001600160a01b03166001600160a01b031663fd1827e26040518163ffffffff1660e01b815260040160206040518083038186803b15801561039657600080fd5b610d2b6108fa565b610d73576040805162461bcd60e51b815260206004820152601460248201527314185d5cd8589b194e881b9bdd081c185d5cd95960621b604482015290519081900360640190fd5b6000805460ff191690557f5db9ee0a495bf2e6ff9c91a7834c1ba4fdd244a5e8aa4e537bd38aeae4b073aa610da66110a1565b604080516001600160a01b039092168252519081900360200190a1565b600080610dce610bb1565b6001600160a01b0316637061e80f6001546040518263ffffffff1660e01b81526004018082815260200191505060206040518083038186803b158015610e1357600080fd5b505afa158015610e27573d6000803e3d6000fd5b505050506040513d6020811015610e3d57600080fd5b50516040805163501ad8ff60e11b815290516001600160a01b039092169163a035b1fe91600480820192602092909190829003018186803b158015610e8157600080fd5b505afa158015610e95573d6000803e3d6000fd5b505050506040513d6020811015610eab57600080fd5b505190506000610ee9670de0b6b3a7640000610edd84610ed1888a63ffffffff6110a516565b9063ffffffff61110516565b9063ffffffff6110a516565b90506000610ef68261116c565b905085811115610f2457610f1a6103e5610ed18884036103e863ffffffff6110a516565b9350505050610f2c565b600093505050505b92915050565b6000808411610f725760405162461bcd60e51b815260040180806020018281038252602b8152602001806113d9602b913960400191505060405180910390fd5b600083118015610f825750600082115b610fbd5760405162461bcd60e51b81526004018080602001828103825260288152602001806113906028913960400191505060405180910390fd5b6000610fd1856103e563ffffffff6110a516565b90506000610fe5828563ffffffff6110a516565b9050600061100b83610fff886103e863ffffffff6110a516565b9063ffffffff6112b416565b905080828161101657fe5b04979650505050505050565b61102a6108fa565b1561106f576040805162461bcd60e51b815260206004820152601060248201526f14185d5cd8589b194e881c185d5cd95960821b604482015290519081900360640190fd5b6000805460ff191660011790557f62e78cea01bee320cd4e420270b5ea74000d11b0c9f74754ebdbfc544b05a258610da65b3390565b6000826110b457506000610f2c565b828202828482816110c157fe5b04146110fe5760405162461bcd60e51b81526004018080602001828103825260218152602001806113b86021913960400191505060405180910390fd5b9392505050565b600080821161115b576040805162461bcd60e51b815260206004820152601a60248201527f536166654d6174683a206469766973696f6e206279207a65726f000000000000604482015290519081900360640190fd5b81838161116457fe5b049392505050565b60008161117b575060006112af565b816001600160801b82106111945760809190911c9060401b5b6801000000000000000082106111af5760409190911c9060201b5b64010000000082106111c65760209190911c9060101b5b6201000082106111db5760109190911c9060081b5b61010082106111ef5760089190911c9060041b5b601082106112025760049190911c9060021b5b6008821061120e5760011b5b600181858161121957fe5b048201901c9050600181858161122b57fe5b048201901c9050600181858161123d57fe5b048201901c9050600181858161124f57fe5b048201901c9050600181858161126157fe5b048201901c9050600181858161127357fe5b048201901c9050600181858161128557fe5b048201901c9050600081858161129757fe5b0490508082106112a757806112a9565b815b93505050505b919050565b6000828201838110156110fe576040805162461bcd60e51b815260206004820152601b60248201527f536166654d6174683a206164646974696f6e206f766572666c6f770000000000604482015290519081900360640190fdfe436f6e74726f6c6c65725265663a2043616c6c6572206973206e6f74206120677561726469616e206f7220676f7665726e6f72436f6e74726f6c6c65725265663a2043616c6c6572206973206e6f7420612062616c616e636572436f6e74726f6c6c65725265663a2043616c6c6572206973206e6f74206120676f7665726e6f72556e697377617056324c6962726172793a20494e53554646494349454e545f4c4951554944495459536166654d6174683a206d756c7469706c69636174696f6e206f766572666c6f77556e697377617056324c6962726172793a20494e53554646494349454e545f494e5055545f414d4f554e54a264697066735822122088883d3ef02c5fe32cc4194ddfa48a4c901e47a0abad69cdd62b226da7987cc164736f6c63430006060033",
  "immutableReferences": {},
  "source": "pragma solidity ^0.6.0;\n\nimport \"@uniswap/v2-core/contracts/interfaces/IUniswapV2Pair.sol\";\nimport \"@uniswap/lib/contracts/libraries/Babylonian.sol\";\nimport \"@openzeppelin/contracts/math/Math.sol\";\nimport \"@openzeppelin/contracts/math/SafeMath.sol\";\nimport \"@openzeppelin/contracts/token/ERC20/IERC20.sol\";\nimport \"./ControllerRef.sol\";\nimport \"./IPoolWrapper.sol\";\nimport \"../oracle/IPriceFeed.sol\";\nimport \"./IPoolBalancer.sol\";\nimport \"../utils/UniswapV2Library.sol\";\n\ncontract UniPoolWrapper is IPoolWrapper, ControllerRef{\n    \n    using SafeMath for uint256;\n    using Babylonian for uint256;\n    \n    bytes32 public pool = keccak256(\"ETH\");\n    address public override poolAddress;\n\n    uint256 internal WAD = 1e18;\n\n    /// @notice the referenced Uniswap pair contract\n    IUniswapV2Pair public pair;\n\n    constructor(\n        address _controller,\n        address _poolAddress) public ControllerRef(_controller) {\n        \n        poolAddress = _poolAddress;\n        pair = IUniswapV2Pair(_poolAddress);\n    }\n\n\n    /// @notice the address of the non-artha underlying token\n    function token() public view returns (address) {\n        address token0 = pair.token0();\n        if (address(ausd()) == token0) {\n            return pair.token1();\n        }\n        return token0;\n    }\n\n    /// @notice pair reserves with fei listed first\n    /// @dev uses the max of pair fei balance and fei reserves. Mitigates attack vectors which manipulate the pair balance\n    function getReserves()\n        public\n        view\n        returns (uint256 ausdReserves, uint256 tokenReserves)\n    {\n        address token0 = pair.token0();\n        (uint256 reserve0, uint256 reserve1, ) = pair.getReserves();\n        (ausdReserves, tokenReserves) = address(ausd()) == token0\n            ? (reserve0, reserve1)\n            : (reserve1, reserve0);\n        return (ausdReserves, tokenReserves);\n    }\n\n\n    // function getAdjustedBalance() public override returns (uint256 newBalance, uint256 arthaPrice){\n        \n    //     uint256 price = IPriceFeed(controller.poolPriceFeeds(pool)).price();\n\n    //     address tokenAddress = IUniswapV2Pair(poolAddress).token0() == address(controller.artha()) ? \n    //         IUniswapV2Pair(poolAddress).token1() : IUniswapV2Pair(poolAddress).token0();\n\n    //     ERC20 token = ERC20(tokenAddress);\n    //     uint256 tokenBalance = token.balanceOf(poolAddress);\n\n    //     newBalance = price.mul(tokenBalance).div(WAD);\n    //     arthaPrice =  price.mul(tokenBalance).div(controller.artha().balanceOf(poolAddress));\n\n    // }\n\n\n    // function postRebalance() public override {\n    //     IUniswapV2Pair(poolAddress).sync();\n    // }\n\n    function _getTokenToSwap(uint256 tokenReserves, uint256 ausdReserves) internal view returns(uint256){\n        \n        uint256 price = IPriceFeed(controller().poolPriceFeeds(pool)).price();\n        uint256 radicand = ausdReserves.mul(tokenReserves).div(price).mul(1e18);\n        uint256 root = radicand.sqrt();\n        \n        if (root > tokenReserves) {\n            return (root - tokenReserves).mul(1000).div(997);\n        }\n\n        return 0;\n    }\n\n\n    function swapForRebalance() public override onlyBalancer {\n\n\n        address token = token();\n        (uint256 ausdReserves, uint256 tokenReserves) = getReserves();\n\n        uint256 amount = _getTokenToSwap(tokenReserves, ausdReserves);\n        if(amount > 0){\n\n            IPoolBalancer(controller().balancer()).transferToken(token, poolAddress, amount);\n            \n            uint256 amountOut = UniswapV2Library.getAmountOut(amount, tokenReserves, ausdReserves);\n            (uint256 amount0Out, uint256 amount1Out) =\n                    pair.token0() == token\n                        ? (uint256(0), amountOut)\n                        : (amountOut, uint256(0));\n            \n            pair.swap(amount0Out, amount1Out, address(controller().balancer()), new bytes(0));\n\n        }\n        \n\n    }\n\n}",
  "sourcePath": "/Users/parashar/Documents/defi/arthafinance/contracts/controller/UniPoolWrapper.sol",
  "compiler": {
    "name": "solc",
    "version": "0.6.6+commit.6c089d02.Emscripten.clang"
  },
  "schemaVersion": "3.3.4",
  "updatedAt": "2021-06-03T16:05:15.609Z",
  "devdoc": {
    "methods": {
      "getReserves()": {
        "details": "uses the max of pair fei balance and fei reserves. Mitigates attack vectors which manipulate the pair balance"
      },
      "paused()": {
        "details": "Returns true if the contract is paused, and false otherwise."
      },
      "setController(address)": {
        "params": {
          "controller": "the new controller address"
        }
      }
    }
  },
  "userdoc": {
    "methods": {
      "artha()": {
        "notice": "address of the AGT contract referenced by Controller"
      },
      "arthaBalance()": {
        "notice": "Artha balance of contract"
      },
      "ausd()": {
        "notice": "address of the AUSD contract referenced by Controller"
      },
      "ausdBalance()": {
        "notice": "ausd balance of contract"
      },
      "controller()": {
        "notice": "address of the Controller contract referenced"
      },
      "getReserves()": {
        "notice": "pair reserves with fei listed first"
      },
      "pause()": {
        "notice": "set pausable methods to paused"
      },
      "setController(address)": {
        "notice": "set new Controller reference address"
      },
      "token()": {
        "notice": "the address of the non-artha underlying token"
      },
      "unpause()": {
        "notice": "set pausable methods to unpaused"
      }
    }
  }
}